{
  "_format": "hh-sol-artifact-1",
  "contractName": "PriceEthUsd",
  "sourceName": "contracts/OracleEthUsd.sol",
  "abi": [
    {
      "inputs": [],
      "stateMutability": "nonpayable",
      "type": "constructor"
    },
    {
      "inputs": [],
      "name": "getLatestPrice",
      "outputs": [
        {
          "internalType": "int256",
          "name": "",
          "type": "int256"
        }
      ],
      "stateMutability": "view",
      "type": "function"
    }
  ],
  "bytecode": "0x608060405234801561001057600080fd5b50738a753747a1fa494ec906ce90e9f37563a8af630e6000806101000a81548173ffffffffffffffffffffffffffffffffffffffff021916908373ffffffffffffffffffffffffffffffffffffffff160217905550610361806100746000396000f3fe608060405234801561001057600080fd5b506004361061002b5760003560e01c80638e15f47314610030575b600080fd5b61003861004e565b6040516100459190610124565b60405180910390f35b60008060008054906101000a900473ffffffffffffffffffffffffffffffffffffffff1673ffffffffffffffffffffffffffffffffffffffff1663feaf968c6040518163ffffffff1660e01b815260040160a06040518083038186803b1580156100b757600080fd5b505afa1580156100cb573d6000803e3d6000fd5b505050506040513d601f19601f820116820180604052508101906100ef91906101e8565b5050509150506305f5e1008161010591906102c1565b91505090565b6000819050919050565b61011e8161010b565b82525050565b60006020820190506101396000830184610115565b92915050565b600080fd5b600069ffffffffffffffffffff82169050919050565b61016381610144565b811461016e57600080fd5b50565b6000815190506101808161015a565b92915050565b61018f8161010b565b811461019a57600080fd5b50565b6000815190506101ac81610186565b92915050565b6000819050919050565b6101c5816101b2565b81146101d057600080fd5b50565b6000815190506101e2816101bc565b92915050565b600080600080600060a086880312156102045761020361013f565b5b600061021288828901610171565b95505060206102238882890161019d565b9450506040610234888289016101d3565b9350506060610245888289016101d3565b925050608061025688828901610171565b9150509295509295909350565b7f4e487b7100000000000000000000000000000000000000000000000000000000600052601260045260246000fd5b7f4e487b7100000000000000000000000000000000000000000000000000000000600052601160045260246000fd5b60006102cc8261010b565b91506102d78361010b565b9250826102e7576102e6610263565b5b600160000383147f8000000000000000000000000000000000000000000000000000000000000000831416156103205761031f610292565b5b82820590509291505056fea26469706673582212200ec40f11e8770e34727fe9cf17465823b2297d98fb910f1058f7ebd41e8c3b4764736f6c63430008090033",
  "linkReferences": {},
  "deployedLinkReferences": {}
}