{
  "_format": "hh-sol-artifact-1",
  "contractName": "SssssmokinFinance",
  "sourceName": "contracts/SssssmokinFinance.sol",
  "abi": [
    {
      "inputs": [],
      "stateMutability": "nonpayable",
      "type": "constructor"
    },
    {
      "inputs": [],
      "name": "InvalidChainlinkAdrress",
      "type": "error"
    },
    {
      "inputs": [],
      "name": "InvalidPrice",
      "type": "error"
    },
    {
      "inputs": [],
      "name": "InvalidTokenAdrress",
      "type": "error"
    },
    {
      "inputs": [],
      "name": "NoneBenefits",
      "type": "error"
    },
    {
      "inputs": [],
      "name": "NotEnoughCredit",
      "type": "error"
    },
    {
      "inputs": [],
      "name": "NotEnoughStock",
      "type": "error"
    },
    {
      "inputs": [],
      "name": "NotProvideToken",
      "type": "error"
    },
    {
      "inputs": [],
      "name": "RepaymentNotCorrect",
      "type": "error"
    },
    {
      "anonymous": false,
      "inputs": [
        {
          "indexed": true,
          "internalType": "uint256",
          "name": "amount",
          "type": "uint256"
        },
        {
          "indexed": true,
          "internalType": "uint256",
          "name": "exchange",
          "type": "uint256"
        }
      ],
      "name": "DepositForEthSuccess",
      "type": "event"
    },
    {
      "anonymous": false,
      "inputs": [
        {
          "indexed": true,
          "internalType": "uint256",
          "name": "amount",
          "type": "uint256"
        },
        {
          "indexed": true,
          "internalType": "address",
          "name": "token",
          "type": "address"
        },
        {
          "indexed": true,
          "internalType": "uint256",
          "name": "exchange",
          "type": "uint256"
        }
      ],
      "name": "DepositForTokenSuccess",
      "type": "event"
    },
    {
      "anonymous": false,
      "inputs": [
        {
          "indexed": true,
          "internalType": "address",
          "name": "previousOwner",
          "type": "address"
        },
        {
          "indexed": true,
          "internalType": "address",
          "name": "newOwner",
          "type": "address"
        }
      ],
      "name": "OwnershipTransferred",
      "type": "event"
    },
    {
      "anonymous": false,
      "inputs": [
        {
          "indexed": false,
          "internalType": "uint256",
          "name": "pos",
          "type": "uint256"
        },
        {
          "indexed": true,
          "internalType": "uint256",
          "name": "remain",
          "type": "uint256"
        }
      ],
      "name": "RepaymentSucess",
      "type": "event"
    },
    {
      "stateMutability": "payable",
      "type": "fallback"
    },
    {
      "inputs": [
        {
          "internalType": "address",
          "name": "token",
          "type": "address"
        },
        {
          "internalType": "uint256",
          "name": "amount",
          "type": "uint256"
        }
      ],
      "name": "deposit",
      "outputs": [],
      "stateMutability": "nonpayable",
      "type": "function"
    },
    {
      "inputs": [
        {
          "internalType": "uint256",
          "name": "amount",
          "type": "uint256"
        }
      ],
      "name": "depositETH",
      "outputs": [],
      "stateMutability": "nonpayable",
      "type": "function"
    },
    {
      "inputs": [],
      "name": "getAllBenefits",
      "outputs": [
        {
          "components": [
            {
              "internalType": "uint32",
              "name": "ratio",
              "type": "uint32"
            },
            {
              "internalType": "uint32",
              "name": "apr",
              "type": "uint32"
            },
            {
              "internalType": "uint64",
              "name": "validityTime",
              "type": "uint64"
            },
            {
              "internalType": "uint128",
              "name": "credit",
              "type": "uint128"
            }
          ],
          "internalType": "struct SssssmokinFinance.Benefits[]",
          "name": "",
          "type": "tuple[]"
        }
      ],
      "stateMutability": "view",
      "type": "function"
    },
    {
      "inputs": [],
      "name": "getAllProvideTokens",
      "outputs": [
        {
          "internalType": "address[]",
          "name": "",
          "type": "address[]"
        }
      ],
      "stateMutability": "view",
      "type": "function"
    },
    {
      "inputs": [
        {
          "internalType": "uint256",
          "name": "tokenId",
          "type": "uint256"
        }
      ],
      "name": "getBenefits",
      "outputs": [
        {
          "components": [
            {
              "internalType": "uint32",
              "name": "ratio",
              "type": "uint32"
            },
            {
              "internalType": "uint32",
              "name": "apr",
              "type": "uint32"
            },
            {
              "internalType": "uint64",
              "name": "validityTime",
              "type": "uint64"
            },
            {
              "internalType": "uint128",
              "name": "credit",
              "type": "uint128"
            }
          ],
          "internalType": "struct SssssmokinFinance.Benefits",
          "name": "",
          "type": "tuple"
        }
      ],
      "stateMutability": "view",
      "type": "function"
    },
    {
      "inputs": [
        {
          "internalType": "uint256",
          "name": "tokenId",
          "type": "uint256"
        }
      ],
      "name": "getCredit",
      "outputs": [
        {
          "internalType": "uint256",
          "name": "",
          "type": "uint256"
        }
      ],
      "stateMutability": "view",
      "type": "function"
    },
    {
      "inputs": [],
      "name": "getETHFeed",
      "outputs": [
        {
          "internalType": "int256",
          "name": "",
          "type": "int256"
        },
        {
          "internalType": "uint8",
          "name": "",
          "type": "uint8"
        }
      ],
      "stateMutability": "view",
      "type": "function"
    },
    {
      "inputs": [],
      "name": "getSenderBenefits",
      "outputs": [
        {
          "components": [
            {
              "internalType": "uint32",
              "name": "ratio",
              "type": "uint32"
            },
            {
              "internalType": "uint32",
              "name": "apr",
              "type": "uint32"
            },
            {
              "internalType": "uint64",
              "name": "validityTime",
              "type": "uint64"
            },
            {
              "internalType": "uint128",
              "name": "credit",
              "type": "uint128"
            }
          ],
          "internalType": "struct SssssmokinFinance.Benefits",
          "name": "",
          "type": "tuple"
        }
      ],
      "stateMutability": "view",
      "type": "function"
    },
    {
      "inputs": [],
      "name": "getSenderLoaning",
      "outputs": [
        {
          "components": [
            {
              "internalType": "uint32",
              "name": "apr",
              "type": "uint32"
            },
            {
              "internalType": "uint64",
              "name": "time",
              "type": "uint64"
            },
            {
              "internalType": "uint128",
              "name": "margin",
              "type": "uint128"
            },
            {
              "internalType": "uint256",
              "name": "exchange",
              "type": "uint256"
            },
            {
              "internalType": "address",
              "name": "token",
              "type": "address"
            }
          ],
          "internalType": "struct SssssmokinFinance.Loan[]",
          "name": "",
          "type": "tuple[]"
        }
      ],
      "stateMutability": "view",
      "type": "function"
    },
    {
      "inputs": [],
      "name": "getSenderMargin",
      "outputs": [
        {
          "internalType": "uint256",
          "name": "",
          "type": "uint256"
        }
      ],
      "stateMutability": "view",
      "type": "function"
    },
    {
      "inputs": [
        {
          "internalType": "address",
          "name": "token",
          "type": "address"
        }
      ],
      "name": "getTokenFeed",
      "outputs": [
        {
          "internalType": "int256",
          "name": "",
          "type": "int256"
        },
        {
          "internalType": "uint8",
          "name": "",
          "type": "uint8"
        }
      ],
      "stateMutability": "view",
      "type": "function"
    },
    {
      "inputs": [
        {
          "internalType": "address",
          "name": "user",
          "type": "address"
        }
      ],
      "name": "getUserBenefits",
      "outputs": [
        {
          "components": [
            {
              "internalType": "uint32",
              "name": "ratio",
              "type": "uint32"
            },
            {
              "internalType": "uint32",
              "name": "apr",
              "type": "uint32"
            },
            {
              "internalType": "uint64",
              "name": "validityTime",
              "type": "uint64"
            },
            {
              "internalType": "uint128",
              "name": "credit",
              "type": "uint128"
            }
          ],
          "internalType": "struct SssssmokinFinance.Benefits",
          "name": "",
          "type": "tuple"
        }
      ],
      "stateMutability": "view",
      "type": "function"
    },
    {
      "inputs": [
        {
          "internalType": "address",
          "name": "user",
          "type": "address"
        }
      ],
      "name": "getUserLoaning",
      "outputs": [
        {
          "components": [
            {
              "internalType": "uint32",
              "name": "apr",
              "type": "uint32"
            },
            {
              "internalType": "uint64",
              "name": "time",
              "type": "uint64"
            },
            {
              "internalType": "uint128",
              "name": "margin",
              "type": "uint128"
            },
            {
              "internalType": "uint256",
              "name": "exchange",
              "type": "uint256"
            },
            {
              "internalType": "address",
              "name": "token",
              "type": "address"
            }
          ],
          "internalType": "struct SssssmokinFinance.Loan[]",
          "name": "",
          "type": "tuple[]"
        }
      ],
      "stateMutability": "view",
      "type": "function"
    },
    {
      "inputs": [
        {
          "internalType": "address",
          "name": "user",
          "type": "address"
        }
      ],
      "name": "getUserMargin",
      "outputs": [
        {
          "internalType": "uint256",
          "name": "",
          "type": "uint256"
        }
      ],
      "stateMutability": "view",
      "type": "function"
    },
    {
      "inputs": [
        {
          "internalType": "address",
          "name": "token",
          "type": "address"
        }
      ],
      "name": "isProvideToken",
      "outputs": [
        {
          "internalType": "bool",
          "name": "",
          "type": "bool"
        }
      ],
      "stateMutability": "view",
      "type": "function"
    },
    {
      "inputs": [],
      "name": "membershipTokenContract",
      "outputs": [
        {
          "internalType": "contract IERC1155",
          "name": "",
          "type": "address"
        }
      ],
      "stateMutability": "view",
      "type": "function"
    },
    {
      "inputs": [],
      "name": "owner",
      "outputs": [
        {
          "internalType": "address",
          "name": "",
          "type": "address"
        }
      ],
      "stateMutability": "view",
      "type": "function"
    },
    {
      "inputs": [
        {
          "internalType": "uint256",
          "name": "",
          "type": "uint256"
        }
      ],
      "name": "provideTokensArray",
      "outputs": [
        {
          "internalType": "address",
          "name": "",
          "type": "address"
        }
      ],
      "stateMutability": "view",
      "type": "function"
    },
    {
      "inputs": [
        {
          "internalType": "uint256",
          "name": "tokenId",
          "type": "uint256"
        }
      ],
      "name": "removeBenefits",
      "outputs": [],
      "stateMutability": "nonpayable",
      "type": "function"
    },
    {
      "inputs": [
        {
          "internalType": "uint256",
          "name": "pos",
          "type": "uint256"
        }
      ],
      "name": "removeProvideTokens",
      "outputs": [],
      "stateMutability": "nonpayable",
      "type": "function"
    },
    {
      "inputs": [
        {
          "internalType": "address",
          "name": "token",
          "type": "address"
        }
      ],
      "name": "removeProvideTokens",
      "outputs": [],
      "stateMutability": "nonpayable",
      "type": "function"
    },
    {
      "inputs": [],
      "name": "renounceOwnership",
      "outputs": [],
      "stateMutability": "nonpayable",
      "type": "function"
    },
    {
      "inputs": [
        {
          "internalType": "uint256",
          "name": "pos",
          "type": "uint256"
        }
      ],
      "name": "repayment",
      "outputs": [],
      "stateMutability": "payable",
      "type": "function"
    },
    {
      "inputs": [
        {
          "internalType": "uint256",
          "name": "tokenId",
          "type": "uint256"
        },
        {
          "components": [
            {
              "internalType": "uint32",
              "name": "ratio",
              "type": "uint32"
            },
            {
              "internalType": "uint32",
              "name": "apr",
              "type": "uint32"
            },
            {
              "internalType": "uint64",
              "name": "validityTime",
              "type": "uint64"
            },
            {
              "internalType": "uint128",
              "name": "credit",
              "type": "uint128"
            }
          ],
          "internalType": "struct SssssmokinFinance.Benefits",
          "name": "benefits",
          "type": "tuple"
        }
      ],
      "name": "setBenefits",
      "outputs": [],
      "stateMutability": "nonpayable",
      "type": "function"
    },
    {
      "inputs": [
        {
          "internalType": "address",
          "name": "chainlink",
          "type": "address"
        }
      ],
      "name": "setETHChainLink",
      "outputs": [],
      "stateMutability": "nonpayable",
      "type": "function"
    },
    {
      "inputs": [
        {
          "internalType": "address",
          "name": "token",
          "type": "address"
        },
        {
          "internalType": "address",
          "name": "chainlink",
          "type": "address"
        }
      ],
      "name": "setProvideTokens",
      "outputs": [],
      "stateMutability": "nonpayable",
      "type": "function"
    },
    {
      "inputs": [
        {
          "internalType": "uint256[]",
          "name": "order",
          "type": "uint256[]"
        }
      ],
      "name": "setTokenIdOrder",
      "outputs": [],
      "stateMutability": "nonpayable",
      "type": "function"
    },
    {
      "inputs": [
        {
          "internalType": "uint256",
          "name": "",
          "type": "uint256"
        }
      ],
      "name": "tokenIdOrder",
      "outputs": [
        {
          "internalType": "uint256",
          "name": "",
          "type": "uint256"
        }
      ],
      "stateMutability": "view",
      "type": "function"
    },
    {
      "inputs": [
        {
          "internalType": "address",
          "name": "newOwner",
          "type": "address"
        }
      ],
      "name": "transferOwnership",
      "outputs": [],
      "stateMutability": "nonpayable",
      "type": "function"
    },
    {
      "inputs": [],
      "name": "weeeeToken",
      "outputs": [
        {
          "internalType": "contract IERC20",
          "name": "",
          "type": "address"
        }
      ],
      "stateMutability": "view",
      "type": "function"
    },
    {
      "stateMutability": "payable",
      "type": "receive"
    }
  ],
  "bytecode": "0x60806040523480156200001157600080fd5b5062000032620000266200005d60201b60201c565b6200006560201b60201c565b62000057738a753747a1fa494ec906ce90e9f37563a8af630e6200012960201b60201c565b620002a8565b600033905090565b60008060009054906101000a900473ffffffffffffffffffffffffffffffffffffffff169050816000806101000a81548173ffffffffffffffffffffffffffffffffffffffff021916908373ffffffffffffffffffffffffffffffffffffffff1602179055508173ffffffffffffffffffffffffffffffffffffffff168173ffffffffffffffffffffffffffffffffffffffff167f8be0079c531659141344cd1fd0a4f28419497f9722a3daafe3b4186f6b6457e060405160405180910390a35050565b620001396200005d60201b60201c565b73ffffffffffffffffffffffffffffffffffffffff166200015f620001fc60201b60201c565b73ffffffffffffffffffffffffffffffffffffffff1614620001b8576040517f08c379a0000000000000000000000000000000000000000000000000000000008152600401620001af9062000286565b60405180910390fd5b80600560006101000a81548173ffffffffffffffffffffffffffffffffffffffff021916908373ffffffffffffffffffffffffffffffffffffffff16021790555050565b60008060009054906101000a900473ffffffffffffffffffffffffffffffffffffffff16905090565b600082825260208201905092915050565b7f4f776e61626c653a2063616c6c6572206973206e6f7420746865206f776e6572600082015250565b60006200026e60208362000225565b91506200027b8262000236565b602082019050919050565b60006020820190508181036000830152620002a1816200025f565b9050919050565b614c6280620002b86000396000f3fe6080604052600436106101d15760003560e01c80637638f6d9116100f7578063da304e4d11610095578063f2fde38b11610064578063f2fde38b14610697578063f731c999146106c0578063f9ab632c146106eb578063fdb6b8ef14610728576101d8565b8063da304e4d146105b7578063e1fddd76146105f4578063e370e7061461061d578063e43f2b3b1461065a576101d8565b806395e5a64d116100d157806395e5a64d146104ff578063bc2af67914610528578063d09ad09014610551578063d55272681461058e576101d8565b80637638f6d91461047e5780638da5cb5b146104a957806391b4415e146104d4576101d8565b806347e7ef241161016f5780635a30b9b31161013e5780635a30b9b3146103e25780636737b31e1461040d5780636747b94814610429578063715018a614610467576101d8565b806347e7ef2414610327578063483c07ff1461035057806349c3fd871461037c5780635358fbda146103b9576101d8565b806318467d2d116101ab57806318467d2d1461026b5780631d63d40314610294578063398873da146102bf57806346e5dec3146102fc576101d8565b8063048a631f146101da5780630ff5ee4314610203578063148d679114610240576101d8565b366101d857005b005b3480156101e657600080fd5b5061020160048036038101906101fc91906136c6565b610751565b005b34801561020f57600080fd5b5061022a600480360381019061022591906136c6565b610811565b60405161023791906137b5565b60405180910390f35b34801561024c57600080fd5b50610255610a79565b60405161026291906138d4565b60405180910390f35b34801561027757600080fd5b50610292600480360381019061028d919061392c565b610c25565b005b3480156102a057600080fd5b506102a9610e63565b6040516102b691906139b8565b60405180910390f35b3480156102cb57600080fd5b506102e660048036038101906102e1919061392c565b610e89565b6040516102f391906139e2565b60405180910390f35b34801561030857600080fd5b50610311610ead565b60405161031e9190613a1e565b60405180910390f35b34801561033357600080fd5b5061034e60048036038101906103499190613a39565b610ed3565b005b34801561035c57600080fd5b5061036561162a565b604051610373929190613aae565b60405180910390f35b34801561038857600080fd5b506103a3600480360381019061039e919061392c565b6116e9565b6040516103b09190613ae6565b60405180910390f35b3480156103c557600080fd5b506103e060048036038101906103db919061392c565b611728565b005b3480156103ee57600080fd5b506103f7611d2e565b6040516104049190613c36565b60405180910390f35b6104276004803603810190610422919061392c565b611d45565b005b34801561043557600080fd5b50610450600480360381019061044b91906136c6565b612425565b60405161045e929190613aae565b60405180910390f35b34801561047357600080fd5b5061047c612561565b005b34801561048a57600080fd5b506104936125e9565b6040516104a091906139e2565b60405180910390f35b3480156104b557600080fd5b506104be612600565b6040516104cb9190613ae6565b60405180910390f35b3480156104e057600080fd5b506104e9612629565b6040516104f69190613d07565b60405180910390f35b34801561050b57600080fd5b506105266004803603810190610521919061392c565b6126b7565b005b34801561053457600080fd5b5061054f600480360381019061054a9190613d4d565b6127b8565b005b34801561055d57600080fd5b50610578600480360381019061057391906136c6565b6127df565b6040516105859190613c36565b60405180910390f35b34801561059a57600080fd5b506105b560048036038101906105b091906136c6565b61297f565b005b3480156105c357600080fd5b506105de60048036038101906105d9919061392c565b612c16565b6040516105eb91906139e2565b60405180910390f35b34801561060057600080fd5b5061061b60048036038101906106169190613df2565b612c64565b005b34801561062957600080fd5b50610644600480360381019061063f919061392c565b612c7a565b60405161065191906137b5565b60405180910390f35b34801561066657600080fd5b50610681600480360381019061067c91906136c6565b612d6f565b60405161068e91906139e2565b60405180910390f35b3480156106a357600080fd5b506106be60048036038101906106b991906136c6565b612f79565b005b3480156106cc57600080fd5b506106d5613071565b6040516106e291906137b5565b60405180910390f35b3480156106f757600080fd5b50610712600480360381019061070d91906136c6565b61308e565b60405161071f9190613e5a565b60405180910390f35b34801561073457600080fd5b5061074f600480360381019061074a9190613e75565b613126565b005b6107596133b0565b73ffffffffffffffffffffffffffffffffffffffff16610777612600565b73ffffffffffffffffffffffffffffffffffffffff16146107cd576040517f08c379a00000000000000000000000000000000000000000000000000000000081526004016107c490613f12565b60405180910390fd5b80600560006101000a81548173ffffffffffffffffffffffffffffffffffffffff021916908373ffffffffffffffffffffffffffffffffffffffff16021790555050565b61081961359a565b600060078054905067ffffffffffffffff81111561083a57610839613f32565b5b6040519080825280602002602001820160405280156108685781602001602082028036833780820191505090505b50905060005b81518110156108d8578382828151811061088b5761088a613f61565b5b602002602001019073ffffffffffffffffffffffffffffffffffffffff16908173ffffffffffffffffffffffffffffffffffffffff168152505080806108d090613fbf565b91505061086e565b506000600160009054906101000a900473ffffffffffffffffffffffffffffffffffffffff1673ffffffffffffffffffffffffffffffffffffffff16634e1273f48360076040518363ffffffff1660e01b8152600401610939929190614107565b60006040518083038186803b15801561095157600080fd5b505afa158015610965573d6000803e3d6000fd5b505050506040513d6000823e3d601f19601f8201168201806040525081019061098e9190614273565b905060005b8151811015610a415760008282815181106109b1576109b0613f61565b5b602002602001015114156109c457610a2e565b60006109ed600783815481106109dd576109dc613f61565b5b9060005260206000200154612c7a565b90506000816040015167ffffffffffffffff1614158015610a1b575042816040015167ffffffffffffffff16115b15610a2c5780945050505050610a74565b505b8080610a3990613fbf565b915050610993565b506040517f452f604b00000000000000000000000000000000000000000000000000000000815260040160405180910390fd5b919050565b6060600060078054905067ffffffffffffffff811115610a9c57610a9b613f32565b5b604051908082528060200260200182016040528015610ad557816020015b610ac261359a565b815260200190600190039081610aba5790505b50905060005b600780549050811015610c1d576006600060078381548110610b0057610aff613f61565b5b906000526020600020015481526020019081526020016000206040518060800160405290816000820160009054906101000a900463ffffffff1663ffffffff1663ffffffff1681526020016000820160049054906101000a900463ffffffff1663ffffffff1663ffffffff1681526020016000820160089054906101000a900467ffffffffffffffff1667ffffffffffffffff1667ffffffffffffffff1681526020016000820160109054906101000a90046fffffffffffffffffffffffffffffffff166fffffffffffffffffffffffffffffffff166fffffffffffffffffffffffffffffffff1681525050828281518110610bff57610bfe613f61565b5b60200260200101819052508080610c1590613fbf565b915050610adb565b508091505090565b610c2d6133b0565b73ffffffffffffffffffffffffffffffffffffffff16610c4b612600565b73ffffffffffffffffffffffffffffffffffffffff1614610ca1576040517f08c379a0000000000000000000000000000000000000000000000000000000008152600401610c9890613f12565b60405180910390fd5b60006003600060048481548110610cbb57610cba613f61565b5b9060005260206000200160009054906101000a900473ffffffffffffffffffffffffffffffffffffffff1673ffffffffffffffffffffffffffffffffffffffff1673ffffffffffffffffffffffffffffffffffffffff16815260200190815260200160002060006101000a81548173ffffffffffffffffffffffffffffffffffffffff021916908373ffffffffffffffffffffffffffffffffffffffff16021790555060006001600480549050610d7291906142bc565b905080821015610e185760048181548110610d9057610d8f613f61565b5b9060005260206000200160009054906101000a900473ffffffffffffffffffffffffffffffffffffffff1660048381548110610dcf57610dce613f61565b5b9060005260206000200160006101000a81548173ffffffffffffffffffffffffffffffffffffffff021916908373ffffffffffffffffffffffffffffffffffffffff1602179055505b6004805480610e2a57610e296142f0565b5b6001900381819060005260206000200160006101000a81549073ffffffffffffffffffffffffffffffffffffffff021916905590555050565b600160009054906101000a900473ffffffffffffffffffffffffffffffffffffffff1681565b60078181548110610e9957600080fd5b906000526020600020016000915090505481565b600260009054906101000a900473ffffffffffffffffffffffffffffffffffffffff1681565b81600073ffffffffffffffffffffffffffffffffffffffff16600360008373ffffffffffffffffffffffffffffffffffffffff1673ffffffffffffffffffffffffffffffffffffffff16815260200190815260200160002060009054906101000a900473ffffffffffffffffffffffffffffffffffffffff1673ffffffffffffffffffffffffffffffffffffffff161415610f9a576040517f4857c89900000000000000000000000000000000000000000000000000000000815260040160405180910390fd5b6000610fa4613071565b9050600083610fb16125e9565b610fbb919061431f565b90508082606001516fffffffffffffffffffffffffffffffff16101561100d576040517fa7fd379200000000000000000000000000000000000000000000000000000000815260040160405180910390fd5b6000600360008773ffffffffffffffffffffffffffffffffffffffff1673ffffffffffffffffffffffffffffffffffffffff16815260200190815260200160002060009054906101000a900473ffffffffffffffffffffffffffffffffffffffff16905060008173ffffffffffffffffffffffffffffffffffffffff1663313ce5676040518163ffffffff1660e01b815260040160206040518083038186803b1580156110b957600080fd5b505afa1580156110cd573d6000803e3d6000fd5b505050506040513d601f19601f820116820180604052508101906110f191906143a1565b905060008273ffffffffffffffffffffffffffffffffffffffff1663feaf968c6040518163ffffffff1660e01b815260040160a06040518083038186803b15801561113b57600080fd5b505afa15801561114f573d6000803e3d6000fd5b505050506040513d601f19601f82011682018060405250810190611173919061443c565b50505091505060008112156111b3576040517ebfc92100000000000000000000000000000000000000000000000000000000815260040160405180910390fd5b600081905060008360146111c791906144b7565b60ff16600a6111d6919061461e565b826111e19190614669565b876000015163ffffffff168a6111f79190614669565b61120191906146f2565b905060008a905060008173ffffffffffffffffffffffffffffffffffffffff166370a08231306040518263ffffffff1660e01b81526004016112439190613ae6565b60206040518083038186803b15801561125b57600080fd5b505afa15801561126f573d6000803e3d6000fd5b505050506040513d601f19601f820116820180604052508101906112939190614723565b9050828110156112cf576040517f3633f81800000000000000000000000000000000000000000000000000000000815260040160405180910390fd5b600260009054906101000a900473ffffffffffffffffffffffffffffffffffffffff1673ffffffffffffffffffffffffffffffffffffffff166323b872dd6113156133b0565b308e6040518463ffffffff1660e01b815260040161133593929190614750565b602060405180830381600087803b15801561134f57600080fd5b505af1158015611363573d6000803e3d6000fd5b505050506040513d601f19601f8201168201806040525081019061138791906147b3565b508173ffffffffffffffffffffffffffffffffffffffff1663a9059cbb6113ac6133b0565b856040518363ffffffff1660e01b81526004016113ca9291906147e0565b602060405180830381600087803b1580156113e457600080fd5b505af11580156113f8573d6000803e3d6000fd5b505050506040513d601f19601f8201168201806040525081019061141c91906147b3565b50600860006114296133b0565b73ffffffffffffffffffffffffffffffffffffffff1673ffffffffffffffffffffffffffffffffffffffff1681526020019081526020016000206040518060a001604052808b6020015163ffffffff1681526020014267ffffffffffffffff1681526020018d6fffffffffffffffffffffffffffffffff1681526020018581526020018e73ffffffffffffffffffffffffffffffffffffffff16815250908060018154018082558091505060019003906000526020600020906003020160009091909190915060008201518160000160006101000a81548163ffffffff021916908363ffffffff16021790555060208201518160000160046101000a81548167ffffffffffffffff021916908367ffffffffffffffff160217905550604082015181600001600c6101000a8154816fffffffffffffffffffffffffffffffff02191690836fffffffffffffffffffffffffffffffff1602179055506060820151816001015560808201518160020160006101000a81548173ffffffffffffffffffffffffffffffffffffffff021916908373ffffffffffffffffffffffffffffffffffffffff1602179055505050828c73ffffffffffffffffffffffffffffffffffffffff168c7f707820251fb46777f43913e0f79a5bfe897ba7feb06089f3ed695614d5b5dd3e60405160405180910390a4505050505050505050505050565b600080600073ffffffffffffffffffffffffffffffffffffffff16600560009054906101000a900473ffffffffffffffffffffffffffffffffffffffff1673ffffffffffffffffffffffffffffffffffffffff1614156116b6576040517f4857c89900000000000000000000000000000000000000000000000000000000815260040160405180910390fd5b6116e1600560009054906101000a900473ffffffffffffffffffffffffffffffffffffffff166133b8565b915091509091565b600481815481106116f957600080fd5b906000526020600020016000915054906101000a900473ffffffffffffffffffffffffffffffffffffffff1681565b600073ffffffffffffffffffffffffffffffffffffffff16600560009054906101000a900473ffffffffffffffffffffffffffffffffffffffff1673ffffffffffffffffffffffffffffffffffffffff1614156117b1576040517f4857c89900000000000000000000000000000000000000000000000000000000815260040160405180910390fd5b60006117bb613071565b90506000826117c86125e9565b6117d2919061431f565b90508082606001516fffffffffffffffffffffffffffffffff161015611824576040517fa7fd379200000000000000000000000000000000000000000000000000000000815260040160405180910390fd5b6000600560009054906101000a900473ffffffffffffffffffffffffffffffffffffffff16905060008173ffffffffffffffffffffffffffffffffffffffff1663313ce5676040518163ffffffff1660e01b815260040160206040518083038186803b15801561189357600080fd5b505afa1580156118a7573d6000803e3d6000fd5b505050506040513d601f19601f820116820180604052508101906118cb91906143a1565b905060008273ffffffffffffffffffffffffffffffffffffffff1663feaf968c6040518163ffffffff1660e01b815260040160a06040518083038186803b15801561191557600080fd5b505afa158015611929573d6000803e3d6000fd5b505050506040513d601f19601f8201168201806040525081019061194d919061443c565b505050915050600081121561198d576040517ebfc92100000000000000000000000000000000000000000000000000000000815260040160405180910390fd5b600081905060008360146119a191906144b7565b60ff16600a6119b0919061461e565b826119bb9190614669565b876000015163ffffffff16896119d19190614669565b6119db91906146f2565b90506000309050818173ffffffffffffffffffffffffffffffffffffffff16311015611a33576040517f3633f81800000000000000000000000000000000000000000000000000000000815260040160405180910390fd5b600260009054906101000a900473ffffffffffffffffffffffffffffffffffffffff1673ffffffffffffffffffffffffffffffffffffffff166323b872dd611a796133b0565b308c6040518463ffffffff1660e01b8152600401611a9993929190614750565b602060405180830381600087803b158015611ab357600080fd5b505af1158015611ac7573d6000803e3d6000fd5b505050506040513d601f19601f82011682018060405250810190611aeb91906147b3565b50611af46133b0565b73ffffffffffffffffffffffffffffffffffffffff166108fc839081150290604051600060405180830381858888f19350505050158015611b39573d6000803e3d6000fd5b5060086000611b466133b0565b73ffffffffffffffffffffffffffffffffffffffff1673ffffffffffffffffffffffffffffffffffffffff1681526020019081526020016000206040518060a001604052808a6020015163ffffffff1681526020014267ffffffffffffffff1681526020018b6fffffffffffffffffffffffffffffffff168152602001848152602001600073ffffffffffffffffffffffffffffffffffffffff16815250908060018154018082558091505060019003906000526020600020906003020160009091909190915060008201518160000160006101000a81548163ffffffff021916908363ffffffff16021790555060208201518160000160046101000a81548167ffffffffffffffff021916908367ffffffffffffffff160217905550604082015181600001600c6101000a8154816fffffffffffffffffffffffffffffffff02191690836fffffffffffffffffffffffffffffffff1602179055506060820151816001015560808201518160020160006101000a81548173ffffffffffffffffffffffffffffffffffffffff021916908373ffffffffffffffffffffffffffffffffffffffff160217905550505081897f33b118750ab0273342b56cb6387e0ade9135c54ad0525ad041284f2ed6adccf960405160405180910390a3505050505050505050565b6060611d40611d3b6133b0565b6127df565b905090565b600060086000611d536133b0565b73ffffffffffffffffffffffffffffffffffffffff1673ffffffffffffffffffffffffffffffffffffffff168152602001908152602001600020905080805490508210611dd5576040517f08c379a0000000000000000000000000000000000000000000000000000000008152600401611dcc90614855565b60405180910390fd5b6000818381548110611dea57611de9613f61565b5b90600052602060002090600302016040518060a00160405290816000820160009054906101000a900463ffffffff1663ffffffff1663ffffffff1681526020016000820160049054906101000a900467ffffffffffffffff1667ffffffffffffffff1667ffffffffffffffff16815260200160008201600c9054906101000a90046fffffffffffffffffffffffffffffffff166fffffffffffffffffffffffffffffffff166fffffffffffffffffffffffffffffffff168152602001600182015481526020016002820160009054906101000a900473ffffffffffffffffffffffffffffffffffffffff1673ffffffffffffffffffffffffffffffffffffffff1673ffffffffffffffffffffffffffffffffffffffff168152505090506000816020015167ffffffffffffffff1642611f2391906142bc565b9050600063bbf81e00836000015163ffffffff168385604001516fffffffffffffffffffffffffffffffff16611f599190614669565b611f639190614669565b611f6d91906146f2565b9050600073ffffffffffffffffffffffffffffffffffffffff16836080015173ffffffffffffffffffffffffffffffffffffffff1614612051576000836080015190508073ffffffffffffffffffffffffffffffffffffffff166323b872dd611fd46133b0565b3087606001516040518463ffffffff1660e01b8152600401611ff893929190614750565b602060405180830381600087803b15801561201257600080fd5b505af1158015612026573d6000803e3d6000fd5b505050506040513d601f19601f8201168201806040525081019061204a91906147b3565b505061208f565b8260600151341461208e576040517f329099d800000000000000000000000000000000000000000000000000000000815260040160405180910390fd5b5b60008184604001516fffffffffffffffffffffffffffffffff16111561218d578184604001516fffffffffffffffffffffffffffffffff166120d191906142bc565b9050600260009054906101000a900473ffffffffffffffffffffffffffffffffffffffff1673ffffffffffffffffffffffffffffffffffffffff166323b872dd3061211a6133b0565b846040518463ffffffff1660e01b815260040161213993929190614750565b602060405180830381600087803b15801561215357600080fd5b505af1158015612167573d6000803e3d6000fd5b505050506040513d601f19601f8201168201806040525081019061218b91906147b3565b505b6000600186805490506121a091906142bc565b905080871015612336578581815481106121bd576121bc613f61565b5b90600052602060002090600302018688815481106121de576121dd613f61565b5b90600052602060002090600302016000820160009054906101000a900463ffffffff168160000160006101000a81548163ffffffff021916908363ffffffff1602179055506000820160049054906101000a900467ffffffffffffffff168160000160046101000a81548167ffffffffffffffff021916908367ffffffffffffffff16021790555060008201600c9054906101000a90046fffffffffffffffffffffffffffffffff1681600001600c6101000a8154816fffffffffffffffffffffffffffffffff02191690836fffffffffffffffffffffffffffffffff160217905550600182015481600101556002820160009054906101000a900473ffffffffffffffffffffffffffffffffffffffff168160020160006101000a81548173ffffffffffffffffffffffffffffffffffffffff021916908373ffffffffffffffffffffffffffffffffffffffff1602179055509050505b85805480612347576123466142f0565b5b6001900381819060005260206000209060030201600080820160006101000a81549063ffffffff02191690556000820160046101000a81549067ffffffffffffffff021916905560008201600c6101000a8154906fffffffffffffffffffffffffffffffff021916905560018201600090556002820160006101000a81549073ffffffffffffffffffffffffffffffffffffffff021916905550509055817fec5d3efe21b7ad3fd9e0536b321f6ac73144e22f136f959d00d5b05a4eb28aa68860405161241491906139e2565b60405180910390a250505050505050565b60008082600073ffffffffffffffffffffffffffffffffffffffff16600360008373ffffffffffffffffffffffffffffffffffffffff1673ffffffffffffffffffffffffffffffffffffffff16815260200190815260200160002060009054906101000a900473ffffffffffffffffffffffffffffffffffffffff1673ffffffffffffffffffffffffffffffffffffffff1614156124ef576040517f4857c89900000000000000000000000000000000000000000000000000000000815260040160405180910390fd5b612557600360008673ffffffffffffffffffffffffffffffffffffffff1673ffffffffffffffffffffffffffffffffffffffff16815260200190815260200160002060009054906101000a900473ffffffffffffffffffffffffffffffffffffffff166133b8565b9250925050915091565b6125696133b0565b73ffffffffffffffffffffffffffffffffffffffff16612587612600565b73ffffffffffffffffffffffffffffffffffffffff16146125dd576040517f08c379a00000000000000000000000000000000000000000000000000000000081526004016125d490613f12565b60405180910390fd5b6125e760006134d6565b565b60006125fb6125f66133b0565b612d6f565b905090565b60008060009054906101000a900473ffffffffffffffffffffffffffffffffffffffff16905090565b606060048054806020026020016040519081016040528092919081815260200182805480156126ad57602002820191906000526020600020905b8160009054906101000a900473ffffffffffffffffffffffffffffffffffffffff1673ffffffffffffffffffffffffffffffffffffffff1681526020019060010190808311612663575b5050505050905090565b6126bf6133b0565b73ffffffffffffffffffffffffffffffffffffffff166126dd612600565b73ffffffffffffffffffffffffffffffffffffffff1614612733576040517f08c379a000000000000000000000000000000000000000000000000000000000815260040161272a90613f12565b60405180910390fd5b60066000828152602001908152602001600020600080820160006101000a81549063ffffffff02191690556000820160046101000a81549063ffffffff02191690556000820160086101000a81549067ffffffffffffffff02191690556000820160106101000a8154906fffffffffffffffffffffffffffffffff0219169055505050565b806006600084815260200190815260200160002081816127d89190614b8c565b9050505050565b6060600860008373ffffffffffffffffffffffffffffffffffffffff1673ffffffffffffffffffffffffffffffffffffffff168152602001908152602001600020805480602002602001604051908101604052809291908181526020016000905b8282101561297457838290600052602060002090600302016040518060a00160405290816000820160009054906101000a900463ffffffff1663ffffffff1663ffffffff1681526020016000820160049054906101000a900467ffffffffffffffff1667ffffffffffffffff1667ffffffffffffffff16815260200160008201600c9054906101000a90046fffffffffffffffffffffffffffffffff166fffffffffffffffffffffffffffffffff166fffffffffffffffffffffffffffffffff168152602001600182015481526020016002820160009054906101000a900473ffffffffffffffffffffffffffffffffffffffff1673ffffffffffffffffffffffffffffffffffffffff1673ffffffffffffffffffffffffffffffffffffffff168152505081526020019060010190612840565b505050509050919050565b6129876133b0565b73ffffffffffffffffffffffffffffffffffffffff166129a5612600565b73ffffffffffffffffffffffffffffffffffffffff16146129fb576040517f08c379a00000000000000000000000000000000000000000000000000000000081526004016129f290613f12565b60405180910390fd5b6000600360008373ffffffffffffffffffffffffffffffffffffffff1673ffffffffffffffffffffffffffffffffffffffff16815260200190815260200160002060006101000a81548173ffffffffffffffffffffffffffffffffffffffff021916908373ffffffffffffffffffffffffffffffffffffffff16021790555060005b600480549050811015612c12578173ffffffffffffffffffffffffffffffffffffffff1660048281548110612ab557612ab4613f61565b5b9060005260206000200160009054906101000a900473ffffffffffffffffffffffffffffffffffffffff1673ffffffffffffffffffffffffffffffffffffffff161415612bff5760006001600480549050612b1091906142bc565b905080821015612bb65760048181548110612b2e57612b2d613f61565b5b9060005260206000200160009054906101000a900473ffffffffffffffffffffffffffffffffffffffff1660048381548110612b6d57612b6c613f61565b5b9060005260206000200160006101000a81548173ffffffffffffffffffffffffffffffffffffffff021916908373ffffffffffffffffffffffffffffffffffffffff1602179055505b6004805480612bc857612bc76142f0565b5b6001900381819060005260206000200160006101000a81549073ffffffffffffffffffffffffffffffffffffffff02191690559055505b8080612c0a90613fbf565b915050612a7d565b5050565b60006006600083815260200190815260200160002060000160109054906101000a90046fffffffffffffffffffffffffffffffff166fffffffffffffffffffffffffffffffff169050919050565b818160079190612c759291906135ea565b505050565b612c8261359a565b600660008381526020019081526020016000206040518060800160405290816000820160009054906101000a900463ffffffff1663ffffffff1663ffffffff1681526020016000820160049054906101000a900463ffffffff1663ffffffff1663ffffffff1681526020016000820160089054906101000a900467ffffffffffffffff1667ffffffffffffffff1667ffffffffffffffff1681526020016000820160109054906101000a90046fffffffffffffffffffffffffffffffff166fffffffffffffffffffffffffffffffff166fffffffffffffffffffffffffffffffff16815250509050919050565b600080600090506000600860008573ffffffffffffffffffffffffffffffffffffffff1673ffffffffffffffffffffffffffffffffffffffff168152602001908152602001600020805480602002602001604051908101604052809291908181526020016000905b82821015612f0b57838290600052602060002090600302016040518060a00160405290816000820160009054906101000a900463ffffffff1663ffffffff1663ffffffff1681526020016000820160049054906101000a900467ffffffffffffffff1667ffffffffffffffff1667ffffffffffffffff16815260200160008201600c9054906101000a90046fffffffffffffffffffffffffffffffff166fffffffffffffffffffffffffffffffff166fffffffffffffffffffffffffffffffff168152602001600182015481526020016002820160009054906101000a900473ffffffffffffffffffffffffffffffffffffffff1673ffffffffffffffffffffffffffffffffffffffff1673ffffffffffffffffffffffffffffffffffffffff168152505081526020019060010190612dd7565b50505050905060005b8151811015612f6e57818181518110612f3057612f2f613f61565b5b6020026020010151604001516fffffffffffffffffffffffffffffffff1683612f59919061431f565b92508080612f6690613fbf565b915050612f14565b508192505050919050565b612f816133b0565b73ffffffffffffffffffffffffffffffffffffffff16612f9f612600565b73ffffffffffffffffffffffffffffffffffffffff1614612ff5576040517f08c379a0000000000000000000000000000000000000000000000000000000008152600401612fec90613f12565b60405180910390fd5b600073ffffffffffffffffffffffffffffffffffffffff168173ffffffffffffffffffffffffffffffffffffffff161415613065576040517f08c379a000000000000000000000000000000000000000000000000000000000815260040161305c90614c0c565b60405180910390fd5b61306e816134d6565b50565b61307961359a565b6130896130846133b0565b610811565b905090565b60008073ffffffffffffffffffffffffffffffffffffffff16600360008473ffffffffffffffffffffffffffffffffffffffff1673ffffffffffffffffffffffffffffffffffffffff16815260200190815260200160002060009054906101000a900473ffffffffffffffffffffffffffffffffffffffff1673ffffffffffffffffffffffffffffffffffffffff1614159050919050565b60008073ffffffffffffffffffffffffffffffffffffffff168373ffffffffffffffffffffffffffffffffffffffff16141561318e576040517f65bea36000000000000000000000000000000000000000000000000000000000815260040160405180910390fd5b8073ffffffffffffffffffffffffffffffffffffffff168273ffffffffffffffffffffffffffffffffffffffff1614156131f4576040517f14f5282000000000000000000000000000000000000000000000000000000000815260040160405180910390fd5b6000600360008573ffffffffffffffffffffffffffffffffffffffff1673ffffffffffffffffffffffffffffffffffffffff16815260200190815260200160002060009054906101000a900473ffffffffffffffffffffffffffffffffffffffff1690508073ffffffffffffffffffffffffffffffffffffffff168373ffffffffffffffffffffffffffffffffffffffff1614156132935750506133ac565b82600360008673ffffffffffffffffffffffffffffffffffffffff1673ffffffffffffffffffffffffffffffffffffffff16815260200190815260200160002060006101000a81548173ffffffffffffffffffffffffffffffffffffffff021916908373ffffffffffffffffffffffffffffffffffffffff1602179055508173ffffffffffffffffffffffffffffffffffffffff168173ffffffffffffffffffffffffffffffffffffffff1614156133a9576004849080600181540180825580915050600190039060005260206000200160009091909190916101000a81548173ffffffffffffffffffffffffffffffffffffffff021916908373ffffffffffffffffffffffffffffffffffffffff1602179055505b50505b5050565b600033905090565b600080600083905060008173ffffffffffffffffffffffffffffffffffffffff1663313ce5676040518163ffffffff1660e01b815260040160206040518083038186803b15801561340857600080fd5b505afa15801561341c573d6000803e3d6000fd5b505050506040513d601f19601f8201168201806040525081019061344091906143a1565b905060008273ffffffffffffffffffffffffffffffffffffffff1663feaf968c6040518163ffffffff1660e01b815260040160a06040518083038186803b15801561348a57600080fd5b505afa15801561349e573d6000803e3d6000fd5b505050506040513d601f19601f820116820180604052508101906134c2919061443c565b505050915050808294509450505050915091565b60008060009054906101000a900473ffffffffffffffffffffffffffffffffffffffff169050816000806101000a81548173ffffffffffffffffffffffffffffffffffffffff021916908373ffffffffffffffffffffffffffffffffffffffff1602179055508173ffffffffffffffffffffffffffffffffffffffff168173ffffffffffffffffffffffffffffffffffffffff167f8be0079c531659141344cd1fd0a4f28419497f9722a3daafe3b4186f6b6457e060405160405180910390a35050565b6040518060800160405280600063ffffffff168152602001600063ffffffff168152602001600067ffffffffffffffff16815260200160006fffffffffffffffffffffffffffffffff1681525090565b828054828255906000526020600020908101928215613626579160200282015b8281111561362557823582559160200191906001019061360a565b5b5090506136339190613637565b5090565b5b80821115613650576000816000905550600101613638565b5090565b6000604051905090565b600080fd5b600080fd5b600073ffffffffffffffffffffffffffffffffffffffff82169050919050565b600061369382613668565b9050919050565b6136a381613688565b81146136ae57600080fd5b50565b6000813590506136c08161369a565b92915050565b6000602082840312156136dc576136db61365e565b5b60006136ea848285016136b1565b91505092915050565b600063ffffffff82169050919050565b61370c816136f3565b82525050565b600067ffffffffffffffff82169050919050565b61372f81613712565b82525050565b60006fffffffffffffffffffffffffffffffff82169050919050565b61375a81613735565b82525050565b6080820160008201516137766000850182613703565b5060208201516137896020850182613703565b50604082015161379c6040850182613726565b5060608201516137af6060850182613751565b50505050565b60006080820190506137ca6000830184613760565b92915050565b600081519050919050565b600082825260208201905092915050565b6000819050602082019050919050565b6080820160008201516138126000850182613703565b5060208201516138256020850182613703565b5060408201516138386040850182613726565b50606082015161384b6060850182613751565b50505050565b600061385d83836137fc565b60808301905092915050565b6000602082019050919050565b6000613881826137d0565b61388b81856137db565b9350613896836137ec565b8060005b838110156138c75781516138ae8882613851565b97506138b983613869565b92505060018101905061389a565b5085935050505092915050565b600060208201905081810360008301526138ee8184613876565b905092915050565b6000819050919050565b613909816138f6565b811461391457600080fd5b50565b60008135905061392681613900565b92915050565b6000602082840312156139425761394161365e565b5b600061395084828501613917565b91505092915050565b6000819050919050565b600061397e61397961397484613668565b613959565b613668565b9050919050565b600061399082613963565b9050919050565b60006139a282613985565b9050919050565b6139b281613997565b82525050565b60006020820190506139cd60008301846139a9565b92915050565b6139dc816138f6565b82525050565b60006020820190506139f760008301846139d3565b92915050565b6000613a0882613985565b9050919050565b613a18816139fd565b82525050565b6000602082019050613a336000830184613a0f565b92915050565b60008060408385031215613a5057613a4f61365e565b5b6000613a5e858286016136b1565b9250506020613a6f85828601613917565b9150509250929050565b6000819050919050565b613a8c81613a79565b82525050565b600060ff82169050919050565b613aa881613a92565b82525050565b6000604082019050613ac36000830185613a83565b613ad06020830184613a9f565b9392505050565b613ae081613688565b82525050565b6000602082019050613afb6000830184613ad7565b92915050565b600081519050919050565b600082825260208201905092915050565b6000819050602082019050919050565b613b36816138f6565b82525050565b613b4581613688565b82525050565b60a082016000820151613b616000850182613703565b506020820151613b746020850182613726565b506040820151613b876040850182613751565b506060820151613b9a6060850182613b2d565b506080820151613bad6080850182613b3c565b50505050565b6000613bbf8383613b4b565b60a08301905092915050565b6000602082019050919050565b6000613be382613b01565b613bed8185613b0c565b9350613bf883613b1d565b8060005b83811015613c29578151613c108882613bb3565b9750613c1b83613bcb565b925050600181019050613bfc565b5085935050505092915050565b60006020820190508181036000830152613c508184613bd8565b905092915050565b600081519050919050565b600082825260208201905092915050565b6000819050602082019050919050565b6000613c908383613b3c565b60208301905092915050565b6000602082019050919050565b6000613cb482613c58565b613cbe8185613c63565b9350613cc983613c74565b8060005b83811015613cfa578151613ce18882613c84565b9750613cec83613c9c565b925050600181019050613ccd565b5085935050505092915050565b60006020820190508181036000830152613d218184613ca9565b905092915050565b600080fd5b600060808284031215613d4457613d43613d29565b5b81905092915050565b60008060a08385031215613d6457613d6361365e565b5b6000613d7285828601613917565b9250506020613d8385828601613d2e565b9150509250929050565b600080fd5b600080fd5b600080fd5b60008083601f840112613db257613db1613d8d565b5b8235905067ffffffffffffffff811115613dcf57613dce613d92565b5b602083019150836020820283011115613deb57613dea613d97565b5b9250929050565b60008060208385031215613e0957613e0861365e565b5b600083013567ffffffffffffffff811115613e2757613e26613663565b5b613e3385828601613d9c565b92509250509250929050565b60008115159050919050565b613e5481613e3f565b82525050565b6000602082019050613e6f6000830184613e4b565b92915050565b60008060408385031215613e8c57613e8b61365e565b5b6000613e9a858286016136b1565b9250506020613eab858286016136b1565b9150509250929050565b600082825260208201905092915050565b7f4f776e61626c653a2063616c6c6572206973206e6f7420746865206f776e6572600082015250565b6000613efc602083613eb5565b9150613f0782613ec6565b602082019050919050565b60006020820190508181036000830152613f2b81613eef565b9050919050565b7f4e487b7100000000000000000000000000000000000000000000000000000000600052604160045260246000fd5b7f4e487b7100000000000000000000000000000000000000000000000000000000600052603260045260246000fd5b7f4e487b7100000000000000000000000000000000000000000000000000000000600052601160045260246000fd5b6000613fca826138f6565b91507fffffffffffffffffffffffffffffffffffffffffffffffffffffffffffffffff821415613ffd57613ffc613f90565b5b600182019050919050565b600081549050919050565b600082825260208201905092915050565b60008190508160005260206000209050919050565b60006140458383613b2d565b60208301905092915050565b60008160001c9050919050565b6000819050919050565b600061407b61407683614051565b61405e565b9050919050565b600061408e8254614068565b9050919050565b6000600182019050919050565b60006140ad82614008565b6140b78185614013565b93506140c283614024565b8060005b838110156140fa576140d782614082565b6140e18882614039565b97506140ec83614095565b9250506001810190506140c6565b5085935050505092915050565b600060408201905081810360008301526141218185613ca9565b9050818103602083015261413581846140a2565b90509392505050565b6000601f19601f8301169050919050565b6141588261413e565b810181811067ffffffffffffffff8211171561417757614176613f32565b5b80604052505050565b600061418a613654565b9050614196828261414f565b919050565b600067ffffffffffffffff8211156141b6576141b5613f32565b5b602082029050602081019050919050565b6000815190506141d681613900565b92915050565b60006141ef6141ea8461419b565b614180565b9050808382526020820190506020840283018581111561421257614211613d97565b5b835b8181101561423b578061422788826141c7565b845260208401935050602081019050614214565b5050509392505050565b600082601f83011261425a57614259613d8d565b5b815161426a8482602086016141dc565b91505092915050565b6000602082840312156142895761428861365e565b5b600082015167ffffffffffffffff8111156142a7576142a6613663565b5b6142b384828501614245565b91505092915050565b60006142c7826138f6565b91506142d2836138f6565b9250828210156142e5576142e4613f90565b5b828203905092915050565b7f4e487b7100000000000000000000000000000000000000000000000000000000600052603160045260246000fd5b600061432a826138f6565b9150614335836138f6565b9250827fffffffffffffffffffffffffffffffffffffffffffffffffffffffffffffffff0382111561436a57614369613f90565b5b828201905092915050565b61437e81613a92565b811461438957600080fd5b50565b60008151905061439b81614375565b92915050565b6000602082840312156143b7576143b661365e565b5b60006143c58482850161438c565b91505092915050565b600069ffffffffffffffffffff82169050919050565b6143ed816143ce565b81146143f857600080fd5b50565b60008151905061440a816143e4565b92915050565b61441981613a79565b811461442457600080fd5b50565b60008151905061443681614410565b92915050565b600080600080600060a086880312156144585761445761365e565b5b6000614466888289016143fb565b955050602061447788828901614427565b9450506040614488888289016141c7565b9350506060614499888289016141c7565b92505060806144aa888289016143fb565b9150509295509295909350565b60006144c282613a92565b91506144cd83613a92565b9250828210156144e0576144df613f90565b5b828203905092915050565b60008160011c9050919050565b6000808291508390505b60018511156145425780860481111561451e5761451d613f90565b5b600185161561452d5780820291505b808102905061453b856144eb565b9450614502565b94509492505050565b60008261455b5760019050614617565b816145695760009050614617565b816001811461457f5760028114614589576145b8565b6001915050614617565b60ff84111561459b5761459a613f90565b5b8360020a9150848211156145b2576145b1613f90565b5b50614617565b5060208310610133831016604e8410600b84101617156145ed5782820a9050838111156145e8576145e7613f90565b5b614617565b6145fa84848460016144f8565b9250905081840481111561461157614610613f90565b5b81810290505b9392505050565b6000614629826138f6565b9150614634836138f6565b92506146617fffffffffffffffffffffffffffffffffffffffffffffffffffffffffffffffff848461454b565b905092915050565b6000614674826138f6565b915061467f836138f6565b9250817fffffffffffffffffffffffffffffffffffffffffffffffffffffffffffffffff04831182151516156146b8576146b7613f90565b5b828202905092915050565b7f4e487b7100000000000000000000000000000000000000000000000000000000600052601260045260246000fd5b60006146fd826138f6565b9150614708836138f6565b925082614718576147176146c3565b5b828204905092915050565b6000602082840312156147395761473861365e565b5b6000614747848285016141c7565b91505092915050565b60006060820190506147656000830186613ad7565b6147726020830185613ad7565b61477f60408301846139d3565b949350505050565b61479081613e3f565b811461479b57600080fd5b50565b6000815190506147ad81614787565b92915050565b6000602082840312156147c9576147c861365e565b5b60006147d78482850161479e565b91505092915050565b60006040820190506147f56000830185613ad7565b61480260208301846139d3565b9392505050565b7f706f736974696f6e206f7574206f662072616e67650000000000000000000000600082015250565b600061483f601583613eb5565b915061484a82614809565b602082019050919050565b6000602082019050818103600083015261486e81614832565b9050919050565b61487e816136f3565b811461488957600080fd5b50565b6000813561489981614875565b80915050919050565b60008160001b9050919050565b600063ffffffff6148bf846148a2565b9350801983169250808416831791505092915050565b60006148f06148eb6148e6846136f3565b613959565b6136f3565b9050919050565b6000819050919050565b61490a826148d5565b61491d614916826148f7565b83546148af565b8255505050565b60008160201b9050919050565b600067ffffffff0000000061494584614924565b9350801983169250808416831791505092915050565b614964826148d5565b614977614970826148f7565b8354614931565b8255505050565b61498781613712565b811461499257600080fd5b50565b600081356149a28161497e565b80915050919050565b60008160401b9050919050565b60006fffffffffffffffff00000000000000006149d4846149ab565b9350801983169250808416831791505092915050565b6000614a05614a006149fb84613712565b613959565b613712565b9050919050565b6000819050919050565b614a1f826149ea565b614a32614a2b82614a0c565b83546149b8565b8255505050565b614a4281613735565b8114614a4d57600080fd5b50565b60008135614a5d81614a39565b80915050919050565b60008160801b9050919050565b60007fffffffffffffffffffffffffffffffff00000000000000000000000000000000614a9f84614a66565b9350801983169250808416831791505092915050565b6000614ad0614acb614ac684613735565b613959565b613735565b9050919050565b6000819050919050565b614aea82614ab5565b614afd614af682614ad7565b8354614a73565b8255505050565b600081016000830180614b168161488c565b9050614b228184614901565b505050600081016020830180614b378161488c565b9050614b43818461495b565b505050600081016040830180614b5881614995565b9050614b648184614a16565b505050600081016060830180614b7981614a50565b9050614b858184614ae1565b5050505050565b614b968282614b04565b5050565b7f4f776e61626c653a206e6577206f776e657220697320746865207a65726f206160008201527f6464726573730000000000000000000000000000000000000000000000000000602082015250565b6000614bf6602683613eb5565b9150614c0182614b9a565b604082019050919050565b60006020820190508181036000830152614c2581614be9565b905091905056fea2646970667358221220a17cc53c92ab610a48315772de229234ca291664ee559f19fa6f6e8ebdf7c96564736f6c63430008090033",
  "linkReferences": {},
  "deployedLinkReferences": {}
}