{
  "_format": "hh-sol-artifact-1",
  "contractName": "SssssmokinFinance",
  "sourceName": "contracts/SssssmokinFinance.sol",
  "abi": [
    {
      "inputs": [],
      "stateMutability": "nonpayable",
      "type": "constructor"
    },
    {
      "inputs": [],
      "name": "InvalidChainlinkAdrress",
      "type": "error"
    },
    {
      "inputs": [],
      "name": "InvalidPrice",
      "type": "error"
    },
    {
      "inputs": [],
      "name": "InvalidTokenAdrress",
      "type": "error"
    },
    {
      "inputs": [],
      "name": "NoneBenifits",
      "type": "error"
    },
    {
      "inputs": [],
      "name": "NotEnoughCredit",
      "type": "error"
    },
    {
      "inputs": [],
      "name": "NotEnoughStock",
      "type": "error"
    },
    {
      "inputs": [],
      "name": "NotProvideToken",
      "type": "error"
    },
    {
      "inputs": [],
      "name": "RepaymentNotCorrect",
      "type": "error"
    },
    {
      "anonymous": false,
      "inputs": [
        {
          "indexed": true,
          "internalType": "uint256",
          "name": "amount",
          "type": "uint256"
        },
        {
          "indexed": true,
          "internalType": "uint256",
          "name": "exchange",
          "type": "uint256"
        }
      ],
      "name": "DepositForEthSuccess",
      "type": "event"
    },
    {
      "anonymous": false,
      "inputs": [
        {
          "indexed": true,
          "internalType": "uint256",
          "name": "amount",
          "type": "uint256"
        },
        {
          "indexed": true,
          "internalType": "address",
          "name": "token",
          "type": "address"
        },
        {
          "indexed": true,
          "internalType": "uint256",
          "name": "exchange",
          "type": "uint256"
        }
      ],
      "name": "DepositForTokenSuccess",
      "type": "event"
    },
    {
      "anonymous": false,
      "inputs": [
        {
          "indexed": true,
          "internalType": "address",
          "name": "previousOwner",
          "type": "address"
        },
        {
          "indexed": true,
          "internalType": "address",
          "name": "newOwner",
          "type": "address"
        }
      ],
      "name": "OwnershipTransferred",
      "type": "event"
    },
    {
      "anonymous": false,
      "inputs": [
        {
          "indexed": false,
          "internalType": "uint256",
          "name": "pos",
          "type": "uint256"
        },
        {
          "indexed": true,
          "internalType": "uint256",
          "name": "remain",
          "type": "uint256"
        }
      ],
      "name": "RepaymentSucess",
      "type": "event"
    },
    {
      "stateMutability": "payable",
      "type": "fallback"
    },
    {
      "inputs": [
        {
          "internalType": "address",
          "name": "token",
          "type": "address"
        },
        {
          "internalType": "uint256",
          "name": "amount",
          "type": "uint256"
        }
      ],
      "name": "deposit",
      "outputs": [],
      "stateMutability": "nonpayable",
      "type": "function"
    },
    {
      "inputs": [
        {
          "internalType": "uint256",
          "name": "amount",
          "type": "uint256"
        }
      ],
      "name": "deposit",
      "outputs": [],
      "stateMutability": "nonpayable",
      "type": "function"
    },
    {
      "inputs": [],
      "name": "getAllBenifits",
      "outputs": [
        {
          "components": [
            {
              "internalType": "uint32",
              "name": "ratio",
              "type": "uint32"
            },
            {
              "internalType": "uint32",
              "name": "apr",
              "type": "uint32"
            },
            {
              "internalType": "uint64",
              "name": "validityTime",
              "type": "uint64"
            },
            {
              "internalType": "uint128",
              "name": "credit",
              "type": "uint128"
            }
          ],
          "internalType": "struct SssssmokinFinance.Benefits[]",
          "name": "",
          "type": "tuple[]"
        }
      ],
      "stateMutability": "view",
      "type": "function"
    },
    {
      "inputs": [
        {
          "internalType": "uint256",
          "name": "tokenId",
          "type": "uint256"
        }
      ],
      "name": "getBenifits",
      "outputs": [
        {
          "components": [
            {
              "internalType": "uint32",
              "name": "ratio",
              "type": "uint32"
            },
            {
              "internalType": "uint32",
              "name": "apr",
              "type": "uint32"
            },
            {
              "internalType": "uint64",
              "name": "validityTime",
              "type": "uint64"
            },
            {
              "internalType": "uint128",
              "name": "credit",
              "type": "uint128"
            }
          ],
          "internalType": "struct SssssmokinFinance.Benefits",
          "name": "",
          "type": "tuple"
        }
      ],
      "stateMutability": "view",
      "type": "function"
    },
    {
      "inputs": [
        {
          "internalType": "uint256",
          "name": "tokenId",
          "type": "uint256"
        }
      ],
      "name": "getCredit",
      "outputs": [
        {
          "internalType": "uint256",
          "name": "",
          "type": "uint256"
        }
      ],
      "stateMutability": "view",
      "type": "function"
    },
    {
      "inputs": [],
      "name": "getETHFeed",
      "outputs": [
        {
          "internalType": "int256",
          "name": "",
          "type": "int256"
        },
        {
          "internalType": "uint8",
          "name": "",
          "type": "uint8"
        }
      ],
      "stateMutability": "view",
      "type": "function"
    },
    {
      "inputs": [],
      "name": "getMargin",
      "outputs": [
        {
          "internalType": "uint256",
          "name": "",
          "type": "uint256"
        }
      ],
      "stateMutability": "view",
      "type": "function"
    },
    {
      "inputs": [
        {
          "internalType": "address",
          "name": "user",
          "type": "address"
        }
      ],
      "name": "getMargin",
      "outputs": [
        {
          "internalType": "uint256",
          "name": "",
          "type": "uint256"
        }
      ],
      "stateMutability": "view",
      "type": "function"
    },
    {
      "inputs": [
        {
          "internalType": "address",
          "name": "token",
          "type": "address"
        }
      ],
      "name": "getTokenFeed",
      "outputs": [
        {
          "internalType": "int256",
          "name": "",
          "type": "int256"
        },
        {
          "internalType": "uint8",
          "name": "",
          "type": "uint8"
        }
      ],
      "stateMutability": "view",
      "type": "function"
    },
    {
      "inputs": [
        {
          "internalType": "address",
          "name": "user",
          "type": "address"
        }
      ],
      "name": "getUserBenifits",
      "outputs": [
        {
          "components": [
            {
              "internalType": "uint32",
              "name": "ratio",
              "type": "uint32"
            },
            {
              "internalType": "uint32",
              "name": "apr",
              "type": "uint32"
            },
            {
              "internalType": "uint64",
              "name": "validityTime",
              "type": "uint64"
            },
            {
              "internalType": "uint128",
              "name": "credit",
              "type": "uint128"
            }
          ],
          "internalType": "struct SssssmokinFinance.Benefits",
          "name": "",
          "type": "tuple"
        }
      ],
      "stateMutability": "view",
      "type": "function"
    },
    {
      "inputs": [],
      "name": "getUserBenifits",
      "outputs": [
        {
          "components": [
            {
              "internalType": "uint32",
              "name": "ratio",
              "type": "uint32"
            },
            {
              "internalType": "uint32",
              "name": "apr",
              "type": "uint32"
            },
            {
              "internalType": "uint64",
              "name": "validityTime",
              "type": "uint64"
            },
            {
              "internalType": "uint128",
              "name": "credit",
              "type": "uint128"
            }
          ],
          "internalType": "struct SssssmokinFinance.Benefits",
          "name": "",
          "type": "tuple"
        }
      ],
      "stateMutability": "view",
      "type": "function"
    },
    {
      "inputs": [],
      "name": "getUserLoaning",
      "outputs": [
        {
          "components": [
            {
              "internalType": "uint32",
              "name": "apr",
              "type": "uint32"
            },
            {
              "internalType": "uint64",
              "name": "time",
              "type": "uint64"
            },
            {
              "internalType": "uint128",
              "name": "margin",
              "type": "uint128"
            },
            {
              "internalType": "uint256",
              "name": "exchange",
              "type": "uint256"
            },
            {
              "internalType": "address",
              "name": "token",
              "type": "address"
            }
          ],
          "internalType": "struct SssssmokinFinance.Loan[]",
          "name": "",
          "type": "tuple[]"
        }
      ],
      "stateMutability": "view",
      "type": "function"
    },
    {
      "inputs": [
        {
          "internalType": "address",
          "name": "user",
          "type": "address"
        }
      ],
      "name": "getUserLoaning",
      "outputs": [
        {
          "components": [
            {
              "internalType": "uint32",
              "name": "apr",
              "type": "uint32"
            },
            {
              "internalType": "uint64",
              "name": "time",
              "type": "uint64"
            },
            {
              "internalType": "uint128",
              "name": "margin",
              "type": "uint128"
            },
            {
              "internalType": "uint256",
              "name": "exchange",
              "type": "uint256"
            },
            {
              "internalType": "address",
              "name": "token",
              "type": "address"
            }
          ],
          "internalType": "struct SssssmokinFinance.Loan[]",
          "name": "",
          "type": "tuple[]"
        }
      ],
      "stateMutability": "view",
      "type": "function"
    },
    {
      "inputs": [
        {
          "internalType": "address",
          "name": "token",
          "type": "address"
        }
      ],
      "name": "isProvideToken",
      "outputs": [
        {
          "internalType": "bool",
          "name": "",
          "type": "bool"
        }
      ],
      "stateMutability": "view",
      "type": "function"
    },
    {
      "inputs": [],
      "name": "membershipTokenContract",
      "outputs": [
        {
          "internalType": "contract IERC1155",
          "name": "",
          "type": "address"
        }
      ],
      "stateMutability": "view",
      "type": "function"
    },
    {
      "inputs": [],
      "name": "owner",
      "outputs": [
        {
          "internalType": "address",
          "name": "",
          "type": "address"
        }
      ],
      "stateMutability": "view",
      "type": "function"
    },
    {
      "inputs": [
        {
          "internalType": "uint256",
          "name": "",
          "type": "uint256"
        }
      ],
      "name": "provideTokensArray",
      "outputs": [
        {
          "internalType": "address",
          "name": "",
          "type": "address"
        }
      ],
      "stateMutability": "view",
      "type": "function"
    },
    {
      "inputs": [
        {
          "internalType": "uint256",
          "name": "tokenId",
          "type": "uint256"
        }
      ],
      "name": "removeBenifist",
      "outputs": [],
      "stateMutability": "nonpayable",
      "type": "function"
    },
    {
      "inputs": [
        {
          "internalType": "uint256",
          "name": "pos",
          "type": "uint256"
        }
      ],
      "name": "removeProvideTokens",
      "outputs": [],
      "stateMutability": "nonpayable",
      "type": "function"
    },
    {
      "inputs": [
        {
          "internalType": "address",
          "name": "token",
          "type": "address"
        }
      ],
      "name": "removeProvideTokens",
      "outputs": [],
      "stateMutability": "nonpayable",
      "type": "function"
    },
    {
      "inputs": [],
      "name": "renounceOwnership",
      "outputs": [],
      "stateMutability": "nonpayable",
      "type": "function"
    },
    {
      "inputs": [
        {
          "internalType": "uint256",
          "name": "pos",
          "type": "uint256"
        }
      ],
      "name": "repayment",
      "outputs": [],
      "stateMutability": "payable",
      "type": "function"
    },
    {
      "inputs": [
        {
          "internalType": "uint256",
          "name": "tokenId",
          "type": "uint256"
        },
        {
          "components": [
            {
              "internalType": "uint32",
              "name": "ratio",
              "type": "uint32"
            },
            {
              "internalType": "uint32",
              "name": "apr",
              "type": "uint32"
            },
            {
              "internalType": "uint64",
              "name": "validityTime",
              "type": "uint64"
            },
            {
              "internalType": "uint128",
              "name": "credit",
              "type": "uint128"
            }
          ],
          "internalType": "struct SssssmokinFinance.Benefits",
          "name": "benifist",
          "type": "tuple"
        }
      ],
      "name": "setBenifist",
      "outputs": [],
      "stateMutability": "nonpayable",
      "type": "function"
    },
    {
      "inputs": [
        {
          "internalType": "address",
          "name": "chainlink",
          "type": "address"
        }
      ],
      "name": "setETHChainLink",
      "outputs": [],
      "stateMutability": "nonpayable",
      "type": "function"
    },
    {
      "inputs": [
        {
          "internalType": "address",
          "name": "token",
          "type": "address"
        },
        {
          "internalType": "address",
          "name": "chainlink",
          "type": "address"
        }
      ],
      "name": "setProvideTokens",
      "outputs": [],
      "stateMutability": "nonpayable",
      "type": "function"
    },
    {
      "inputs": [
        {
          "internalType": "uint256[]",
          "name": "order",
          "type": "uint256[]"
        }
      ],
      "name": "setTokenIdOrder",
      "outputs": [],
      "stateMutability": "nonpayable",
      "type": "function"
    },
    {
      "inputs": [
        {
          "internalType": "uint256",
          "name": "",
          "type": "uint256"
        }
      ],
      "name": "tokenIdOrder",
      "outputs": [
        {
          "internalType": "uint256",
          "name": "",
          "type": "uint256"
        }
      ],
      "stateMutability": "view",
      "type": "function"
    },
    {
      "inputs": [
        {
          "internalType": "address",
          "name": "newOwner",
          "type": "address"
        }
      ],
      "name": "transferOwnership",
      "outputs": [],
      "stateMutability": "nonpayable",
      "type": "function"
    },
    {
      "inputs": [],
      "name": "weeeeToken",
      "outputs": [
        {
          "internalType": "contract IERC20",
          "name": "",
          "type": "address"
        }
      ],
      "stateMutability": "view",
      "type": "function"
    },
    {
      "stateMutability": "payable",
      "type": "receive"
    }
  ],
  "bytecode": "0x60806040523480156200001157600080fd5b5062000032620000266200005d60201b60201c565b6200006560201b60201c565b62000057738a753747a1fa494ec906ce90e9f37563a8af630e6200012960201b60201c565b620002a8565b600033905090565b60008060009054906101000a900473ffffffffffffffffffffffffffffffffffffffff169050816000806101000a81548173ffffffffffffffffffffffffffffffffffffffff021916908373ffffffffffffffffffffffffffffffffffffffff1602179055508173ffffffffffffffffffffffffffffffffffffffff168173ffffffffffffffffffffffffffffffffffffffff167f8be0079c531659141344cd1fd0a4f28419497f9722a3daafe3b4186f6b6457e060405160405180910390a35050565b620001396200005d60201b60201c565b73ffffffffffffffffffffffffffffffffffffffff166200015f620001fc60201b60201c565b73ffffffffffffffffffffffffffffffffffffffff1614620001b8576040517f08c379a0000000000000000000000000000000000000000000000000000000008152600401620001af9062000286565b60405180910390fd5b80600560006101000a81548173ffffffffffffffffffffffffffffffffffffffff021916908373ffffffffffffffffffffffffffffffffffffffff16021790555050565b60008060009054906101000a900473ffffffffffffffffffffffffffffffffffffffff16905090565b600082825260208201905092915050565b7f4f776e61626c653a2063616c6c6572206973206e6f7420746865206f776e6572600082015250565b60006200026e60208362000225565b91506200027b8262000236565b602082019050919050565b60006020820190508181036000830152620002a1816200025f565b9050919050565b614bf880620002b86000396000f3fe6080604052600436106101c65760003560e01c8063703a92c4116100f7578063d09ad09011610095578063f2fde38b11610064578063f2fde38b1461064f578063f84f89a214610678578063f9ab632c146106b5578063fdb6b8ef146106f2576101cd565b8063d09ad09014610583578063d5527268146105c0578063da304e4d146105e9578063e1fddd7614610626576101cd565b80638da5cb5b116100d15780638da5cb5b146104db578063964419f314610506578063b6b55f2514610531578063c423a3871461055a576101cd565b8063703a92c41461045e578063715018a61461049b5780638ad3fd20146104b2576101cd565b806346e5dec31161016457806349c3fd871161013e57806349c3fd871461039c57806364ee82d6146103d95780636737b31e146104045780636747b94814610420576101cd565b806346e5dec31461031c57806347e7ef2414610347578063483c07ff14610370576101cd565b80631d63d403116101a05780631d63d4031461024c5780631e63e5ec1461027757806325117b72146102b4578063398873da146102df576101cd565b8063048a631f146101cf57806318467d2d146101f857806318759a5f14610221576101cd565b366101cd57005b005b3480156101db57600080fd5b506101f660048036038101906101f1919061367e565b61071b565b005b34801561020457600080fd5b5061021f600480360381019061021a91906136e1565b6107db565b005b34801561022d57600080fd5b50610236610a19565b60405161024391906138b0565b60405180910390f35b34801561025857600080fd5b50610261610a30565b60405161026e9190613931565b60405180910390f35b34801561028357600080fd5b5061029e6004803603810190610299919061367e565b610a56565b6040516102ab91906139a1565b60405180910390f35b3480156102c057600080fd5b506102c9610cbe565b6040516102d691906139cb565b60405180910390f35b3480156102eb57600080fd5b50610306600480360381019061030191906136e1565b610cd5565b60405161031391906139cb565b60405180910390f35b34801561032857600080fd5b50610331610cf9565b60405161033e9190613a07565b60405180910390f35b34801561035357600080fd5b5061036e60048036038101906103699190613a22565b610d1f565b005b34801561037c57600080fd5b50610385611476565b604051610393929190613a97565b60405180910390f35b3480156103a857600080fd5b506103c360048036038101906103be91906136e1565b611535565b6040516103d09190613acf565b60405180910390f35b3480156103e557600080fd5b506103ee611574565b6040516103fb91906139a1565b60405180910390f35b61041e600480360381019061041991906136e1565b611591565b005b34801561042c57600080fd5b506104476004803603810190610442919061367e565b611c71565b604051610455929190613a97565b60405180910390f35b34801561046a57600080fd5b50610485600480360381019061048091906136e1565b611dad565b60405161049291906139a1565b60405180910390f35b3480156104a757600080fd5b506104b0611ea2565b005b3480156104be57600080fd5b506104d960048036038101906104d491906136e1565b611f2a565b005b3480156104e757600080fd5b506104f061202b565b6040516104fd9190613acf565b60405180910390f35b34801561051257600080fd5b5061051b612054565b6040516105289190613bee565b60405180910390f35b34801561053d57600080fd5b50610558600480360381019061055391906136e1565b612200565b005b34801561056657600080fd5b50610581600480360381019061057c9190613c34565b612806565b005b34801561058f57600080fd5b506105aa60048036038101906105a5919061367e565b61282d565b6040516105b791906138b0565b60405180910390f35b3480156105cc57600080fd5b506105e760048036038101906105e2919061367e565b6129cd565b005b3480156105f557600080fd5b50610610600480360381019061060b91906136e1565b612c64565b60405161061d91906139cb565b60405180910390f35b34801561063257600080fd5b5061064d60048036038101906106489190613cd9565b612cb2565b005b34801561065b57600080fd5b506106766004803603810190610671919061367e565b612cc8565b005b34801561068457600080fd5b5061069f600480360381019061069a919061367e565b612dc0565b6040516106ac91906139cb565b60405180910390f35b3480156106c157600080fd5b506106dc60048036038101906106d7919061367e565b612fca565b6040516106e99190613d41565b60405180910390f35b3480156106fe57600080fd5b5061071960048036038101906107149190613d5c565b613062565b005b610723613368565b73ffffffffffffffffffffffffffffffffffffffff1661074161202b565b73ffffffffffffffffffffffffffffffffffffffff1614610797576040517f08c379a000000000000000000000000000000000000000000000000000000000815260040161078e90613df9565b60405180910390fd5b80600560006101000a81548173ffffffffffffffffffffffffffffffffffffffff021916908373ffffffffffffffffffffffffffffffffffffffff16021790555050565b6107e3613368565b73ffffffffffffffffffffffffffffffffffffffff1661080161202b565b73ffffffffffffffffffffffffffffffffffffffff1614610857576040517f08c379a000000000000000000000000000000000000000000000000000000000815260040161084e90613df9565b60405180910390fd5b6000600360006004848154811061087157610870613e19565b5b9060005260206000200160009054906101000a900473ffffffffffffffffffffffffffffffffffffffff1673ffffffffffffffffffffffffffffffffffffffff1673ffffffffffffffffffffffffffffffffffffffff16815260200190815260200160002060006101000a81548173ffffffffffffffffffffffffffffffffffffffff021916908373ffffffffffffffffffffffffffffffffffffffff160217905550600060016004805490506109289190613e77565b9050808210156109ce576004818154811061094657610945613e19565b5b9060005260206000200160009054906101000a900473ffffffffffffffffffffffffffffffffffffffff166004838154811061098557610984613e19565b5b9060005260206000200160006101000a81548173ffffffffffffffffffffffffffffffffffffffff021916908373ffffffffffffffffffffffffffffffffffffffff1602179055505b60048054806109e0576109df613eab565b5b6001900381819060005260206000200160006101000a81549073ffffffffffffffffffffffffffffffffffffffff021916905590555050565b6060610a2b610a26613368565b61282d565b905090565b600160009054906101000a900473ffffffffffffffffffffffffffffffffffffffff1681565b610a5e613552565b600060078054905067ffffffffffffffff811115610a7f57610a7e613eda565b5b604051908082528060200260200182016040528015610aad5781602001602082028036833780820191505090505b50905060005b8151811015610b1d5783828281518110610ad057610acf613e19565b5b602002602001019073ffffffffffffffffffffffffffffffffffffffff16908173ffffffffffffffffffffffffffffffffffffffff16815250508080610b1590613f09565b915050610ab3565b506000600160009054906101000a900473ffffffffffffffffffffffffffffffffffffffff1673ffffffffffffffffffffffffffffffffffffffff16634e1273f48360076040518363ffffffff1660e01b8152600401610b7e929190614100565b60006040518083038186803b158015610b9657600080fd5b505afa158015610baa573d6000803e3d6000fd5b505050506040513d6000823e3d601f19601f82011682018060405250810190610bd3919061426c565b905060005b8151811015610c86576000828281518110610bf657610bf5613e19565b5b60200260200101511415610c0957610c73565b6000610c3260078381548110610c2257610c21613e19565b5b9060005260206000200154611dad565b90506000816040015167ffffffffffffffff1614158015610c60575042816040015167ffffffffffffffff16115b15610c715780945050505050610cb9565b505b8080610c7e90613f09565b915050610bd8565b506040517fe253024200000000000000000000000000000000000000000000000000000000815260040160405180910390fd5b919050565b6000610cd0610ccb613368565b612dc0565b905090565b60078181548110610ce557600080fd5b906000526020600020016000915090505481565b600260009054906101000a900473ffffffffffffffffffffffffffffffffffffffff1681565b81600073ffffffffffffffffffffffffffffffffffffffff16600360008373ffffffffffffffffffffffffffffffffffffffff1673ffffffffffffffffffffffffffffffffffffffff16815260200190815260200160002060009054906101000a900473ffffffffffffffffffffffffffffffffffffffff1673ffffffffffffffffffffffffffffffffffffffff161415610de6576040517f4857c89900000000000000000000000000000000000000000000000000000000815260040160405180910390fd5b6000610df0611574565b9050600083610dfd610cbe565b610e0791906142b5565b90508082606001516fffffffffffffffffffffffffffffffff161015610e59576040517fa7fd379200000000000000000000000000000000000000000000000000000000815260040160405180910390fd5b6000600360008773ffffffffffffffffffffffffffffffffffffffff1673ffffffffffffffffffffffffffffffffffffffff16815260200190815260200160002060009054906101000a900473ffffffffffffffffffffffffffffffffffffffff16905060008173ffffffffffffffffffffffffffffffffffffffff1663313ce5676040518163ffffffff1660e01b815260040160206040518083038186803b158015610f0557600080fd5b505afa158015610f19573d6000803e3d6000fd5b505050506040513d601f19601f82011682018060405250810190610f3d9190614337565b905060008273ffffffffffffffffffffffffffffffffffffffff1663feaf968c6040518163ffffffff1660e01b815260040160a06040518083038186803b158015610f8757600080fd5b505afa158015610f9b573d6000803e3d6000fd5b505050506040513d601f19601f82011682018060405250810190610fbf91906143d2565b5050509150506000811215610fff576040517ebfc92100000000000000000000000000000000000000000000000000000000815260040160405180910390fd5b60008190506000836014611013919061444d565b60ff16600a61102291906145b4565b8261102d91906145ff565b876000015163ffffffff168a61104391906145ff565b61104d9190614688565b905060008a905060008173ffffffffffffffffffffffffffffffffffffffff166370a08231306040518263ffffffff1660e01b815260040161108f9190613acf565b60206040518083038186803b1580156110a757600080fd5b505afa1580156110bb573d6000803e3d6000fd5b505050506040513d601f19601f820116820180604052508101906110df91906146b9565b90508281101561111b576040517f3633f81800000000000000000000000000000000000000000000000000000000815260040160405180910390fd5b600260009054906101000a900473ffffffffffffffffffffffffffffffffffffffff1673ffffffffffffffffffffffffffffffffffffffff166323b872dd611161613368565b308e6040518463ffffffff1660e01b8152600401611181939291906146e6565b602060405180830381600087803b15801561119b57600080fd5b505af11580156111af573d6000803e3d6000fd5b505050506040513d601f19601f820116820180604052508101906111d39190614749565b508173ffffffffffffffffffffffffffffffffffffffff1663a9059cbb6111f8613368565b856040518363ffffffff1660e01b8152600401611216929190614776565b602060405180830381600087803b15801561123057600080fd5b505af1158015611244573d6000803e3d6000fd5b505050506040513d601f19601f820116820180604052508101906112689190614749565b5060086000611275613368565b73ffffffffffffffffffffffffffffffffffffffff1673ffffffffffffffffffffffffffffffffffffffff1681526020019081526020016000206040518060a001604052808b6020015163ffffffff1681526020014267ffffffffffffffff1681526020018d6fffffffffffffffffffffffffffffffff1681526020018581526020018e73ffffffffffffffffffffffffffffffffffffffff16815250908060018154018082558091505060019003906000526020600020906003020160009091909190915060008201518160000160006101000a81548163ffffffff021916908363ffffffff16021790555060208201518160000160046101000a81548167ffffffffffffffff021916908367ffffffffffffffff160217905550604082015181600001600c6101000a8154816fffffffffffffffffffffffffffffffff02191690836fffffffffffffffffffffffffffffffff1602179055506060820151816001015560808201518160020160006101000a81548173ffffffffffffffffffffffffffffffffffffffff021916908373ffffffffffffffffffffffffffffffffffffffff1602179055505050828c73ffffffffffffffffffffffffffffffffffffffff168c7f707820251fb46777f43913e0f79a5bfe897ba7feb06089f3ed695614d5b5dd3e60405160405180910390a4505050505050505050505050565b600080600073ffffffffffffffffffffffffffffffffffffffff16600560009054906101000a900473ffffffffffffffffffffffffffffffffffffffff1673ffffffffffffffffffffffffffffffffffffffff161415611502576040517f4857c89900000000000000000000000000000000000000000000000000000000815260040160405180910390fd5b61152d600560009054906101000a900473ffffffffffffffffffffffffffffffffffffffff16613370565b915091509091565b6004818154811061154557600080fd5b906000526020600020016000915054906101000a900473ffffffffffffffffffffffffffffffffffffffff1681565b61157c613552565b61158c611587613368565b610a56565b905090565b60006008600061159f613368565b73ffffffffffffffffffffffffffffffffffffffff1673ffffffffffffffffffffffffffffffffffffffff168152602001908152602001600020905080805490508210611621576040517f08c379a0000000000000000000000000000000000000000000000000000000008152600401611618906147eb565b60405180910390fd5b600081838154811061163657611635613e19565b5b90600052602060002090600302016040518060a00160405290816000820160009054906101000a900463ffffffff1663ffffffff1663ffffffff1681526020016000820160049054906101000a900467ffffffffffffffff1667ffffffffffffffff1667ffffffffffffffff16815260200160008201600c9054906101000a90046fffffffffffffffffffffffffffffffff166fffffffffffffffffffffffffffffffff166fffffffffffffffffffffffffffffffff168152602001600182015481526020016002820160009054906101000a900473ffffffffffffffffffffffffffffffffffffffff1673ffffffffffffffffffffffffffffffffffffffff1673ffffffffffffffffffffffffffffffffffffffff168152505090506000816020015167ffffffffffffffff164261176f9190613e77565b9050600063bbf81e00836000015163ffffffff168385604001516fffffffffffffffffffffffffffffffff166117a591906145ff565b6117af91906145ff565b6117b99190614688565b9050600073ffffffffffffffffffffffffffffffffffffffff16836080015173ffffffffffffffffffffffffffffffffffffffff161461189d576000836080015190508073ffffffffffffffffffffffffffffffffffffffff166323b872dd611820613368565b3087606001516040518463ffffffff1660e01b8152600401611844939291906146e6565b602060405180830381600087803b15801561185e57600080fd5b505af1158015611872573d6000803e3d6000fd5b505050506040513d601f19601f820116820180604052508101906118969190614749565b50506118db565b826060015134146118da576040517f329099d800000000000000000000000000000000000000000000000000000000815260040160405180910390fd5b5b60008184604001516fffffffffffffffffffffffffffffffff1611156119d9578184604001516fffffffffffffffffffffffffffffffff1661191d9190613e77565b9050600260009054906101000a900473ffffffffffffffffffffffffffffffffffffffff1673ffffffffffffffffffffffffffffffffffffffff166323b872dd30611966613368565b846040518463ffffffff1660e01b8152600401611985939291906146e6565b602060405180830381600087803b15801561199f57600080fd5b505af11580156119b3573d6000803e3d6000fd5b505050506040513d601f19601f820116820180604052508101906119d79190614749565b505b6000600186805490506119ec9190613e77565b905080871015611b8257858181548110611a0957611a08613e19565b5b9060005260206000209060030201868881548110611a2a57611a29613e19565b5b90600052602060002090600302016000820160009054906101000a900463ffffffff168160000160006101000a81548163ffffffff021916908363ffffffff1602179055506000820160049054906101000a900467ffffffffffffffff168160000160046101000a81548167ffffffffffffffff021916908367ffffffffffffffff16021790555060008201600c9054906101000a90046fffffffffffffffffffffffffffffffff1681600001600c6101000a8154816fffffffffffffffffffffffffffffffff02191690836fffffffffffffffffffffffffffffffff160217905550600182015481600101556002820160009054906101000a900473ffffffffffffffffffffffffffffffffffffffff168160020160006101000a81548173ffffffffffffffffffffffffffffffffffffffff021916908373ffffffffffffffffffffffffffffffffffffffff1602179055509050505b85805480611b9357611b92613eab565b5b6001900381819060005260206000209060030201600080820160006101000a81549063ffffffff02191690556000820160046101000a81549067ffffffffffffffff021916905560008201600c6101000a8154906fffffffffffffffffffffffffffffffff021916905560018201600090556002820160006101000a81549073ffffffffffffffffffffffffffffffffffffffff021916905550509055817fec5d3efe21b7ad3fd9e0536b321f6ac73144e22f136f959d00d5b05a4eb28aa688604051611c6091906139cb565b60405180910390a250505050505050565b60008082600073ffffffffffffffffffffffffffffffffffffffff16600360008373ffffffffffffffffffffffffffffffffffffffff1673ffffffffffffffffffffffffffffffffffffffff16815260200190815260200160002060009054906101000a900473ffffffffffffffffffffffffffffffffffffffff1673ffffffffffffffffffffffffffffffffffffffff161415611d3b576040517f4857c89900000000000000000000000000000000000000000000000000000000815260040160405180910390fd5b611da3600360008673ffffffffffffffffffffffffffffffffffffffff1673ffffffffffffffffffffffffffffffffffffffff16815260200190815260200160002060009054906101000a900473ffffffffffffffffffffffffffffffffffffffff16613370565b9250925050915091565b611db5613552565b600660008381526020019081526020016000206040518060800160405290816000820160009054906101000a900463ffffffff1663ffffffff1663ffffffff1681526020016000820160049054906101000a900463ffffffff1663ffffffff1663ffffffff1681526020016000820160089054906101000a900467ffffffffffffffff1667ffffffffffffffff1667ffffffffffffffff1681526020016000820160109054906101000a90046fffffffffffffffffffffffffffffffff166fffffffffffffffffffffffffffffffff166fffffffffffffffffffffffffffffffff16815250509050919050565b611eaa613368565b73ffffffffffffffffffffffffffffffffffffffff16611ec861202b565b73ffffffffffffffffffffffffffffffffffffffff1614611f1e576040517f08c379a0000000000000000000000000000000000000000000000000000000008152600401611f1590613df9565b60405180910390fd5b611f28600061348e565b565b611f32613368565b73ffffffffffffffffffffffffffffffffffffffff16611f5061202b565b73ffffffffffffffffffffffffffffffffffffffff1614611fa6576040517f08c379a0000000000000000000000000000000000000000000000000000000008152600401611f9d90613df9565b60405180910390fd5b60066000828152602001908152602001600020600080820160006101000a81549063ffffffff02191690556000820160046101000a81549063ffffffff02191690556000820160086101000a81549067ffffffffffffffff02191690556000820160106101000a8154906fffffffffffffffffffffffffffffffff0219169055505050565b60008060009054906101000a900473ffffffffffffffffffffffffffffffffffffffff16905090565b6060600060078054905067ffffffffffffffff81111561207757612076613eda565b5b6040519080825280602002602001820160405280156120b057816020015b61209d613552565b8152602001906001900390816120955790505b50905060005b6007805490508110156121f85760066000600783815481106120db576120da613e19565b5b906000526020600020015481526020019081526020016000206040518060800160405290816000820160009054906101000a900463ffffffff1663ffffffff1663ffffffff1681526020016000820160049054906101000a900463ffffffff1663ffffffff1663ffffffff1681526020016000820160089054906101000a900467ffffffffffffffff1667ffffffffffffffff1667ffffffffffffffff1681526020016000820160109054906101000a90046fffffffffffffffffffffffffffffffff166fffffffffffffffffffffffffffffffff166fffffffffffffffffffffffffffffffff16815250508282815181106121da576121d9613e19565b5b602002602001018190525080806121f090613f09565b9150506120b6565b508091505090565b600073ffffffffffffffffffffffffffffffffffffffff16600560009054906101000a900473ffffffffffffffffffffffffffffffffffffffff1673ffffffffffffffffffffffffffffffffffffffff161415612289576040517f4857c89900000000000000000000000000000000000000000000000000000000815260040160405180910390fd5b6000612293611574565b90506000826122a0610cbe565b6122aa91906142b5565b90508082606001516fffffffffffffffffffffffffffffffff1610156122fc576040517fa7fd379200000000000000000000000000000000000000000000000000000000815260040160405180910390fd5b6000600560009054906101000a900473ffffffffffffffffffffffffffffffffffffffff16905060008173ffffffffffffffffffffffffffffffffffffffff1663313ce5676040518163ffffffff1660e01b815260040160206040518083038186803b15801561236b57600080fd5b505afa15801561237f573d6000803e3d6000fd5b505050506040513d601f19601f820116820180604052508101906123a39190614337565b905060008273ffffffffffffffffffffffffffffffffffffffff1663feaf968c6040518163ffffffff1660e01b815260040160a06040518083038186803b1580156123ed57600080fd5b505afa158015612401573d6000803e3d6000fd5b505050506040513d601f19601f8201168201806040525081019061242591906143d2565b5050509150506000811215612465576040517ebfc92100000000000000000000000000000000000000000000000000000000815260040160405180910390fd5b60008190506000836014612479919061444d565b60ff16600a61248891906145b4565b8261249391906145ff565b876000015163ffffffff16896124a991906145ff565b6124b39190614688565b90506000309050818173ffffffffffffffffffffffffffffffffffffffff1631101561250b576040517f3633f81800000000000000000000000000000000000000000000000000000000815260040160405180910390fd5b600260009054906101000a900473ffffffffffffffffffffffffffffffffffffffff1673ffffffffffffffffffffffffffffffffffffffff166323b872dd612551613368565b308c6040518463ffffffff1660e01b8152600401612571939291906146e6565b602060405180830381600087803b15801561258b57600080fd5b505af115801561259f573d6000803e3d6000fd5b505050506040513d601f19601f820116820180604052508101906125c39190614749565b506125cc613368565b73ffffffffffffffffffffffffffffffffffffffff166108fc839081150290604051600060405180830381858888f19350505050158015612611573d6000803e3d6000fd5b506008600061261e613368565b73ffffffffffffffffffffffffffffffffffffffff1673ffffffffffffffffffffffffffffffffffffffff1681526020019081526020016000206040518060a001604052808a6020015163ffffffff1681526020014267ffffffffffffffff1681526020018b6fffffffffffffffffffffffffffffffff168152602001848152602001600073ffffffffffffffffffffffffffffffffffffffff16815250908060018154018082558091505060019003906000526020600020906003020160009091909190915060008201518160000160006101000a81548163ffffffff021916908363ffffffff16021790555060208201518160000160046101000a81548167ffffffffffffffff021916908367ffffffffffffffff160217905550604082015181600001600c6101000a8154816fffffffffffffffffffffffffffffffff02191690836fffffffffffffffffffffffffffffffff1602179055506060820151816001015560808201518160020160006101000a81548173ffffffffffffffffffffffffffffffffffffffff021916908373ffffffffffffffffffffffffffffffffffffffff160217905550505081897f33b118750ab0273342b56cb6387e0ade9135c54ad0525ad041284f2ed6adccf960405160405180910390a3505050505050505050565b806006600084815260200190815260200160002081816128269190614b22565b9050505050565b6060600860008373ffffffffffffffffffffffffffffffffffffffff1673ffffffffffffffffffffffffffffffffffffffff168152602001908152602001600020805480602002602001604051908101604052809291908181526020016000905b828210156129c257838290600052602060002090600302016040518060a00160405290816000820160009054906101000a900463ffffffff1663ffffffff1663ffffffff1681526020016000820160049054906101000a900467ffffffffffffffff1667ffffffffffffffff1667ffffffffffffffff16815260200160008201600c9054906101000a90046fffffffffffffffffffffffffffffffff166fffffffffffffffffffffffffffffffff166fffffffffffffffffffffffffffffffff168152602001600182015481526020016002820160009054906101000a900473ffffffffffffffffffffffffffffffffffffffff1673ffffffffffffffffffffffffffffffffffffffff1673ffffffffffffffffffffffffffffffffffffffff16815250508152602001906001019061288e565b505050509050919050565b6129d5613368565b73ffffffffffffffffffffffffffffffffffffffff166129f361202b565b73ffffffffffffffffffffffffffffffffffffffff1614612a49576040517f08c379a0000000000000000000000000000000000000000000000000000000008152600401612a4090613df9565b60405180910390fd5b6000600360008373ffffffffffffffffffffffffffffffffffffffff1673ffffffffffffffffffffffffffffffffffffffff16815260200190815260200160002060006101000a81548173ffffffffffffffffffffffffffffffffffffffff021916908373ffffffffffffffffffffffffffffffffffffffff16021790555060005b600480549050811015612c60578173ffffffffffffffffffffffffffffffffffffffff1660048281548110612b0357612b02613e19565b5b9060005260206000200160009054906101000a900473ffffffffffffffffffffffffffffffffffffffff1673ffffffffffffffffffffffffffffffffffffffff161415612c4d5760006001600480549050612b5e9190613e77565b905080821015612c045760048181548110612b7c57612b7b613e19565b5b9060005260206000200160009054906101000a900473ffffffffffffffffffffffffffffffffffffffff1660048381548110612bbb57612bba613e19565b5b9060005260206000200160006101000a81548173ffffffffffffffffffffffffffffffffffffffff021916908373ffffffffffffffffffffffffffffffffffffffff1602179055505b6004805480612c1657612c15613eab565b5b6001900381819060005260206000200160006101000a81549073ffffffffffffffffffffffffffffffffffffffff02191690559055505b8080612c5890613f09565b915050612acb565b5050565b60006006600083815260200190815260200160002060000160109054906101000a90046fffffffffffffffffffffffffffffffff166fffffffffffffffffffffffffffffffff169050919050565b818160079190612cc39291906135a2565b505050565b612cd0613368565b73ffffffffffffffffffffffffffffffffffffffff16612cee61202b565b73ffffffffffffffffffffffffffffffffffffffff1614612d44576040517f08c379a0000000000000000000000000000000000000000000000000000000008152600401612d3b90613df9565b60405180910390fd5b600073ffffffffffffffffffffffffffffffffffffffff168173ffffffffffffffffffffffffffffffffffffffff161415612db4576040517f08c379a0000000000000000000000000000000000000000000000000000000008152600401612dab90614ba2565b60405180910390fd5b612dbd8161348e565b50565b600080600090506000600860008573ffffffffffffffffffffffffffffffffffffffff1673ffffffffffffffffffffffffffffffffffffffff168152602001908152602001600020805480602002602001604051908101604052809291908181526020016000905b82821015612f5c57838290600052602060002090600302016040518060a00160405290816000820160009054906101000a900463ffffffff1663ffffffff1663ffffffff1681526020016000820160049054906101000a900467ffffffffffffffff1667ffffffffffffffff1667ffffffffffffffff16815260200160008201600c9054906101000a90046fffffffffffffffffffffffffffffffff166fffffffffffffffffffffffffffffffff166fffffffffffffffffffffffffffffffff168152602001600182015481526020016002820160009054906101000a900473ffffffffffffffffffffffffffffffffffffffff1673ffffffffffffffffffffffffffffffffffffffff1673ffffffffffffffffffffffffffffffffffffffff168152505081526020019060010190612e28565b50505050905060005b8151811015612fbf57818181518110612f8157612f80613e19565b5b6020026020010151604001516fffffffffffffffffffffffffffffffff1683612faa91906142b5565b92508080612fb790613f09565b915050612f65565b508192505050919050565b60008073ffffffffffffffffffffffffffffffffffffffff16600360008473ffffffffffffffffffffffffffffffffffffffff1673ffffffffffffffffffffffffffffffffffffffff16815260200190815260200160002060009054906101000a900473ffffffffffffffffffffffffffffffffffffffff1673ffffffffffffffffffffffffffffffffffffffff1614159050919050565b61306a613368565b73ffffffffffffffffffffffffffffffffffffffff1661308861202b565b73ffffffffffffffffffffffffffffffffffffffff16146130de576040517f08c379a00000000000000000000000000000000000000000000000000000000081526004016130d590613df9565b60405180910390fd5b60008073ffffffffffffffffffffffffffffffffffffffff168373ffffffffffffffffffffffffffffffffffffffff161415613146576040517f65bea36000000000000000000000000000000000000000000000000000000000815260040160405180910390fd5b8073ffffffffffffffffffffffffffffffffffffffff168273ffffffffffffffffffffffffffffffffffffffff1614156131ac576040517f14f5282000000000000000000000000000000000000000000000000000000000815260040160405180910390fd5b6000600360008573ffffffffffffffffffffffffffffffffffffffff1673ffffffffffffffffffffffffffffffffffffffff16815260200190815260200160002060009054906101000a900473ffffffffffffffffffffffffffffffffffffffff1690508073ffffffffffffffffffffffffffffffffffffffff168373ffffffffffffffffffffffffffffffffffffffff16141561324b575050613364565b82600360008673ffffffffffffffffffffffffffffffffffffffff1673ffffffffffffffffffffffffffffffffffffffff16815260200190815260200160002060006101000a81548173ffffffffffffffffffffffffffffffffffffffff021916908373ffffffffffffffffffffffffffffffffffffffff1602179055508173ffffffffffffffffffffffffffffffffffffffff168173ffffffffffffffffffffffffffffffffffffffff161415613361576004849080600181540180825580915050600190039060005260206000200160009091909190916101000a81548173ffffffffffffffffffffffffffffffffffffffff021916908373ffffffffffffffffffffffffffffffffffffffff1602179055505b50505b5050565b600033905090565b600080600083905060008173ffffffffffffffffffffffffffffffffffffffff1663313ce5676040518163ffffffff1660e01b815260040160206040518083038186803b1580156133c057600080fd5b505afa1580156133d4573d6000803e3d6000fd5b505050506040513d601f19601f820116820180604052508101906133f89190614337565b905060008273ffffffffffffffffffffffffffffffffffffffff1663feaf968c6040518163ffffffff1660e01b815260040160a06040518083038186803b15801561344257600080fd5b505afa158015613456573d6000803e3d6000fd5b505050506040513d601f19601f8201168201806040525081019061347a91906143d2565b505050915050808294509450505050915091565b60008060009054906101000a900473ffffffffffffffffffffffffffffffffffffffff169050816000806101000a81548173ffffffffffffffffffffffffffffffffffffffff021916908373ffffffffffffffffffffffffffffffffffffffff1602179055508173ffffffffffffffffffffffffffffffffffffffff168173ffffffffffffffffffffffffffffffffffffffff167f8be0079c531659141344cd1fd0a4f28419497f9722a3daafe3b4186f6b6457e060405160405180910390a35050565b6040518060800160405280600063ffffffff168152602001600063ffffffff168152602001600067ffffffffffffffff16815260200160006fffffffffffffffffffffffffffffffff1681525090565b8280548282559060005260206000209081019282156135de579160200282015b828111156135dd5782358255916020019190600101906135c2565b5b5090506135eb91906135ef565b5090565b5b808211156136085760008160009055506001016135f0565b5090565b6000604051905090565b600080fd5b600080fd5b600073ffffffffffffffffffffffffffffffffffffffff82169050919050565b600061364b82613620565b9050919050565b61365b81613640565b811461366657600080fd5b50565b60008135905061367881613652565b92915050565b60006020828403121561369457613693613616565b5b60006136a284828501613669565b91505092915050565b6000819050919050565b6136be816136ab565b81146136c957600080fd5b50565b6000813590506136db816136b5565b92915050565b6000602082840312156136f7576136f6613616565b5b6000613705848285016136cc565b91505092915050565b600081519050919050565b600082825260208201905092915050565b6000819050602082019050919050565b600063ffffffff82169050919050565b6137538161373a565b82525050565b600067ffffffffffffffff82169050919050565b61377681613759565b82525050565b60006fffffffffffffffffffffffffffffffff82169050919050565b6137a18161377c565b82525050565b6137b0816136ab565b82525050565b6137bf81613640565b82525050565b60a0820160008201516137db600085018261374a565b5060208201516137ee602085018261376d565b5060408201516138016040850182613798565b50606082015161381460608501826137a7565b50608082015161382760808501826137b6565b50505050565b600061383983836137c5565b60a08301905092915050565b6000602082019050919050565b600061385d8261370e565b6138678185613719565b93506138728361372a565b8060005b838110156138a357815161388a888261382d565b975061389583613845565b925050600181019050613876565b5085935050505092915050565b600060208201905081810360008301526138ca8184613852565b905092915050565b6000819050919050565b60006138f76138f26138ed84613620565b6138d2565b613620565b9050919050565b6000613909826138dc565b9050919050565b600061391b826138fe565b9050919050565b61392b81613910565b82525050565b60006020820190506139466000830184613922565b92915050565b608082016000820151613962600085018261374a565b506020820151613975602085018261374a565b506040820151613988604085018261376d565b50606082015161399b6060850182613798565b50505050565b60006080820190506139b6600083018461394c565b92915050565b6139c5816136ab565b82525050565b60006020820190506139e060008301846139bc565b92915050565b60006139f1826138fe565b9050919050565b613a01816139e6565b82525050565b6000602082019050613a1c60008301846139f8565b92915050565b60008060408385031215613a3957613a38613616565b5b6000613a4785828601613669565b9250506020613a58858286016136cc565b9150509250929050565b6000819050919050565b613a7581613a62565b82525050565b600060ff82169050919050565b613a9181613a7b565b82525050565b6000604082019050613aac6000830185613a6c565b613ab96020830184613a88565b9392505050565b613ac981613640565b82525050565b6000602082019050613ae46000830184613ac0565b92915050565b600081519050919050565b600082825260208201905092915050565b6000819050602082019050919050565b608082016000820151613b2c600085018261374a565b506020820151613b3f602085018261374a565b506040820151613b52604085018261376d565b506060820151613b656060850182613798565b50505050565b6000613b778383613b16565b60808301905092915050565b6000602082019050919050565b6000613b9b82613aea565b613ba58185613af5565b9350613bb083613b06565b8060005b83811015613be1578151613bc88882613b6b565b9750613bd383613b83565b925050600181019050613bb4565b5085935050505092915050565b60006020820190508181036000830152613c088184613b90565b905092915050565b600080fd5b600060808284031215613c2b57613c2a613c10565b5b81905092915050565b60008060a08385031215613c4b57613c4a613616565b5b6000613c59858286016136cc565b9250506020613c6a85828601613c15565b9150509250929050565b600080fd5b600080fd5b600080fd5b60008083601f840112613c9957613c98613c74565b5b8235905067ffffffffffffffff811115613cb657613cb5613c79565b5b602083019150836020820283011115613cd257613cd1613c7e565b5b9250929050565b60008060208385031215613cf057613cef613616565b5b600083013567ffffffffffffffff811115613d0e57613d0d61361b565b5b613d1a85828601613c83565b92509250509250929050565b60008115159050919050565b613d3b81613d26565b82525050565b6000602082019050613d566000830184613d32565b92915050565b60008060408385031215613d7357613d72613616565b5b6000613d8185828601613669565b9250506020613d9285828601613669565b9150509250929050565b600082825260208201905092915050565b7f4f776e61626c653a2063616c6c6572206973206e6f7420746865206f776e6572600082015250565b6000613de3602083613d9c565b9150613dee82613dad565b602082019050919050565b60006020820190508181036000830152613e1281613dd6565b9050919050565b7f4e487b7100000000000000000000000000000000000000000000000000000000600052603260045260246000fd5b7f4e487b7100000000000000000000000000000000000000000000000000000000600052601160045260246000fd5b6000613e82826136ab565b9150613e8d836136ab565b925082821015613ea057613e9f613e48565b5b828203905092915050565b7f4e487b7100000000000000000000000000000000000000000000000000000000600052603160045260246000fd5b7f4e487b7100000000000000000000000000000000000000000000000000000000600052604160045260246000fd5b6000613f14826136ab565b91507fffffffffffffffffffffffffffffffffffffffffffffffffffffffffffffffff821415613f4757613f46613e48565b5b600182019050919050565b600081519050919050565b600082825260208201905092915050565b6000819050602082019050919050565b6000613f8a83836137b6565b60208301905092915050565b6000602082019050919050565b6000613fae82613f52565b613fb88185613f5d565b9350613fc383613f6e565b8060005b83811015613ff4578151613fdb8882613f7e565b9750613fe683613f96565b925050600181019050613fc7565b5085935050505092915050565b600081549050919050565b600082825260208201905092915050565b60008190508160005260206000209050919050565b600061403e83836137a7565b60208301905092915050565b60008160001c9050919050565b6000819050919050565b600061407461406f8361404a565b614057565b9050919050565b60006140878254614061565b9050919050565b6000600182019050919050565b60006140a682614001565b6140b0818561400c565b93506140bb8361401d565b8060005b838110156140f3576140d08261407b565b6140da8882614032565b97506140e58361408e565b9250506001810190506140bf565b5085935050505092915050565b6000604082019050818103600083015261411a8185613fa3565b9050818103602083015261412e818461409b565b90509392505050565b6000601f19601f8301169050919050565b61415182614137565b810181811067ffffffffffffffff821117156141705761416f613eda565b5b80604052505050565b600061418361360c565b905061418f8282614148565b919050565b600067ffffffffffffffff8211156141af576141ae613eda565b5b602082029050602081019050919050565b6000815190506141cf816136b5565b92915050565b60006141e86141e384614194565b614179565b9050808382526020820190506020840283018581111561420b5761420a613c7e565b5b835b81811015614234578061422088826141c0565b84526020840193505060208101905061420d565b5050509392505050565b600082601f83011261425357614252613c74565b5b81516142638482602086016141d5565b91505092915050565b60006020828403121561428257614281613616565b5b600082015167ffffffffffffffff8111156142a05761429f61361b565b5b6142ac8482850161423e565b91505092915050565b60006142c0826136ab565b91506142cb836136ab565b9250827fffffffffffffffffffffffffffffffffffffffffffffffffffffffffffffffff03821115614300576142ff613e48565b5b828201905092915050565b61431481613a7b565b811461431f57600080fd5b50565b6000815190506143318161430b565b92915050565b60006020828403121561434d5761434c613616565b5b600061435b84828501614322565b91505092915050565b600069ffffffffffffffffffff82169050919050565b61438381614364565b811461438e57600080fd5b50565b6000815190506143a08161437a565b92915050565b6143af81613a62565b81146143ba57600080fd5b50565b6000815190506143cc816143a6565b92915050565b600080600080600060a086880312156143ee576143ed613616565b5b60006143fc88828901614391565b955050602061440d888289016143bd565b945050604061441e888289016141c0565b935050606061442f888289016141c0565b925050608061444088828901614391565b9150509295509295909350565b600061445882613a7b565b915061446383613a7b565b92508282101561447657614475613e48565b5b828203905092915050565b60008160011c9050919050565b6000808291508390505b60018511156144d8578086048111156144b4576144b3613e48565b5b60018516156144c35780820291505b80810290506144d185614481565b9450614498565b94509492505050565b6000826144f157600190506145ad565b816144ff57600090506145ad565b8160018114614515576002811461451f5761454e565b60019150506145ad565b60ff84111561453157614530613e48565b5b8360020a91508482111561454857614547613e48565b5b506145ad565b5060208310610133831016604e8410600b84101617156145835782820a90508381111561457e5761457d613e48565b5b6145ad565b614590848484600161448e565b925090508184048111156145a7576145a6613e48565b5b81810290505b9392505050565b60006145bf826136ab565b91506145ca836136ab565b92506145f77fffffffffffffffffffffffffffffffffffffffffffffffffffffffffffffffff84846144e1565b905092915050565b600061460a826136ab565b9150614615836136ab565b9250817fffffffffffffffffffffffffffffffffffffffffffffffffffffffffffffffff048311821515161561464e5761464d613e48565b5b828202905092915050565b7f4e487b7100000000000000000000000000000000000000000000000000000000600052601260045260246000fd5b6000614693826136ab565b915061469e836136ab565b9250826146ae576146ad614659565b5b828204905092915050565b6000602082840312156146cf576146ce613616565b5b60006146dd848285016141c0565b91505092915050565b60006060820190506146fb6000830186613ac0565b6147086020830185613ac0565b61471560408301846139bc565b949350505050565b61472681613d26565b811461473157600080fd5b50565b6000815190506147438161471d565b92915050565b60006020828403121561475f5761475e613616565b5b600061476d84828501614734565b91505092915050565b600060408201905061478b6000830185613ac0565b61479860208301846139bc565b9392505050565b7f706f736974696f6e206f7574206f662072616e67650000000000000000000000600082015250565b60006147d5601583613d9c565b91506147e08261479f565b602082019050919050565b60006020820190508181036000830152614804816147c8565b9050919050565b6148148161373a565b811461481f57600080fd5b50565b6000813561482f8161480b565b80915050919050565b60008160001b9050919050565b600063ffffffff61485584614838565b9350801983169250808416831791505092915050565b600061488661488161487c8461373a565b6138d2565b61373a565b9050919050565b6000819050919050565b6148a08261486b565b6148b36148ac8261488d565b8354614845565b8255505050565b60008160201b9050919050565b600067ffffffff000000006148db846148ba565b9350801983169250808416831791505092915050565b6148fa8261486b565b61490d6149068261488d565b83546148c7565b8255505050565b61491d81613759565b811461492857600080fd5b50565b6000813561493881614914565b80915050919050565b60008160401b9050919050565b60006fffffffffffffffff000000000000000061496a84614941565b9350801983169250808416831791505092915050565b600061499b61499661499184613759565b6138d2565b613759565b9050919050565b6000819050919050565b6149b582614980565b6149c86149c1826149a2565b835461494e565b8255505050565b6149d88161377c565b81146149e357600080fd5b50565b600081356149f3816149cf565b80915050919050565b60008160801b9050919050565b60007fffffffffffffffffffffffffffffffff00000000000000000000000000000000614a35846149fc565b9350801983169250808416831791505092915050565b6000614a66614a61614a5c8461377c565b6138d2565b61377c565b9050919050565b6000819050919050565b614a8082614a4b565b614a93614a8c82614a6d565b8354614a09565b8255505050565b600081016000830180614aac81614822565b9050614ab88184614897565b505050600081016020830180614acd81614822565b9050614ad981846148f1565b505050600081016040830180614aee8161492b565b9050614afa81846149ac565b505050600081016060830180614b0f816149e6565b9050614b1b8184614a77565b5050505050565b614b2c8282614a9a565b5050565b7f4f776e61626c653a206e6577206f776e657220697320746865207a65726f206160008201527f6464726573730000000000000000000000000000000000000000000000000000602082015250565b6000614b8c602683613d9c565b9150614b9782614b30565b604082019050919050565b60006020820190508181036000830152614bbb81614b7f565b905091905056fea264697066735822122070761745a20af9adaf83470833ba1539e0272d7585e69d689a535669ef2e0b7f64736f6c63430008090033",
  "linkReferences": {},
  "deployedLinkReferences": {}
}