{
  "_format": "hh-sol-artifact-1",
  "contractName": "SssssmokinFinance",
  "sourceName": "contracts/SssssmokinFinance.sol",
  "abi": [
    {
      "inputs": [
        {
          "internalType": "address",
          "name": "shrimptoken",
          "type": "address"
        },
        {
          "internalType": "address",
          "name": "memberToken",
          "type": "address"
        }
      ],
      "stateMutability": "nonpayable",
      "type": "constructor"
    },
    {
      "inputs": [],
      "name": "InvalidChainlinkAdrress",
      "type": "error"
    },
    {
      "inputs": [],
      "name": "InvalidPrice",
      "type": "error"
    },
    {
      "inputs": [],
      "name": "InvalidTokenAdrress",
      "type": "error"
    },
    {
      "inputs": [],
      "name": "NoneBenefits",
      "type": "error"
    },
    {
      "inputs": [],
      "name": "NotEnoughCredit",
      "type": "error"
    },
    {
      "inputs": [],
      "name": "NotEnoughStock",
      "type": "error"
    },
    {
      "inputs": [],
      "name": "NotProvideToken",
      "type": "error"
    },
    {
      "inputs": [],
      "name": "RepaymentNotCorrect",
      "type": "error"
    },
    {
      "anonymous": false,
      "inputs": [
        {
          "indexed": true,
          "internalType": "uint256",
          "name": "amount",
          "type": "uint256"
        },
        {
          "indexed": true,
          "internalType": "uint256",
          "name": "exchange",
          "type": "uint256"
        }
      ],
      "name": "DepositForEthSuccess",
      "type": "event"
    },
    {
      "anonymous": false,
      "inputs": [
        {
          "indexed": true,
          "internalType": "uint256",
          "name": "amount",
          "type": "uint256"
        },
        {
          "indexed": true,
          "internalType": "address",
          "name": "token",
          "type": "address"
        },
        {
          "indexed": true,
          "internalType": "uint256",
          "name": "exchange",
          "type": "uint256"
        }
      ],
      "name": "DepositForTokenSuccess",
      "type": "event"
    },
    {
      "anonymous": false,
      "inputs": [
        {
          "indexed": true,
          "internalType": "address",
          "name": "previousOwner",
          "type": "address"
        },
        {
          "indexed": true,
          "internalType": "address",
          "name": "newOwner",
          "type": "address"
        }
      ],
      "name": "OwnershipTransferred",
      "type": "event"
    },
    {
      "anonymous": false,
      "inputs": [
        {
          "indexed": false,
          "internalType": "uint256",
          "name": "pos",
          "type": "uint256"
        },
        {
          "indexed": true,
          "internalType": "uint256",
          "name": "remain",
          "type": "uint256"
        }
      ],
      "name": "RepaymentSucess",
      "type": "event"
    },
    {
      "stateMutability": "payable",
      "type": "fallback"
    },
    {
      "inputs": [
        {
          "internalType": "address",
          "name": "token",
          "type": "address"
        },
        {
          "internalType": "uint256",
          "name": "amount",
          "type": "uint256"
        }
      ],
      "name": "deposit",
      "outputs": [],
      "stateMutability": "nonpayable",
      "type": "function"
    },
    {
      "inputs": [
        {
          "internalType": "uint256",
          "name": "amount",
          "type": "uint256"
        }
      ],
      "name": "depositETH",
      "outputs": [],
      "stateMutability": "nonpayable",
      "type": "function"
    },
    {
      "inputs": [],
      "name": "getAllBenefits",
      "outputs": [
        {
          "components": [
            {
              "internalType": "uint32",
              "name": "ratio",
              "type": "uint32"
            },
            {
              "internalType": "uint32",
              "name": "apr",
              "type": "uint32"
            },
            {
              "internalType": "uint64",
              "name": "validityTime",
              "type": "uint64"
            },
            {
              "internalType": "uint128",
              "name": "credit",
              "type": "uint128"
            }
          ],
          "internalType": "struct SssssmokinFinance.Benefits[]",
          "name": "",
          "type": "tuple[]"
        }
      ],
      "stateMutability": "view",
      "type": "function"
    },
    {
      "inputs": [],
      "name": "getAllOrderAndBenefits",
      "outputs": [
        {
          "internalType": "uint256[]",
          "name": "",
          "type": "uint256[]"
        },
        {
          "components": [
            {
              "internalType": "uint32",
              "name": "ratio",
              "type": "uint32"
            },
            {
              "internalType": "uint32",
              "name": "apr",
              "type": "uint32"
            },
            {
              "internalType": "uint64",
              "name": "validityTime",
              "type": "uint64"
            },
            {
              "internalType": "uint128",
              "name": "credit",
              "type": "uint128"
            }
          ],
          "internalType": "struct SssssmokinFinance.Benefits[]",
          "name": "",
          "type": "tuple[]"
        }
      ],
      "stateMutability": "view",
      "type": "function"
    },
    {
      "inputs": [],
      "name": "getAllProvideTokens",
      "outputs": [
        {
          "internalType": "address[]",
          "name": "",
          "type": "address[]"
        }
      ],
      "stateMutability": "view",
      "type": "function"
    },
    {
      "inputs": [
        {
          "internalType": "uint256",
          "name": "tokenId",
          "type": "uint256"
        }
      ],
      "name": "getBenefits",
      "outputs": [
        {
          "components": [
            {
              "internalType": "uint32",
              "name": "ratio",
              "type": "uint32"
            },
            {
              "internalType": "uint32",
              "name": "apr",
              "type": "uint32"
            },
            {
              "internalType": "uint64",
              "name": "validityTime",
              "type": "uint64"
            },
            {
              "internalType": "uint128",
              "name": "credit",
              "type": "uint128"
            }
          ],
          "internalType": "struct SssssmokinFinance.Benefits",
          "name": "",
          "type": "tuple"
        }
      ],
      "stateMutability": "view",
      "type": "function"
    },
    {
      "inputs": [
        {
          "internalType": "uint256",
          "name": "tokenId",
          "type": "uint256"
        }
      ],
      "name": "getCredit",
      "outputs": [
        {
          "internalType": "uint256",
          "name": "",
          "type": "uint256"
        }
      ],
      "stateMutability": "view",
      "type": "function"
    },
    {
      "inputs": [],
      "name": "getETHFeed",
      "outputs": [
        {
          "internalType": "int256",
          "name": "",
          "type": "int256"
        },
        {
          "internalType": "uint8",
          "name": "",
          "type": "uint8"
        }
      ],
      "stateMutability": "view",
      "type": "function"
    },
    {
      "inputs": [
        {
          "internalType": "uint256",
          "name": "amount",
          "type": "uint256"
        }
      ],
      "name": "getExchangeWei",
      "outputs": [
        {
          "internalType": "uint256",
          "name": "",
          "type": "uint256"
        }
      ],
      "stateMutability": "view",
      "type": "function"
    },
    {
      "inputs": [],
      "name": "getSenderBenefits",
      "outputs": [
        {
          "components": [
            {
              "internalType": "uint32",
              "name": "ratio",
              "type": "uint32"
            },
            {
              "internalType": "uint32",
              "name": "apr",
              "type": "uint32"
            },
            {
              "internalType": "uint64",
              "name": "validityTime",
              "type": "uint64"
            },
            {
              "internalType": "uint128",
              "name": "credit",
              "type": "uint128"
            }
          ],
          "internalType": "struct SssssmokinFinance.Benefits",
          "name": "",
          "type": "tuple"
        }
      ],
      "stateMutability": "view",
      "type": "function"
    },
    {
      "inputs": [],
      "name": "getSenderLoaning",
      "outputs": [
        {
          "components": [
            {
              "internalType": "uint32",
              "name": "apr",
              "type": "uint32"
            },
            {
              "internalType": "uint64",
              "name": "time",
              "type": "uint64"
            },
            {
              "internalType": "uint128",
              "name": "margin",
              "type": "uint128"
            },
            {
              "internalType": "uint256",
              "name": "exchange",
              "type": "uint256"
            },
            {
              "internalType": "address",
              "name": "token",
              "type": "address"
            }
          ],
          "internalType": "struct SssssmokinFinance.Loan[]",
          "name": "",
          "type": "tuple[]"
        }
      ],
      "stateMutability": "view",
      "type": "function"
    },
    {
      "inputs": [],
      "name": "getSenderMargin",
      "outputs": [
        {
          "internalType": "uint256",
          "name": "",
          "type": "uint256"
        }
      ],
      "stateMutability": "view",
      "type": "function"
    },
    {
      "inputs": [
        {
          "internalType": "address",
          "name": "token",
          "type": "address"
        },
        {
          "internalType": "uint256",
          "name": "amount",
          "type": "uint256"
        }
      ],
      "name": "getTokenExchange",
      "outputs": [
        {
          "internalType": "uint256",
          "name": "",
          "type": "uint256"
        }
      ],
      "stateMutability": "view",
      "type": "function"
    },
    {
      "inputs": [
        {
          "internalType": "address",
          "name": "token",
          "type": "address"
        }
      ],
      "name": "getTokenFeed",
      "outputs": [
        {
          "internalType": "int256",
          "name": "",
          "type": "int256"
        },
        {
          "internalType": "uint8",
          "name": "",
          "type": "uint8"
        }
      ],
      "stateMutability": "view",
      "type": "function"
    },
    {
      "inputs": [],
      "name": "getTokenIdOrder",
      "outputs": [
        {
          "internalType": "uint256[]",
          "name": "",
          "type": "uint256[]"
        }
      ],
      "stateMutability": "view",
      "type": "function"
    },
    {
      "inputs": [
        {
          "internalType": "address",
          "name": "user",
          "type": "address"
        }
      ],
      "name": "getUserBenefits",
      "outputs": [
        {
          "components": [
            {
              "internalType": "uint32",
              "name": "ratio",
              "type": "uint32"
            },
            {
              "internalType": "uint32",
              "name": "apr",
              "type": "uint32"
            },
            {
              "internalType": "uint64",
              "name": "validityTime",
              "type": "uint64"
            },
            {
              "internalType": "uint128",
              "name": "credit",
              "type": "uint128"
            }
          ],
          "internalType": "struct SssssmokinFinance.Benefits",
          "name": "",
          "type": "tuple"
        }
      ],
      "stateMutability": "view",
      "type": "function"
    },
    {
      "inputs": [
        {
          "internalType": "address",
          "name": "user",
          "type": "address"
        }
      ],
      "name": "getUserLoaning",
      "outputs": [
        {
          "components": [
            {
              "internalType": "uint32",
              "name": "apr",
              "type": "uint32"
            },
            {
              "internalType": "uint64",
              "name": "time",
              "type": "uint64"
            },
            {
              "internalType": "uint128",
              "name": "margin",
              "type": "uint128"
            },
            {
              "internalType": "uint256",
              "name": "exchange",
              "type": "uint256"
            },
            {
              "internalType": "address",
              "name": "token",
              "type": "address"
            }
          ],
          "internalType": "struct SssssmokinFinance.Loan[]",
          "name": "",
          "type": "tuple[]"
        }
      ],
      "stateMutability": "view",
      "type": "function"
    },
    {
      "inputs": [
        {
          "internalType": "address",
          "name": "user",
          "type": "address"
        }
      ],
      "name": "getUserMargin",
      "outputs": [
        {
          "internalType": "uint256",
          "name": "",
          "type": "uint256"
        }
      ],
      "stateMutability": "view",
      "type": "function"
    },
    {
      "inputs": [
        {
          "internalType": "address",
          "name": "token",
          "type": "address"
        }
      ],
      "name": "isProvideToken",
      "outputs": [
        {
          "internalType": "bool",
          "name": "",
          "type": "bool"
        }
      ],
      "stateMutability": "view",
      "type": "function"
    },
    {
      "inputs": [],
      "name": "membershipTokenContract",
      "outputs": [
        {
          "internalType": "contract IERC1155",
          "name": "",
          "type": "address"
        }
      ],
      "stateMutability": "view",
      "type": "function"
    },
    {
      "inputs": [],
      "name": "owner",
      "outputs": [
        {
          "internalType": "address",
          "name": "",
          "type": "address"
        }
      ],
      "stateMutability": "view",
      "type": "function"
    },
    {
      "inputs": [
        {
          "internalType": "uint256",
          "name": "",
          "type": "uint256"
        }
      ],
      "name": "provideTokensArray",
      "outputs": [
        {
          "internalType": "address",
          "name": "",
          "type": "address"
        }
      ],
      "stateMutability": "view",
      "type": "function"
    },
    {
      "inputs": [
        {
          "internalType": "uint256",
          "name": "tokenId",
          "type": "uint256"
        }
      ],
      "name": "removeBenefits",
      "outputs": [],
      "stateMutability": "nonpayable",
      "type": "function"
    },
    {
      "inputs": [
        {
          "internalType": "uint256",
          "name": "pos",
          "type": "uint256"
        }
      ],
      "name": "removeProvideTokens",
      "outputs": [],
      "stateMutability": "nonpayable",
      "type": "function"
    },
    {
      "inputs": [
        {
          "internalType": "address",
          "name": "token",
          "type": "address"
        }
      ],
      "name": "removeProvideTokens",
      "outputs": [],
      "stateMutability": "nonpayable",
      "type": "function"
    },
    {
      "inputs": [],
      "name": "renounceOwnership",
      "outputs": [],
      "stateMutability": "nonpayable",
      "type": "function"
    },
    {
      "inputs": [
        {
          "internalType": "uint256",
          "name": "pos",
          "type": "uint256"
        }
      ],
      "name": "repayment",
      "outputs": [],
      "stateMutability": "payable",
      "type": "function"
    },
    {
      "inputs": [
        {
          "internalType": "uint256",
          "name": "tokenId",
          "type": "uint256"
        },
        {
          "components": [
            {
              "internalType": "uint32",
              "name": "ratio",
              "type": "uint32"
            },
            {
              "internalType": "uint32",
              "name": "apr",
              "type": "uint32"
            },
            {
              "internalType": "uint64",
              "name": "validityTime",
              "type": "uint64"
            },
            {
              "internalType": "uint128",
              "name": "credit",
              "type": "uint128"
            }
          ],
          "internalType": "struct SssssmokinFinance.Benefits",
          "name": "benefits",
          "type": "tuple"
        }
      ],
      "name": "setBenefits",
      "outputs": [],
      "stateMutability": "nonpayable",
      "type": "function"
    },
    {
      "inputs": [
        {
          "internalType": "address",
          "name": "chainlink",
          "type": "address"
        }
      ],
      "name": "setETHChainLink",
      "outputs": [],
      "stateMutability": "nonpayable",
      "type": "function"
    },
    {
      "inputs": [
        {
          "internalType": "address",
          "name": "token",
          "type": "address"
        }
      ],
      "name": "setMemberToken",
      "outputs": [],
      "stateMutability": "nonpayable",
      "type": "function"
    },
    {
      "inputs": [
        {
          "internalType": "uint256[]",
          "name": "tokenId",
          "type": "uint256[]"
        },
        {
          "components": [
            {
              "internalType": "uint32",
              "name": "ratio",
              "type": "uint32"
            },
            {
              "internalType": "uint32",
              "name": "apr",
              "type": "uint32"
            },
            {
              "internalType": "uint64",
              "name": "validityTime",
              "type": "uint64"
            },
            {
              "internalType": "uint128",
              "name": "credit",
              "type": "uint128"
            }
          ],
          "internalType": "struct SssssmokinFinance.Benefits[]",
          "name": "benefits",
          "type": "tuple[]"
        }
      ],
      "name": "setMultiBenefits",
      "outputs": [],
      "stateMutability": "nonpayable",
      "type": "function"
    },
    {
      "inputs": [
        {
          "internalType": "address",
          "name": "token",
          "type": "address"
        },
        {
          "internalType": "address",
          "name": "chainlink",
          "type": "address"
        }
      ],
      "name": "setProvideTokens",
      "outputs": [],
      "stateMutability": "nonpayable",
      "type": "function"
    },
    {
      "inputs": [
        {
          "internalType": "address",
          "name": "token",
          "type": "address"
        }
      ],
      "name": "setShrimpToken",
      "outputs": [],
      "stateMutability": "nonpayable",
      "type": "function"
    },
    {
      "inputs": [
        {
          "internalType": "uint256[]",
          "name": "order",
          "type": "uint256[]"
        }
      ],
      "name": "setTokenIdOrder",
      "outputs": [],
      "stateMutability": "nonpayable",
      "type": "function"
    },
    {
      "inputs": [
        {
          "internalType": "uint256",
          "name": "",
          "type": "uint256"
        }
      ],
      "name": "tokenIdOrder",
      "outputs": [
        {
          "internalType": "uint256",
          "name": "",
          "type": "uint256"
        }
      ],
      "stateMutability": "view",
      "type": "function"
    },
    {
      "inputs": [
        {
          "internalType": "address",
          "name": "newOwner",
          "type": "address"
        }
      ],
      "name": "transferOwnership",
      "outputs": [],
      "stateMutability": "nonpayable",
      "type": "function"
    },
    {
      "inputs": [],
      "name": "weeeeToken",
      "outputs": [
        {
          "internalType": "contract IERC20",
          "name": "",
          "type": "address"
        }
      ],
      "stateMutability": "view",
      "type": "function"
    },
    {
      "stateMutability": "payable",
      "type": "receive"
    }
  ],
  "bytecode": "0x60806040523480156200001157600080fd5b50604051620057e7380380620057e7833981810160405281019062000037919062000338565b620000576200004b6200010660201b60201c565b6200010e60201b60201c565b6200007c738a753747a1fa494ec906ce90e9f37563a8af630e620001d260201b60201c565b81600260006101000a81548173ffffffffffffffffffffffffffffffffffffffff021916908373ffffffffffffffffffffffffffffffffffffffff16021790555080600160006101000a81548173ffffffffffffffffffffffffffffffffffffffff021916908373ffffffffffffffffffffffffffffffffffffffff160217905550505062000402565b600033905090565b60008060009054906101000a900473ffffffffffffffffffffffffffffffffffffffff169050816000806101000a81548173ffffffffffffffffffffffffffffffffffffffff021916908373ffffffffffffffffffffffffffffffffffffffff1602179055508173ffffffffffffffffffffffffffffffffffffffff168173ffffffffffffffffffffffffffffffffffffffff167f8be0079c531659141344cd1fd0a4f28419497f9722a3daafe3b4186f6b6457e060405160405180910390a35050565b620001e26200010660201b60201c565b73ffffffffffffffffffffffffffffffffffffffff1662000208620002a560201b60201c565b73ffffffffffffffffffffffffffffffffffffffff161462000261576040517f08c379a00000000000000000000000000000000000000000000000000000000081526004016200025890620003e0565b60405180910390fd5b80600560006101000a81548173ffffffffffffffffffffffffffffffffffffffff021916908373ffffffffffffffffffffffffffffffffffffffff16021790555050565b60008060009054906101000a900473ffffffffffffffffffffffffffffffffffffffff16905090565b600080fd5b600073ffffffffffffffffffffffffffffffffffffffff82169050919050565b60006200030082620002d3565b9050919050565b6200031281620002f3565b81146200031e57600080fd5b50565b600081519050620003328162000307565b92915050565b60008060408385031215620003525762000351620002ce565b5b6000620003628582860162000321565b9250506020620003758582860162000321565b9150509250929050565b600082825260208201905092915050565b7f4f776e61626c653a2063616c6c6572206973206e6f7420746865206f776e6572600082015250565b6000620003c86020836200037f565b9150620003d58262000390565b602082019050919050565b60006020820190508181036000830152620003fb81620003b9565b9050919050565b6153d580620004126000396000f3fe60806040526004361061021e5760003560e01c80636747b94811610123578063d5527268116100ab578063ee4106ee1161006f578063ee4106ee146107f3578063f2fde38b14610830578063f731c99914610859578063f9ab632c14610884578063fdb6b8ef146108c157610225565b8063d5527268146106ea578063da304e4d14610713578063e1fddd7614610750578063e370e70614610779578063e43f2b3b146107b657610225565b806391b4415e116100f257806391b4415e1461060757806395e5a64d14610632578063960f5aba1461065b578063bc2af67914610684578063d09ad090146106ad57610225565b80636747b9481461055c578063715018a61461059a5780637638f6d9146105b15780638da5cb5b146105dc57610225565b806346e5dec3116101a65780635358fbda116101755780635358fbda14610483578063592cee7a146104ac5780635a30b9b3146104d85780635ffeb50a146105035780636737b31e1461054057610225565b806346e5dec3146103c657806347e7ef24146103f1578063483c07ff1461041a57806349c3fd871461044657610225565b80631643580e116101ed5780631643580e146102e157806318467d2d1461030c5780631d63d40314610335578063398873da146103605780633a791b461461039d57610225565b806302ee7c4b14610227578063048a631f146102505780630ff5ee4314610279578063148d6791146102b657610225565b3661022557005b005b34801561023357600080fd5b5061024e60048036038101906102499190613c17565b6108ea565b005b34801561025c57600080fd5b5061027760048036038101906102729190613c17565b6109aa565b005b34801561028557600080fd5b506102a0600480360381019061029b9190613c17565b610a6a565b6040516102ad9190613d06565b60405180910390f35b3480156102c257600080fd5b506102cb610cd2565b6040516102d89190613e25565b60405180910390f35b3480156102ed57600080fd5b506102f6610e7e565b6040516103039190613f0f565b60405180910390f35b34801561031857600080fd5b50610333600480360381019061032e9190613f5d565b610ed6565b005b34801561034157600080fd5b5061034a611114565b6040516103579190613fe9565b60405180910390f35b34801561036c57600080fd5b5061038760048036038101906103829190613f5d565b61113a565b6040516103949190614013565b60405180910390f35b3480156103a957600080fd5b506103c460048036038101906103bf9190613c17565b61115e565b005b3480156103d257600080fd5b506103db61121e565b6040516103e8919061404f565b60405180910390f35b3480156103fd57600080fd5b506104186004803603810190610413919061406a565b611244565b005b34801561042657600080fd5b5061042f6117d6565b60405161043d9291906140df565b60405180910390f35b34801561045257600080fd5b5061046d60048036038101906104689190613f5d565b611895565b60405161047a9190614117565b60405180910390f35b34801561048f57600080fd5b506104aa60048036038101906104a59190613f5d565b6118d4565b005b3480156104b857600080fd5b506104c1611d51565b6040516104cf929190614132565b60405180910390f35b3480156104e457600080fd5b506104ed611db8565b6040516104fa919061428f565b60405180910390f35b34801561050f57600080fd5b5061052a6004803603810190610525919061406a565b611dcf565b6040516105379190614013565b60405180910390f35b61055a60048036038101906105559190613f5d565b61202f565b005b34801561056857600080fd5b50610583600480360381019061057e9190613c17565b61270f565b6040516105919291906140df565b60405180910390f35b3480156105a657600080fd5b506105af61284b565b005b3480156105bd57600080fd5b506105c66128d3565b6040516105d39190614013565b60405180910390f35b3480156105e857600080fd5b506105f16128ea565b6040516105fe9190614117565b60405180910390f35b34801561061357600080fd5b5061061c612913565b6040516106299190614360565b60405180910390f35b34801561063e57600080fd5b5061065960048036038101906106549190613f5d565b6129a1565b005b34801561066757600080fd5b50610682600480360381019061067d919061443d565b612aa2565b005b34801561069057600080fd5b506106ab60048036038101906106a691906144e2565b612b66565b005b3480156106b957600080fd5b506106d460048036038101906106cf9190613c17565b612b8d565b6040516106e1919061428f565b60405180910390f35b3480156106f657600080fd5b50610711600480360381019061070c9190613c17565b612d2d565b005b34801561071f57600080fd5b5061073a60048036038101906107359190613f5d565b612fc4565b6040516107479190614013565b60405180910390f35b34801561075c57600080fd5b5061077760048036038101906107729190614522565b613012565b005b34801561078557600080fd5b506107a0600480360381019061079b9190613f5d565b613028565b6040516107ad9190613d06565b60405180910390f35b3480156107c257600080fd5b506107dd60048036038101906107d89190613c17565b61311d565b6040516107ea9190614013565b60405180910390f35b3480156107ff57600080fd5b5061081a60048036038101906108159190613f5d565b613327565b6040516108279190614013565b60405180910390f35b34801561083c57600080fd5b5061085760048036038101906108529190613c17565b6134ca565b005b34801561086557600080fd5b5061086e6135c2565b60405161087b9190613d06565b60405180910390f35b34801561089057600080fd5b506108ab60048036038101906108a69190613c17565b6135df565b6040516108b8919061458a565b60405180910390f35b3480156108cd57600080fd5b506108e860048036038101906108e391906145a5565b613677565b005b6108f2613901565b73ffffffffffffffffffffffffffffffffffffffff166109106128ea565b73ffffffffffffffffffffffffffffffffffffffff1614610966576040517f08c379a000000000000000000000000000000000000000000000000000000000815260040161095d90614642565b60405180910390fd5b80600160006101000a81548173ffffffffffffffffffffffffffffffffffffffff021916908373ffffffffffffffffffffffffffffffffffffffff16021790555050565b6109b2613901565b73ffffffffffffffffffffffffffffffffffffffff166109d06128ea565b73ffffffffffffffffffffffffffffffffffffffff1614610a26576040517f08c379a0000000000000000000000000000000000000000000000000000000008152600401610a1d90614642565b60405180910390fd5b80600560006101000a81548173ffffffffffffffffffffffffffffffffffffffff021916908373ffffffffffffffffffffffffffffffffffffffff16021790555050565b610a72613aeb565b600060078054905067ffffffffffffffff811115610a9357610a92614662565b5b604051908082528060200260200182016040528015610ac15781602001602082028036833780820191505090505b50905060005b8151811015610b315783828281518110610ae457610ae3614691565b5b602002602001019073ffffffffffffffffffffffffffffffffffffffff16908173ffffffffffffffffffffffffffffffffffffffff16815250508080610b29906146ef565b915050610ac7565b506000600160009054906101000a900473ffffffffffffffffffffffffffffffffffffffff1673ffffffffffffffffffffffffffffffffffffffff16634e1273f48360076040518363ffffffff1660e01b8152600401610b9292919061480e565b60006040518083038186803b158015610baa57600080fd5b505afa158015610bbe573d6000803e3d6000fd5b505050506040513d6000823e3d601f19601f82011682018060405250810190610be7919061497a565b905060005b8151811015610c9a576000828281518110610c0a57610c09614691565b5b60200260200101511415610c1d57610c87565b6000610c4660078381548110610c3657610c35614691565b5b9060005260206000200154613028565b90506000816040015167ffffffffffffffff1614158015610c74575042816040015167ffffffffffffffff16115b15610c855780945050505050610ccd565b505b8080610c92906146ef565b915050610bec565b506040517f452f604b00000000000000000000000000000000000000000000000000000000815260040160405180910390fd5b919050565b6060600060078054905067ffffffffffffffff811115610cf557610cf4614662565b5b604051908082528060200260200182016040528015610d2e57816020015b610d1b613aeb565b815260200190600190039081610d135790505b50905060005b600780549050811015610e76576006600060078381548110610d5957610d58614691565b5b906000526020600020015481526020019081526020016000206040518060800160405290816000820160009054906101000a900463ffffffff1663ffffffff1663ffffffff1681526020016000820160049054906101000a900463ffffffff1663ffffffff1663ffffffff1681526020016000820160089054906101000a900467ffffffffffffffff1667ffffffffffffffff1667ffffffffffffffff1681526020016000820160109054906101000a90046fffffffffffffffffffffffffffffffff166fffffffffffffffffffffffffffffffff166fffffffffffffffffffffffffffffffff1681525050828281518110610e5857610e57614691565b5b60200260200101819052508080610e6e906146ef565b915050610d34565b508091505090565b60606007805480602002602001604051908101604052809291908181526020018280548015610ecc57602002820191906000526020600020905b815481526020019060010190808311610eb8575b5050505050905090565b610ede613901565b73ffffffffffffffffffffffffffffffffffffffff16610efc6128ea565b73ffffffffffffffffffffffffffffffffffffffff1614610f52576040517f08c379a0000000000000000000000000000000000000000000000000000000008152600401610f4990614642565b60405180910390fd5b60006003600060048481548110610f6c57610f6b614691565b5b9060005260206000200160009054906101000a900473ffffffffffffffffffffffffffffffffffffffff1673ffffffffffffffffffffffffffffffffffffffff1673ffffffffffffffffffffffffffffffffffffffff16815260200190815260200160002060006101000a81548173ffffffffffffffffffffffffffffffffffffffff021916908373ffffffffffffffffffffffffffffffffffffffff1602179055506000600160048054905061102391906149c3565b9050808210156110c9576004818154811061104157611040614691565b5b9060005260206000200160009054906101000a900473ffffffffffffffffffffffffffffffffffffffff16600483815481106110805761107f614691565b5b9060005260206000200160006101000a81548173ffffffffffffffffffffffffffffffffffffffff021916908373ffffffffffffffffffffffffffffffffffffffff1602179055505b60048054806110db576110da6149f7565b5b6001900381819060005260206000200160006101000a81549073ffffffffffffffffffffffffffffffffffffffff021916905590555050565b600160009054906101000a900473ffffffffffffffffffffffffffffffffffffffff1681565b6007818154811061114a57600080fd5b906000526020600020016000915090505481565b611166613901565b73ffffffffffffffffffffffffffffffffffffffff166111846128ea565b73ffffffffffffffffffffffffffffffffffffffff16146111da576040517f08c379a00000000000000000000000000000000000000000000000000000000081526004016111d190614642565b60405180910390fd5b80600260006101000a81548173ffffffffffffffffffffffffffffffffffffffff021916908373ffffffffffffffffffffffffffffffffffffffff16021790555050565b600260009054906101000a900473ffffffffffffffffffffffffffffffffffffffff1681565b81600073ffffffffffffffffffffffffffffffffffffffff16600360008373ffffffffffffffffffffffffffffffffffffffff1673ffffffffffffffffffffffffffffffffffffffff16815260200190815260200160002060009054906101000a900473ffffffffffffffffffffffffffffffffffffffff1673ffffffffffffffffffffffffffffffffffffffff16141561130b576040517f4857c89900000000000000000000000000000000000000000000000000000000815260040160405180910390fd5b60006113156135c2565b90506000836113226128d3565b61132c9190614a26565b90508082606001516fffffffffffffffffffffffffffffffff16101561137e576040517fa7fd379200000000000000000000000000000000000000000000000000000000815260040160405180910390fd5b60006064836000015163ffffffff16866113989190614a7c565b6113a29190614b05565b905060006113b08783611dcf565b9050600087905060008173ffffffffffffffffffffffffffffffffffffffff166370a08231306040518263ffffffff1660e01b81526004016113f29190614117565b60206040518083038186803b15801561140a57600080fd5b505afa15801561141e573d6000803e3d6000fd5b505050506040513d601f19601f820116820180604052508101906114429190614b36565b90508281101561147e576040517f3633f81800000000000000000000000000000000000000000000000000000000815260040160405180910390fd5b600260009054906101000a900473ffffffffffffffffffffffffffffffffffffffff1673ffffffffffffffffffffffffffffffffffffffff166323b872dd6114c4613901565b308b6040518463ffffffff1660e01b81526004016114e493929190614b63565b602060405180830381600087803b1580156114fe57600080fd5b505af1158015611512573d6000803e3d6000fd5b505050506040513d601f19601f820116820180604052508101906115369190614bc6565b508173ffffffffffffffffffffffffffffffffffffffff1663a9059cbb61155b613901565b856040518363ffffffff1660e01b8152600401611579929190614bf3565b602060405180830381600087803b15801561159357600080fd5b505af11580156115a7573d6000803e3d6000fd5b505050506040513d601f19601f820116820180604052508101906115cb9190614bc6565b50600860006115d8613901565b73ffffffffffffffffffffffffffffffffffffffff1673ffffffffffffffffffffffffffffffffffffffff1681526020019081526020016000206040518060a00160405280886020015163ffffffff1681526020014267ffffffffffffffff1681526020018a6fffffffffffffffffffffffffffffffff1681526020018581526020018b73ffffffffffffffffffffffffffffffffffffffff16815250908060018154018082558091505060019003906000526020600020906003020160009091909190915060008201518160000160006101000a81548163ffffffff021916908363ffffffff16021790555060208201518160000160046101000a81548167ffffffffffffffff021916908367ffffffffffffffff160217905550604082015181600001600c6101000a8154816fffffffffffffffffffffffffffffffff02191690836fffffffffffffffffffffffffffffffff1602179055506060820151816001015560808201518160020160006101000a81548173ffffffffffffffffffffffffffffffffffffffff021916908373ffffffffffffffffffffffffffffffffffffffff1602179055505050828973ffffffffffffffffffffffffffffffffffffffff16897f707820251fb46777f43913e0f79a5bfe897ba7feb06089f3ed695614d5b5dd3e60405160405180910390a4505050505050505050565b600080600073ffffffffffffffffffffffffffffffffffffffff16600560009054906101000a900473ffffffffffffffffffffffffffffffffffffffff1673ffffffffffffffffffffffffffffffffffffffff161415611862576040517f4857c89900000000000000000000000000000000000000000000000000000000815260040160405180910390fd5b61188d600560009054906101000a900473ffffffffffffffffffffffffffffffffffffffff16613909565b915091509091565b600481815481106118a557600080fd5b906000526020600020016000915054906101000a900473ffffffffffffffffffffffffffffffffffffffff1681565b600073ffffffffffffffffffffffffffffffffffffffff16600560009054906101000a900473ffffffffffffffffffffffffffffffffffffffff1673ffffffffffffffffffffffffffffffffffffffff16141561195d576040517f4857c89900000000000000000000000000000000000000000000000000000000815260040160405180910390fd5b60006119676135c2565b90506000826119746128d3565b61197e9190614a26565b90508082606001516fffffffffffffffffffffffffffffffff1610156119d0576040517fa7fd379200000000000000000000000000000000000000000000000000000000815260040160405180910390fd5b60006064836000015163ffffffff16856119ea9190614a7c565b6119f49190614b05565b90506000611a0182613327565b90506000309050818173ffffffffffffffffffffffffffffffffffffffff16311015611a59576040517f3633f81800000000000000000000000000000000000000000000000000000000815260040160405180910390fd5b600260009054906101000a900473ffffffffffffffffffffffffffffffffffffffff1673ffffffffffffffffffffffffffffffffffffffff166323b872dd611a9f613901565b30896040518463ffffffff1660e01b8152600401611abf93929190614b63565b602060405180830381600087803b158015611ad957600080fd5b505af1158015611aed573d6000803e3d6000fd5b505050506040513d601f19601f82011682018060405250810190611b119190614bc6565b50611b1a613901565b73ffffffffffffffffffffffffffffffffffffffff166108fc839081150290604051600060405180830381858888f19350505050158015611b5f573d6000803e3d6000fd5b5060086000611b6c613901565b73ffffffffffffffffffffffffffffffffffffffff1673ffffffffffffffffffffffffffffffffffffffff1681526020019081526020016000206040518060a00160405280876020015163ffffffff1681526020014267ffffffffffffffff168152602001886fffffffffffffffffffffffffffffffff168152602001848152602001600073ffffffffffffffffffffffffffffffffffffffff16815250908060018154018082558091505060019003906000526020600020906003020160009091909190915060008201518160000160006101000a81548163ffffffff021916908363ffffffff16021790555060208201518160000160046101000a81548167ffffffffffffffff021916908367ffffffffffffffff160217905550604082015181600001600c6101000a8154816fffffffffffffffffffffffffffffffff02191690836fffffffffffffffffffffffffffffffff1602179055506060820151816001015560808201518160020160006101000a81548173ffffffffffffffffffffffffffffffffffffffff021916908373ffffffffffffffffffffffffffffffffffffffff160217905550505081867f33b118750ab0273342b56cb6387e0ade9135c54ad0525ad041284f2ed6adccf960405160405180910390a3505050505050565b6060806007611d5e610cd2565b81805480602002602001604051908101604052809291908181526020018280548015611da957602002820191906000526020600020905b815481526020019060010190808311611d95575b50505050509150915091509091565b6060611dca611dc5613901565b612b8d565b905090565b600080600560009054906101000a900473ffffffffffffffffffffffffffffffffffffffff16905060008173ffffffffffffffffffffffffffffffffffffffff1663313ce5676040518163ffffffff1660e01b815260040160206040518083038186803b158015611e3f57600080fd5b505afa158015611e53573d6000803e3d6000fd5b505050506040513d601f19601f82011682018060405250810190611e779190614c48565b905060008273ffffffffffffffffffffffffffffffffffffffff1663feaf968c6040518163ffffffff1660e01b815260040160a06040518083038186803b158015611ec157600080fd5b505afa158015611ed5573d6000803e3d6000fd5b505050506040513d601f19601f82011682018060405250810190611ef99190614ce3565b5050509150506000811215611f39576040517ebfc92100000000000000000000000000000000000000000000000000000000815260040160405180910390fd5b600081905060008184600a611f4e9190614e91565b88611f599190614a7c565b611f639190614b05565b9050600088905060008173ffffffffffffffffffffffffffffffffffffffff1663313ce5676040518163ffffffff1660e01b815260040160206040518083038186803b158015611fb257600080fd5b505afa158015611fc6573d6000803e3d6000fd5b505050506040513d601f19601f82011682018060405250810190611fea9190614c48565b905060128160ff16101561201f578060126120059190614edc565b600a6120119190614e91565b8361201c9190614b05565b92505b8297505050505050505092915050565b60006008600061203d613901565b73ffffffffffffffffffffffffffffffffffffffff1673ffffffffffffffffffffffffffffffffffffffff1681526020019081526020016000209050808054905082106120bf576040517f08c379a00000000000000000000000000000000000000000000000000000000081526004016120b690614f5c565b60405180910390fd5b60008183815481106120d4576120d3614691565b5b90600052602060002090600302016040518060a00160405290816000820160009054906101000a900463ffffffff1663ffffffff1663ffffffff1681526020016000820160049054906101000a900467ffffffffffffffff1667ffffffffffffffff1667ffffffffffffffff16815260200160008201600c9054906101000a90046fffffffffffffffffffffffffffffffff166fffffffffffffffffffffffffffffffff166fffffffffffffffffffffffffffffffff168152602001600182015481526020016002820160009054906101000a900473ffffffffffffffffffffffffffffffffffffffff1673ffffffffffffffffffffffffffffffffffffffff1673ffffffffffffffffffffffffffffffffffffffff168152505090506000816020015167ffffffffffffffff164261220d91906149c3565b9050600063bbf81e00836000015163ffffffff168385604001516fffffffffffffffffffffffffffffffff166122439190614a7c565b61224d9190614a7c565b6122579190614b05565b9050600073ffffffffffffffffffffffffffffffffffffffff16836080015173ffffffffffffffffffffffffffffffffffffffff161461233b576000836080015190508073ffffffffffffffffffffffffffffffffffffffff166323b872dd6122be613901565b3087606001516040518463ffffffff1660e01b81526004016122e293929190614b63565b602060405180830381600087803b1580156122fc57600080fd5b505af1158015612310573d6000803e3d6000fd5b505050506040513d601f19601f820116820180604052508101906123349190614bc6565b5050612379565b82606001513414612378576040517f329099d800000000000000000000000000000000000000000000000000000000815260040160405180910390fd5b5b60008184604001516fffffffffffffffffffffffffffffffff161115612477578184604001516fffffffffffffffffffffffffffffffff166123bb91906149c3565b9050600260009054906101000a900473ffffffffffffffffffffffffffffffffffffffff1673ffffffffffffffffffffffffffffffffffffffff166323b872dd30612404613901565b846040518463ffffffff1660e01b815260040161242393929190614b63565b602060405180830381600087803b15801561243d57600080fd5b505af1158015612451573d6000803e3d6000fd5b505050506040513d601f19601f820116820180604052508101906124759190614bc6565b505b60006001868054905061248a91906149c3565b905080871015612620578581815481106124a7576124a6614691565b5b90600052602060002090600302018688815481106124c8576124c7614691565b5b90600052602060002090600302016000820160009054906101000a900463ffffffff168160000160006101000a81548163ffffffff021916908363ffffffff1602179055506000820160049054906101000a900467ffffffffffffffff168160000160046101000a81548167ffffffffffffffff021916908367ffffffffffffffff16021790555060008201600c9054906101000a90046fffffffffffffffffffffffffffffffff1681600001600c6101000a8154816fffffffffffffffffffffffffffffffff02191690836fffffffffffffffffffffffffffffffff160217905550600182015481600101556002820160009054906101000a900473ffffffffffffffffffffffffffffffffffffffff168160020160006101000a81548173ffffffffffffffffffffffffffffffffffffffff021916908373ffffffffffffffffffffffffffffffffffffffff1602179055509050505b85805480612631576126306149f7565b5b6001900381819060005260206000209060030201600080820160006101000a81549063ffffffff02191690556000820160046101000a81549067ffffffffffffffff021916905560008201600c6101000a8154906fffffffffffffffffffffffffffffffff021916905560018201600090556002820160006101000a81549073ffffffffffffffffffffffffffffffffffffffff021916905550509055817fec5d3efe21b7ad3fd9e0536b321f6ac73144e22f136f959d00d5b05a4eb28aa6886040516126fe9190614013565b60405180910390a250505050505050565b60008082600073ffffffffffffffffffffffffffffffffffffffff16600360008373ffffffffffffffffffffffffffffffffffffffff1673ffffffffffffffffffffffffffffffffffffffff16815260200190815260200160002060009054906101000a900473ffffffffffffffffffffffffffffffffffffffff1673ffffffffffffffffffffffffffffffffffffffff1614156127d9576040517f4857c89900000000000000000000000000000000000000000000000000000000815260040160405180910390fd5b612841600360008673ffffffffffffffffffffffffffffffffffffffff1673ffffffffffffffffffffffffffffffffffffffff16815260200190815260200160002060009054906101000a900473ffffffffffffffffffffffffffffffffffffffff16613909565b9250925050915091565b612853613901565b73ffffffffffffffffffffffffffffffffffffffff166128716128ea565b73ffffffffffffffffffffffffffffffffffffffff16146128c7576040517f08c379a00000000000000000000000000000000000000000000000000000000081526004016128be90614642565b60405180910390fd5b6128d16000613a27565b565b60006128e56128e0613901565b61311d565b905090565b60008060009054906101000a900473ffffffffffffffffffffffffffffffffffffffff16905090565b6060600480548060200260200160405190810160405280929190818152602001828054801561299757602002820191906000526020600020905b8160009054906101000a900473ffffffffffffffffffffffffffffffffffffffff1673ffffffffffffffffffffffffffffffffffffffff168152602001906001019080831161294d575b5050505050905090565b6129a9613901565b73ffffffffffffffffffffffffffffffffffffffff166129c76128ea565b73ffffffffffffffffffffffffffffffffffffffff1614612a1d576040517f08c379a0000000000000000000000000000000000000000000000000000000008152600401612a1490614642565b60405180910390fd5b60066000828152602001908152602001600020600080820160006101000a81549063ffffffff02191690556000820160046101000a81549063ffffffff02191690556000820160086101000a81549067ffffffffffffffff02191690556000820160106101000a8154906fffffffffffffffffffffffffffffffff0219169055505050565b818190508484905014612aea576040517f08c379a0000000000000000000000000000000000000000000000000000000008152600401612ae190614fc8565b60405180910390fd5b60005b84849050811015612b5f57828282818110612b0b57612b0a614691565b5b90506080020160066000878785818110612b2857612b27614691565b5b9050602002013581526020019081526020016000208181612b4991906152ff565b9050508080612b57906146ef565b915050612aed565b5050505050565b80600660008481526020019081526020016000208181612b8691906152ff565b9050505050565b6060600860008373ffffffffffffffffffffffffffffffffffffffff1673ffffffffffffffffffffffffffffffffffffffff168152602001908152602001600020805480602002602001604051908101604052809291908181526020016000905b82821015612d2257838290600052602060002090600302016040518060a00160405290816000820160009054906101000a900463ffffffff1663ffffffff1663ffffffff1681526020016000820160049054906101000a900467ffffffffffffffff1667ffffffffffffffff1667ffffffffffffffff16815260200160008201600c9054906101000a90046fffffffffffffffffffffffffffffffff166fffffffffffffffffffffffffffffffff166fffffffffffffffffffffffffffffffff168152602001600182015481526020016002820160009054906101000a900473ffffffffffffffffffffffffffffffffffffffff1673ffffffffffffffffffffffffffffffffffffffff1673ffffffffffffffffffffffffffffffffffffffff168152505081526020019060010190612bee565b505050509050919050565b612d35613901565b73ffffffffffffffffffffffffffffffffffffffff16612d536128ea565b73ffffffffffffffffffffffffffffffffffffffff1614612da9576040517f08c379a0000000000000000000000000000000000000000000000000000000008152600401612da090614642565b60405180910390fd5b6000600360008373ffffffffffffffffffffffffffffffffffffffff1673ffffffffffffffffffffffffffffffffffffffff16815260200190815260200160002060006101000a81548173ffffffffffffffffffffffffffffffffffffffff021916908373ffffffffffffffffffffffffffffffffffffffff16021790555060005b600480549050811015612fc0578173ffffffffffffffffffffffffffffffffffffffff1660048281548110612e6357612e62614691565b5b9060005260206000200160009054906101000a900473ffffffffffffffffffffffffffffffffffffffff1673ffffffffffffffffffffffffffffffffffffffff161415612fad5760006001600480549050612ebe91906149c3565b905080821015612f645760048181548110612edc57612edb614691565b5b9060005260206000200160009054906101000a900473ffffffffffffffffffffffffffffffffffffffff1660048381548110612f1b57612f1a614691565b5b9060005260206000200160006101000a81548173ffffffffffffffffffffffffffffffffffffffff021916908373ffffffffffffffffffffffffffffffffffffffff1602179055505b6004805480612f7657612f756149f7565b5b6001900381819060005260206000200160006101000a81549073ffffffffffffffffffffffffffffffffffffffff02191690559055505b8080612fb8906146ef565b915050612e2b565b5050565b60006006600083815260200190815260200160002060000160109054906101000a90046fffffffffffffffffffffffffffffffff166fffffffffffffffffffffffffffffffff169050919050565b818160079190613023929190613b3b565b505050565b613030613aeb565b600660008381526020019081526020016000206040518060800160405290816000820160009054906101000a900463ffffffff1663ffffffff1663ffffffff1681526020016000820160049054906101000a900463ffffffff1663ffffffff1663ffffffff1681526020016000820160089054906101000a900467ffffffffffffffff1667ffffffffffffffff1667ffffffffffffffff1681526020016000820160109054906101000a90046fffffffffffffffffffffffffffffffff166fffffffffffffffffffffffffffffffff166fffffffffffffffffffffffffffffffff16815250509050919050565b600080600090506000600860008573ffffffffffffffffffffffffffffffffffffffff1673ffffffffffffffffffffffffffffffffffffffff168152602001908152602001600020805480602002602001604051908101604052809291908181526020016000905b828210156132b957838290600052602060002090600302016040518060a00160405290816000820160009054906101000a900463ffffffff1663ffffffff1663ffffffff1681526020016000820160049054906101000a900467ffffffffffffffff1667ffffffffffffffff1667ffffffffffffffff16815260200160008201600c9054906101000a90046fffffffffffffffffffffffffffffffff166fffffffffffffffffffffffffffffffff166fffffffffffffffffffffffffffffffff168152602001600182015481526020016002820160009054906101000a900473ffffffffffffffffffffffffffffffffffffffff1673ffffffffffffffffffffffffffffffffffffffff1673ffffffffffffffffffffffffffffffffffffffff168152505081526020019060010190613185565b50505050905060005b815181101561331c578181815181106132de576132dd614691565b5b6020026020010151604001516fffffffffffffffffffffffffffffffff16836133079190614a26565b92508080613314906146ef565b9150506132c2565b508192505050919050565b600080600560009054906101000a900473ffffffffffffffffffffffffffffffffffffffff16905060008173ffffffffffffffffffffffffffffffffffffffff1663313ce5676040518163ffffffff1660e01b815260040160206040518083038186803b15801561339757600080fd5b505afa1580156133ab573d6000803e3d6000fd5b505050506040513d601f19601f820116820180604052508101906133cf9190614c48565b905060008273ffffffffffffffffffffffffffffffffffffffff1663feaf968c6040518163ffffffff1660e01b815260040160a06040518083038186803b15801561341957600080fd5b505afa15801561342d573d6000803e3d6000fd5b505050506040513d601f19601f820116820180604052508101906134519190614ce3565b5050509150506000811215613491576040517ebfc92100000000000000000000000000000000000000000000000000000000815260040160405180910390fd5b600081905060008184600a6134a69190614e91565b886134b19190614a7c565b6134bb9190614b05565b90508095505050505050919050565b6134d2613901565b73ffffffffffffffffffffffffffffffffffffffff166134f06128ea565b73ffffffffffffffffffffffffffffffffffffffff1614613546576040517f08c379a000000000000000000000000000000000000000000000000000000000815260040161353d90614642565b60405180910390fd5b600073ffffffffffffffffffffffffffffffffffffffff168173ffffffffffffffffffffffffffffffffffffffff1614156135b6576040517f08c379a00000000000000000000000000000000000000000000000000000000081526004016135ad9061537f565b60405180910390fd5b6135bf81613a27565b50565b6135ca613aeb565b6135da6135d5613901565b610a6a565b905090565b60008073ffffffffffffffffffffffffffffffffffffffff16600360008473ffffffffffffffffffffffffffffffffffffffff1673ffffffffffffffffffffffffffffffffffffffff16815260200190815260200160002060009054906101000a900473ffffffffffffffffffffffffffffffffffffffff1673ffffffffffffffffffffffffffffffffffffffff1614159050919050565b60008073ffffffffffffffffffffffffffffffffffffffff168373ffffffffffffffffffffffffffffffffffffffff1614156136df576040517f65bea36000000000000000000000000000000000000000000000000000000000815260040160405180910390fd5b8073ffffffffffffffffffffffffffffffffffffffff168273ffffffffffffffffffffffffffffffffffffffff161415613745576040517f14f5282000000000000000000000000000000000000000000000000000000000815260040160405180910390fd5b6000600360008573ffffffffffffffffffffffffffffffffffffffff1673ffffffffffffffffffffffffffffffffffffffff16815260200190815260200160002060009054906101000a900473ffffffffffffffffffffffffffffffffffffffff1690508073ffffffffffffffffffffffffffffffffffffffff168373ffffffffffffffffffffffffffffffffffffffff1614156137e45750506138fd565b82600360008673ffffffffffffffffffffffffffffffffffffffff1673ffffffffffffffffffffffffffffffffffffffff16815260200190815260200160002060006101000a81548173ffffffffffffffffffffffffffffffffffffffff021916908373ffffffffffffffffffffffffffffffffffffffff1602179055508173ffffffffffffffffffffffffffffffffffffffff168173ffffffffffffffffffffffffffffffffffffffff1614156138fa576004849080600181540180825580915050600190039060005260206000200160009091909190916101000a81548173ffffffffffffffffffffffffffffffffffffffff021916908373ffffffffffffffffffffffffffffffffffffffff1602179055505b50505b5050565b600033905090565b600080600083905060008173ffffffffffffffffffffffffffffffffffffffff1663313ce5676040518163ffffffff1660e01b815260040160206040518083038186803b15801561395957600080fd5b505afa15801561396d573d6000803e3d6000fd5b505050506040513d601f19601f820116820180604052508101906139919190614c48565b905060008273ffffffffffffffffffffffffffffffffffffffff1663feaf968c6040518163ffffffff1660e01b815260040160a06040518083038186803b1580156139db57600080fd5b505afa1580156139ef573d6000803e3d6000fd5b505050506040513d601f19601f82011682018060405250810190613a139190614ce3565b505050915050808294509450505050915091565b60008060009054906101000a900473ffffffffffffffffffffffffffffffffffffffff169050816000806101000a81548173ffffffffffffffffffffffffffffffffffffffff021916908373ffffffffffffffffffffffffffffffffffffffff1602179055508173ffffffffffffffffffffffffffffffffffffffff168173ffffffffffffffffffffffffffffffffffffffff167f8be0079c531659141344cd1fd0a4f28419497f9722a3daafe3b4186f6b6457e060405160405180910390a35050565b6040518060800160405280600063ffffffff168152602001600063ffffffff168152602001600067ffffffffffffffff16815260200160006fffffffffffffffffffffffffffffffff1681525090565b828054828255906000526020600020908101928215613b77579160200282015b82811115613b76578235825591602001919060010190613b5b565b5b509050613b849190613b88565b5090565b5b80821115613ba1576000816000905550600101613b89565b5090565b6000604051905090565b600080fd5b600080fd5b600073ffffffffffffffffffffffffffffffffffffffff82169050919050565b6000613be482613bb9565b9050919050565b613bf481613bd9565b8114613bff57600080fd5b50565b600081359050613c1181613beb565b92915050565b600060208284031215613c2d57613c2c613baf565b5b6000613c3b84828501613c02565b91505092915050565b600063ffffffff82169050919050565b613c5d81613c44565b82525050565b600067ffffffffffffffff82169050919050565b613c8081613c63565b82525050565b60006fffffffffffffffffffffffffffffffff82169050919050565b613cab81613c86565b82525050565b608082016000820151613cc76000850182613c54565b506020820151613cda6020850182613c54565b506040820151613ced6040850182613c77565b506060820151613d006060850182613ca2565b50505050565b6000608082019050613d1b6000830184613cb1565b92915050565b600081519050919050565b600082825260208201905092915050565b6000819050602082019050919050565b608082016000820151613d636000850182613c54565b506020820151613d766020850182613c54565b506040820151613d896040850182613c77565b506060820151613d9c6060850182613ca2565b50505050565b6000613dae8383613d4d565b60808301905092915050565b6000602082019050919050565b6000613dd282613d21565b613ddc8185613d2c565b9350613de783613d3d565b8060005b83811015613e18578151613dff8882613da2565b9750613e0a83613dba565b925050600181019050613deb565b5085935050505092915050565b60006020820190508181036000830152613e3f8184613dc7565b905092915050565b600081519050919050565b600082825260208201905092915050565b6000819050602082019050919050565b6000819050919050565b613e8681613e73565b82525050565b6000613e988383613e7d565b60208301905092915050565b6000602082019050919050565b6000613ebc82613e47565b613ec68185613e52565b9350613ed183613e63565b8060005b83811015613f02578151613ee98882613e8c565b9750613ef483613ea4565b925050600181019050613ed5565b5085935050505092915050565b60006020820190508181036000830152613f298184613eb1565b905092915050565b613f3a81613e73565b8114613f4557600080fd5b50565b600081359050613f5781613f31565b92915050565b600060208284031215613f7357613f72613baf565b5b6000613f8184828501613f48565b91505092915050565b6000819050919050565b6000613faf613faa613fa584613bb9565b613f8a565b613bb9565b9050919050565b6000613fc182613f94565b9050919050565b6000613fd382613fb6565b9050919050565b613fe381613fc8565b82525050565b6000602082019050613ffe6000830184613fda565b92915050565b61400d81613e73565b82525050565b60006020820190506140286000830184614004565b92915050565b600061403982613fb6565b9050919050565b6140498161402e565b82525050565b60006020820190506140646000830184614040565b92915050565b6000806040838503121561408157614080613baf565b5b600061408f85828601613c02565b92505060206140a085828601613f48565b9150509250929050565b6000819050919050565b6140bd816140aa565b82525050565b600060ff82169050919050565b6140d9816140c3565b82525050565b60006040820190506140f460008301856140b4565b61410160208301846140d0565b9392505050565b61411181613bd9565b82525050565b600060208201905061412c6000830184614108565b92915050565b6000604082019050818103600083015261414c8185613eb1565b905081810360208301526141608184613dc7565b90509392505050565b600081519050919050565b600082825260208201905092915050565b6000819050602082019050919050565b61419e81613bd9565b82525050565b60a0820160008201516141ba6000850182613c54565b5060208201516141cd6020850182613c77565b5060408201516141e06040850182613ca2565b5060608201516141f36060850182613e7d565b5060808201516142066080850182614195565b50505050565b600061421883836141a4565b60a08301905092915050565b6000602082019050919050565b600061423c82614169565b6142468185614174565b935061425183614185565b8060005b83811015614282578151614269888261420c565b975061427483614224565b925050600181019050614255565b5085935050505092915050565b600060208201905081810360008301526142a98184614231565b905092915050565b600081519050919050565b600082825260208201905092915050565b6000819050602082019050919050565b60006142e98383614195565b60208301905092915050565b6000602082019050919050565b600061430d826142b1565b61431781856142bc565b9350614322836142cd565b8060005b8381101561435357815161433a88826142dd565b9750614345836142f5565b925050600181019050614326565b5085935050505092915050565b6000602082019050818103600083015261437a8184614302565b905092915050565b600080fd5b600080fd5b600080fd5b60008083601f8401126143a7576143a6614382565b5b8235905067ffffffffffffffff8111156143c4576143c3614387565b5b6020830191508360208202830111156143e0576143df61438c565b5b9250929050565b60008083601f8401126143fd576143fc614382565b5b8235905067ffffffffffffffff81111561441a57614419614387565b5b6020830191508360808202830111156144365761443561438c565b5b9250929050565b6000806000806040858703121561445757614456613baf565b5b600085013567ffffffffffffffff81111561447557614474613bb4565b5b61448187828801614391565b9450945050602085013567ffffffffffffffff8111156144a4576144a3613bb4565b5b6144b0878288016143e7565b925092505092959194509250565b600080fd5b6000608082840312156144d9576144d86144be565b5b81905092915050565b60008060a083850312156144f9576144f8613baf565b5b600061450785828601613f48565b9250506020614518858286016144c3565b9150509250929050565b6000806020838503121561453957614538613baf565b5b600083013567ffffffffffffffff81111561455757614556613bb4565b5b61456385828601614391565b92509250509250929050565b60008115159050919050565b6145848161456f565b82525050565b600060208201905061459f600083018461457b565b92915050565b600080604083850312156145bc576145bb613baf565b5b60006145ca85828601613c02565b92505060206145db85828601613c02565b9150509250929050565b600082825260208201905092915050565b7f4f776e61626c653a2063616c6c6572206973206e6f7420746865206f776e6572600082015250565b600061462c6020836145e5565b9150614637826145f6565b602082019050919050565b6000602082019050818103600083015261465b8161461f565b9050919050565b7f4e487b7100000000000000000000000000000000000000000000000000000000600052604160045260246000fd5b7f4e487b7100000000000000000000000000000000000000000000000000000000600052603260045260246000fd5b7f4e487b7100000000000000000000000000000000000000000000000000000000600052601160045260246000fd5b60006146fa82613e73565b91507fffffffffffffffffffffffffffffffffffffffffffffffffffffffffffffffff82141561472d5761472c6146c0565b5b600182019050919050565b600081549050919050565b60008190508160005260206000209050919050565b60008160001c9050919050565b6000819050919050565b600061478261477d83614758565b614765565b9050919050565b6000614795825461476f565b9050919050565b6000600182019050919050565b60006147b482614738565b6147be8185613e52565b93506147c983614743565b8060005b83811015614801576147de82614789565b6147e88882613e8c565b97506147f38361479c565b9250506001810190506147cd565b5085935050505092915050565b600060408201905081810360008301526148288185614302565b9050818103602083015261483c81846147a9565b90509392505050565b6000601f19601f8301169050919050565b61485f82614845565b810181811067ffffffffffffffff8211171561487e5761487d614662565b5b80604052505050565b6000614891613ba5565b905061489d8282614856565b919050565b600067ffffffffffffffff8211156148bd576148bc614662565b5b602082029050602081019050919050565b6000815190506148dd81613f31565b92915050565b60006148f66148f1846148a2565b614887565b905080838252602082019050602084028301858111156149195761491861438c565b5b835b81811015614942578061492e88826148ce565b84526020840193505060208101905061491b565b5050509392505050565b600082601f83011261496157614960614382565b5b81516149718482602086016148e3565b91505092915050565b6000602082840312156149905761498f613baf565b5b600082015167ffffffffffffffff8111156149ae576149ad613bb4565b5b6149ba8482850161494c565b91505092915050565b60006149ce82613e73565b91506149d983613e73565b9250828210156149ec576149eb6146c0565b5b828203905092915050565b7f4e487b7100000000000000000000000000000000000000000000000000000000600052603160045260246000fd5b6000614a3182613e73565b9150614a3c83613e73565b9250827fffffffffffffffffffffffffffffffffffffffffffffffffffffffffffffffff03821115614a7157614a706146c0565b5b828201905092915050565b6000614a8782613e73565b9150614a9283613e73565b9250817fffffffffffffffffffffffffffffffffffffffffffffffffffffffffffffffff0483118215151615614acb57614aca6146c0565b5b828202905092915050565b7f4e487b7100000000000000000000000000000000000000000000000000000000600052601260045260246000fd5b6000614b1082613e73565b9150614b1b83613e73565b925082614b2b57614b2a614ad6565b5b828204905092915050565b600060208284031215614b4c57614b4b613baf565b5b6000614b5a848285016148ce565b91505092915050565b6000606082019050614b786000830186614108565b614b856020830185614108565b614b926040830184614004565b949350505050565b614ba38161456f565b8114614bae57600080fd5b50565b600081519050614bc081614b9a565b92915050565b600060208284031215614bdc57614bdb613baf565b5b6000614bea84828501614bb1565b91505092915050565b6000604082019050614c086000830185614108565b614c156020830184614004565b9392505050565b614c25816140c3565b8114614c3057600080fd5b50565b600081519050614c4281614c1c565b92915050565b600060208284031215614c5e57614c5d613baf565b5b6000614c6c84828501614c33565b91505092915050565b600069ffffffffffffffffffff82169050919050565b614c9481614c75565b8114614c9f57600080fd5b50565b600081519050614cb181614c8b565b92915050565b614cc0816140aa565b8114614ccb57600080fd5b50565b600081519050614cdd81614cb7565b92915050565b600080600080600060a08688031215614cff57614cfe613baf565b5b6000614d0d88828901614ca2565b9550506020614d1e88828901614cce565b9450506040614d2f888289016148ce565b9350506060614d40888289016148ce565b9250506080614d5188828901614ca2565b9150509295509295909350565b60008160011c9050919050565b6000808291508390505b6001851115614db557808604811115614d9157614d906146c0565b5b6001851615614da05780820291505b8081029050614dae85614d5e565b9450614d75565b94509492505050565b600082614dce5760019050614e8a565b81614ddc5760009050614e8a565b8160018114614df25760028114614dfc57614e2b565b6001915050614e8a565b60ff841115614e0e57614e0d6146c0565b5b8360020a915084821115614e2557614e246146c0565b5b50614e8a565b5060208310610133831016604e8410600b8410161715614e605782820a905083811115614e5b57614e5a6146c0565b5b614e8a565b614e6d8484846001614d6b565b92509050818404811115614e8457614e836146c0565b5b81810290505b9392505050565b6000614e9c82613e73565b9150614ea7836140c3565b9250614ed47fffffffffffffffffffffffffffffffffffffffffffffffffffffffffffffffff8484614dbe565b905092915050565b6000614ee7826140c3565b9150614ef2836140c3565b925082821015614f0557614f046146c0565b5b828203905092915050565b7f706f736974696f6e206f7574206f662072616e67650000000000000000000000600082015250565b6000614f466015836145e5565b9150614f5182614f10565b602082019050919050565b60006020820190508181036000830152614f7581614f39565b9050919050565b7f6172726179206c656e677468206e6f74206d6174636800000000000000000000600082015250565b6000614fb26016836145e5565b9150614fbd82614f7c565b602082019050919050565b60006020820190508181036000830152614fe181614fa5565b9050919050565b614ff181613c44565b8114614ffc57600080fd5b50565b6000813561500c81614fe8565b80915050919050565b60008160001b9050919050565b600063ffffffff61503284615015565b9350801983169250808416831791505092915050565b600061506361505e61505984613c44565b613f8a565b613c44565b9050919050565b6000819050919050565b61507d82615048565b6150906150898261506a565b8354615022565b8255505050565b60008160201b9050919050565b600067ffffffff000000006150b884615097565b9350801983169250808416831791505092915050565b6150d782615048565b6150ea6150e38261506a565b83546150a4565b8255505050565b6150fa81613c63565b811461510557600080fd5b50565b60008135615115816150f1565b80915050919050565b60008160401b9050919050565b60006fffffffffffffffff00000000000000006151478461511e565b9350801983169250808416831791505092915050565b600061517861517361516e84613c63565b613f8a565b613c63565b9050919050565b6000819050919050565b6151928261515d565b6151a561519e8261517f565b835461512b565b8255505050565b6151b581613c86565b81146151c057600080fd5b50565b600081356151d0816151ac565b80915050919050565b60008160801b9050919050565b60007fffffffffffffffffffffffffffffffff00000000000000000000000000000000615212846151d9565b9350801983169250808416831791505092915050565b600061524361523e61523984613c86565b613f8a565b613c86565b9050919050565b6000819050919050565b61525d82615228565b6152706152698261524a565b83546151e6565b8255505050565b60008101600083018061528981614fff565b90506152958184615074565b5050506000810160208301806152aa81614fff565b90506152b681846150ce565b5050506000810160408301806152cb81615108565b90506152d78184615189565b5050506000810160608301806152ec816151c3565b90506152f88184615254565b5050505050565b6153098282615277565b5050565b7f4f776e61626c653a206e6577206f776e657220697320746865207a65726f206160008201527f6464726573730000000000000000000000000000000000000000000000000000602082015250565b60006153696026836145e5565b91506153748261530d565b604082019050919050565b600060208201905081810360008301526153988161535c565b905091905056fea26469706673582212206c5be96cf5c1039b859cf22676d24de5c8a2f20ac487747af2a5f7b5c10f262f64736f6c63430008090033",
  "linkReferences": {},
  "deployedLinkReferences": {}
}