{
  "_format": "hh-sol-artifact-1",
  "contractName": "SssssmokinFinance",
  "sourceName": "contracts/SssssmokinFinance.sol",
  "abi": [
    {
      "inputs": [],
      "name": "NoneBenifits",
      "type": "error"
    },
    {
      "inputs": [],
      "name": "NotEnoughCredit",
      "type": "error"
    },
    {
      "inputs": [],
      "name": "NotEnoughStock",
      "type": "error"
    },
    {
      "inputs": [],
      "name": "NotProvideToken",
      "type": "error"
    },
    {
      "inputs": [],
      "name": "RepaymentNotCorrect",
      "type": "error"
    },
    {
      "anonymous": false,
      "inputs": [
        {
          "indexed": false,
          "internalType": "uint256",
          "name": "amount",
          "type": "uint256"
        },
        {
          "indexed": false,
          "internalType": "uint256",
          "name": "exchange",
          "type": "uint256"
        }
      ],
      "name": "DepositForEthSuccess",
      "type": "event"
    },
    {
      "anonymous": false,
      "inputs": [
        {
          "indexed": false,
          "internalType": "uint256",
          "name": "amount",
          "type": "uint256"
        },
        {
          "indexed": false,
          "internalType": "address",
          "name": "token",
          "type": "address"
        },
        {
          "indexed": false,
          "internalType": "uint256",
          "name": "exchange",
          "type": "uint256"
        }
      ],
      "name": "DepositForTokenSuccess",
      "type": "event"
    },
    {
      "anonymous": false,
      "inputs": [
        {
          "indexed": true,
          "internalType": "address",
          "name": "previousOwner",
          "type": "address"
        },
        {
          "indexed": true,
          "internalType": "address",
          "name": "newOwner",
          "type": "address"
        }
      ],
      "name": "OwnershipTransferred",
      "type": "event"
    },
    {
      "anonymous": false,
      "inputs": [
        {
          "indexed": false,
          "internalType": "uint256",
          "name": "pos",
          "type": "uint256"
        },
        {
          "indexed": false,
          "internalType": "uint256",
          "name": "remain",
          "type": "uint256"
        }
      ],
      "name": "RepaymentSucess",
      "type": "event"
    },
    {
      "stateMutability": "payable",
      "type": "fallback"
    },
    {
      "inputs": [
        {
          "internalType": "address",
          "name": "token",
          "type": "address"
        }
      ],
      "name": "addProvideTokens",
      "outputs": [],
      "stateMutability": "nonpayable",
      "type": "function"
    },
    {
      "inputs": [
        {
          "internalType": "address",
          "name": "token",
          "type": "address"
        },
        {
          "internalType": "uint256",
          "name": "amount",
          "type": "uint256"
        }
      ],
      "name": "deposit",
      "outputs": [],
      "stateMutability": "nonpayable",
      "type": "function"
    },
    {
      "inputs": [
        {
          "internalType": "uint256",
          "name": "amount",
          "type": "uint256"
        }
      ],
      "name": "deposit",
      "outputs": [],
      "stateMutability": "nonpayable",
      "type": "function"
    },
    {
      "inputs": [],
      "name": "getBenifits",
      "outputs": [
        {
          "components": [
            {
              "internalType": "uint32",
              "name": "ratio",
              "type": "uint32"
            },
            {
              "internalType": "uint32",
              "name": "apr",
              "type": "uint32"
            },
            {
              "internalType": "uint64",
              "name": "validityTime",
              "type": "uint64"
            },
            {
              "internalType": "uint128",
              "name": "credit",
              "type": "uint128"
            }
          ],
          "internalType": "struct SssssmokinFinance.Benefits[]",
          "name": "",
          "type": "tuple[]"
        }
      ],
      "stateMutability": "view",
      "type": "function"
    },
    {
      "inputs": [
        {
          "internalType": "uint256",
          "name": "tokenId",
          "type": "uint256"
        }
      ],
      "name": "getBenifits",
      "outputs": [
        {
          "components": [
            {
              "internalType": "uint32",
              "name": "ratio",
              "type": "uint32"
            },
            {
              "internalType": "uint32",
              "name": "apr",
              "type": "uint32"
            },
            {
              "internalType": "uint64",
              "name": "validityTime",
              "type": "uint64"
            },
            {
              "internalType": "uint128",
              "name": "credit",
              "type": "uint128"
            }
          ],
          "internalType": "struct SssssmokinFinance.Benefits",
          "name": "",
          "type": "tuple"
        }
      ],
      "stateMutability": "view",
      "type": "function"
    },
    {
      "inputs": [
        {
          "internalType": "uint256",
          "name": "tokenId",
          "type": "uint256"
        }
      ],
      "name": "getCredit",
      "outputs": [
        {
          "internalType": "uint256",
          "name": "",
          "type": "uint256"
        }
      ],
      "stateMutability": "view",
      "type": "function"
    },
    {
      "inputs": [],
      "name": "getMargin",
      "outputs": [
        {
          "internalType": "uint256",
          "name": "",
          "type": "uint256"
        }
      ],
      "stateMutability": "view",
      "type": "function"
    },
    {
      "inputs": [
        {
          "internalType": "address",
          "name": "user",
          "type": "address"
        }
      ],
      "name": "getMargin",
      "outputs": [
        {
          "internalType": "uint256",
          "name": "",
          "type": "uint256"
        }
      ],
      "stateMutability": "view",
      "type": "function"
    },
    {
      "inputs": [
        {
          "internalType": "address",
          "name": "user",
          "type": "address"
        }
      ],
      "name": "getUserBenifits",
      "outputs": [
        {
          "components": [
            {
              "internalType": "uint32",
              "name": "ratio",
              "type": "uint32"
            },
            {
              "internalType": "uint32",
              "name": "apr",
              "type": "uint32"
            },
            {
              "internalType": "uint64",
              "name": "validityTime",
              "type": "uint64"
            },
            {
              "internalType": "uint128",
              "name": "credit",
              "type": "uint128"
            }
          ],
          "internalType": "struct SssssmokinFinance.Benefits",
          "name": "",
          "type": "tuple"
        }
      ],
      "stateMutability": "view",
      "type": "function"
    },
    {
      "inputs": [],
      "name": "getUserBenifits",
      "outputs": [
        {
          "components": [
            {
              "internalType": "uint32",
              "name": "ratio",
              "type": "uint32"
            },
            {
              "internalType": "uint32",
              "name": "apr",
              "type": "uint32"
            },
            {
              "internalType": "uint64",
              "name": "validityTime",
              "type": "uint64"
            },
            {
              "internalType": "uint128",
              "name": "credit",
              "type": "uint128"
            }
          ],
          "internalType": "struct SssssmokinFinance.Benefits",
          "name": "",
          "type": "tuple"
        }
      ],
      "stateMutability": "view",
      "type": "function"
    },
    {
      "inputs": [],
      "name": "getUserLoaning",
      "outputs": [
        {
          "components": [
            {
              "internalType": "uint32",
              "name": "apr",
              "type": "uint32"
            },
            {
              "internalType": "uint64",
              "name": "time",
              "type": "uint64"
            },
            {
              "internalType": "uint128",
              "name": "margin",
              "type": "uint128"
            },
            {
              "internalType": "uint256",
              "name": "exchange",
              "type": "uint256"
            },
            {
              "internalType": "address",
              "name": "token",
              "type": "address"
            }
          ],
          "internalType": "struct SssssmokinFinance.Loan[]",
          "name": "",
          "type": "tuple[]"
        }
      ],
      "stateMutability": "view",
      "type": "function"
    },
    {
      "inputs": [
        {
          "internalType": "address",
          "name": "user",
          "type": "address"
        }
      ],
      "name": "getUserLoaning",
      "outputs": [
        {
          "components": [
            {
              "internalType": "uint32",
              "name": "apr",
              "type": "uint32"
            },
            {
              "internalType": "uint64",
              "name": "time",
              "type": "uint64"
            },
            {
              "internalType": "uint128",
              "name": "margin",
              "type": "uint128"
            },
            {
              "internalType": "uint256",
              "name": "exchange",
              "type": "uint256"
            },
            {
              "internalType": "address",
              "name": "token",
              "type": "address"
            }
          ],
          "internalType": "struct SssssmokinFinance.Loan[]",
          "name": "",
          "type": "tuple[]"
        }
      ],
      "stateMutability": "view",
      "type": "function"
    },
    {
      "inputs": [
        {
          "internalType": "address",
          "name": "token",
          "type": "address"
        }
      ],
      "name": "isProvideToken",
      "outputs": [
        {
          "internalType": "bool",
          "name": "",
          "type": "bool"
        }
      ],
      "stateMutability": "view",
      "type": "function"
    },
    {
      "inputs": [],
      "name": "membershipTokenContract",
      "outputs": [
        {
          "internalType": "contract IERC1155",
          "name": "",
          "type": "address"
        }
      ],
      "stateMutability": "view",
      "type": "function"
    },
    {
      "inputs": [],
      "name": "owner",
      "outputs": [
        {
          "internalType": "address",
          "name": "",
          "type": "address"
        }
      ],
      "stateMutability": "view",
      "type": "function"
    },
    {
      "inputs": [
        {
          "internalType": "address",
          "name": "",
          "type": "address"
        }
      ],
      "name": "provideTokens",
      "outputs": [
        {
          "internalType": "bool",
          "name": "",
          "type": "bool"
        }
      ],
      "stateMutability": "view",
      "type": "function"
    },
    {
      "inputs": [
        {
          "internalType": "uint256",
          "name": "",
          "type": "uint256"
        }
      ],
      "name": "provideTokensArray",
      "outputs": [
        {
          "internalType": "address",
          "name": "",
          "type": "address"
        }
      ],
      "stateMutability": "view",
      "type": "function"
    },
    {
      "inputs": [
        {
          "internalType": "uint256",
          "name": "tokenId",
          "type": "uint256"
        }
      ],
      "name": "removeBenifist",
      "outputs": [],
      "stateMutability": "nonpayable",
      "type": "function"
    },
    {
      "inputs": [
        {
          "internalType": "uint256",
          "name": "pos",
          "type": "uint256"
        }
      ],
      "name": "removeProvideTokens",
      "outputs": [],
      "stateMutability": "nonpayable",
      "type": "function"
    },
    {
      "inputs": [
        {
          "internalType": "address",
          "name": "token",
          "type": "address"
        }
      ],
      "name": "removeProvideTokens",
      "outputs": [],
      "stateMutability": "nonpayable",
      "type": "function"
    },
    {
      "inputs": [],
      "name": "renounceOwnership",
      "outputs": [],
      "stateMutability": "nonpayable",
      "type": "function"
    },
    {
      "inputs": [
        {
          "internalType": "uint256",
          "name": "pos",
          "type": "uint256"
        }
      ],
      "name": "repayment",
      "outputs": [],
      "stateMutability": "payable",
      "type": "function"
    },
    {
      "inputs": [
        {
          "internalType": "uint256",
          "name": "tokenId",
          "type": "uint256"
        },
        {
          "components": [
            {
              "internalType": "uint32",
              "name": "ratio",
              "type": "uint32"
            },
            {
              "internalType": "uint32",
              "name": "apr",
              "type": "uint32"
            },
            {
              "internalType": "uint64",
              "name": "validityTime",
              "type": "uint64"
            },
            {
              "internalType": "uint128",
              "name": "credit",
              "type": "uint128"
            }
          ],
          "internalType": "struct SssssmokinFinance.Benefits",
          "name": "benifist",
          "type": "tuple"
        }
      ],
      "name": "setBenifist",
      "outputs": [],
      "stateMutability": "nonpayable",
      "type": "function"
    },
    {
      "inputs": [
        {
          "internalType": "uint256[]",
          "name": "order",
          "type": "uint256[]"
        }
      ],
      "name": "setTokenIdOrder",
      "outputs": [],
      "stateMutability": "nonpayable",
      "type": "function"
    },
    {
      "inputs": [
        {
          "internalType": "uint256",
          "name": "",
          "type": "uint256"
        }
      ],
      "name": "tokenIdOrder",
      "outputs": [
        {
          "internalType": "uint256",
          "name": "",
          "type": "uint256"
        }
      ],
      "stateMutability": "view",
      "type": "function"
    },
    {
      "inputs": [
        {
          "internalType": "address",
          "name": "newOwner",
          "type": "address"
        }
      ],
      "name": "transferOwnership",
      "outputs": [],
      "stateMutability": "nonpayable",
      "type": "function"
    },
    {
      "inputs": [],
      "name": "weeeeToken",
      "outputs": [
        {
          "internalType": "contract IERC20",
          "name": "",
          "type": "address"
        }
      ],
      "stateMutability": "view",
      "type": "function"
    },
    {
      "stateMutability": "payable",
      "type": "receive"
    }
  ],
  "bytecode": "0x60806040523480156200001157600080fd5b5062000032620000266200003860201b60201c565b6200004060201b60201c565b62000104565b600033905090565b60008060009054906101000a900473ffffffffffffffffffffffffffffffffffffffff169050816000806101000a81548173ffffffffffffffffffffffffffffffffffffffff021916908373ffffffffffffffffffffffffffffffffffffffff1602179055508173ffffffffffffffffffffffffffffffffffffffff168173ffffffffffffffffffffffffffffffffffffffff167f8be0079c531659141344cd1fd0a4f28419497f9722a3daafe3b4186f6b6457e060405160405180910390a35050565b613e3680620001146000396000f3fe6080604052600436106101a05760003560e01c8063703a92c4116100ec578063d09ad0901161008a578063e1fddd7611610064578063e1fddd76146105d3578063f2fde38b146105fc578063f84f89a214610625578063f9ab632c14610662576101a7565b8063d09ad09014610530578063d55272681461056d578063da304e4d14610596576101a7565b80638da5cb5b116100c65780638da5cb5b14610476578063b6b55f25146104a1578063bd8e99d6146104ca578063c423a38714610507576101a7565b8063703a92c4146103f9578063715018a6146104365780638ad3fd201461044d576101a7565b806346e5dec3116101595780635252cf73116101335780635252cf731461035e57806364ee82d6146103895780636737b31e146103b45780636db57d12146103d0576101a7565b806346e5dec3146102cd57806347e7ef24146102f857806349c3fd8714610321576101a7565b806318467d2d146101a957806318759a5f146101d25780631d63d403146101fd5780631e63e5ec1461022857806325117b7214610265578063398873da14610290576101a7565b366101a757005b005b3480156101b557600080fd5b506101d060048036038101906101cb9190612bc6565b61069f565b005b3480156101de57600080fd5b506101e76108b6565b6040516101f49190612dc7565b60405180910390f35b34801561020957600080fd5b506102126108cd565b60405161021f9190612e48565b60405180910390f35b34801561023457600080fd5b5061024f600480360381019061024a9190612e8f565b6108f3565b60405161025c9190612f11565b60405180910390f35b34801561027157600080fd5b5061027a610b5b565b6040516102879190612f3b565b60405180910390f35b34801561029c57600080fd5b506102b760048036038101906102b29190612bc6565b610b72565b6040516102c49190612f3b565b60405180910390f35b3480156102d957600080fd5b506102e2610b96565b6040516102ef9190612f77565b60405180910390f35b34801561030457600080fd5b5061031f600480360381019061031a9190612f92565b610bbc565b005b34801561032d57600080fd5b5061034860048036038101906103439190612bc6565b61111f565b6040516103559190612fe1565b60405180910390f35b34801561036a57600080fd5b5061037361115e565b6040516103809190613100565b60405180910390f35b34801561039557600080fd5b5061039e61130a565b6040516103ab9190612f11565b60405180910390f35b6103ce60048036038101906103c99190612bc6565b611327565b005b3480156103dc57600080fd5b506103f760048036038101906103f29190612e8f565b611a08565b005b34801561040557600080fd5b50610420600480360381019061041b9190612bc6565b611b25565b60405161042d9190612f11565b60405180910390f35b34801561044257600080fd5b5061044b611c1a565b005b34801561045957600080fd5b50610474600480360381019061046f9190612bc6565b611ca2565b005b34801561048257600080fd5b5061048b611da3565b6040516104989190612fe1565b60405180910390f35b3480156104ad57600080fd5b506104c860048036038101906104c39190612bc6565b611dcc565b005b3480156104d657600080fd5b506104f160048036038101906104ec9190612e8f565b6121e3565b6040516104fe919061313d565b60405180910390f35b34801561051357600080fd5b5061052e6004803603810190610529919061317c565b612203565b005b34801561053c57600080fd5b5061055760048036038101906105529190612e8f565b61222a565b6040516105649190612dc7565b60405180910390f35b34801561057957600080fd5b50610594600480360381019061058f9190612e8f565b6123ca565b005b3480156105a257600080fd5b506105bd60048036038101906105b89190612bc6565b61263a565b6040516105ca9190612f3b565b60405180910390f35b3480156105df57600080fd5b506105fa60048036038101906105f59190613221565b612688565b005b34801561060857600080fd5b50610623600480360381019061061e9190612e8f565b61269e565b005b34801561063157600080fd5b5061064c60048036038101906106479190612e8f565b612796565b6040516106599190612f3b565b60405180910390f35b34801561066e57600080fd5b5061068960048036038101906106849190612e8f565b6129a0565b604051610696919061313d565b60405180910390f35b6106a76129f6565b73ffffffffffffffffffffffffffffffffffffffff166106c5611da3565b73ffffffffffffffffffffffffffffffffffffffff161461071b576040517f08c379a0000000000000000000000000000000000000000000000000000000008152600401610712906132cb565b60405180910390fd5b60006003600060048481548110610735576107346132eb565b5b9060005260206000200160009054906101000a900473ffffffffffffffffffffffffffffffffffffffff1673ffffffffffffffffffffffffffffffffffffffff1673ffffffffffffffffffffffffffffffffffffffff16815260200190815260200160002060006101000a81548160ff021916908315150217905550600060016004805490506107c59190613349565b90508082101561086b57600481815481106107e3576107e26132eb565b5b9060005260206000200160009054906101000a900473ffffffffffffffffffffffffffffffffffffffff1660048381548110610822576108216132eb565b5b9060005260206000200160006101000a81548173ffffffffffffffffffffffffffffffffffffffff021916908373ffffffffffffffffffffffffffffffffffffffff1602179055505b600480548061087d5761087c61337d565b5b6001900381819060005260206000200160006101000a81549073ffffffffffffffffffffffffffffffffffffffff021916905590555050565b60606108c86108c36129f6565b61222a565b905090565b600160009054906101000a900473ffffffffffffffffffffffffffffffffffffffff1681565b6108fb612ac2565b600060068054905067ffffffffffffffff81111561091c5761091b6133ac565b5b60405190808252806020026020018201604052801561094a5781602001602082028036833780820191505090505b50905060005b81518110156109ba578382828151811061096d5761096c6132eb565b5b602002602001019073ffffffffffffffffffffffffffffffffffffffff16908173ffffffffffffffffffffffffffffffffffffffff168152505080806109b2906133db565b915050610950565b506000600160009054906101000a900473ffffffffffffffffffffffffffffffffffffffff1673ffffffffffffffffffffffffffffffffffffffff16634e1273f48360066040518363ffffffff1660e01b8152600401610a1b9291906135d2565b60006040518083038186803b158015610a3357600080fd5b505afa158015610a47573d6000803e3d6000fd5b505050506040513d6000823e3d601f19601f82011682018060405250810190610a70919061373e565b905060005b8151811015610b23576000828281518110610a9357610a926132eb565b5b60200260200101511415610aa657610b10565b6000610acf60068381548110610abf57610abe6132eb565b5b9060005260206000200154611b25565b90506000816040015167ffffffffffffffff1614158015610afd575042816040015167ffffffffffffffff16115b15610b0e5780945050505050610b56565b505b8080610b1b906133db565b915050610a75565b506040517fe253024200000000000000000000000000000000000000000000000000000000815260040160405180910390fd5b919050565b6000610b6d610b686129f6565b612796565b905090565b60068181548110610b8257600080fd5b906000526020600020016000915090505481565b600260009054906101000a900473ffffffffffffffffffffffffffffffffffffffff1681565b8160011515600360008373ffffffffffffffffffffffffffffffffffffffff1673ffffffffffffffffffffffffffffffffffffffff16815260200190815260200160002060009054906101000a900460ff16151514610c47576040517f4857c89900000000000000000000000000000000000000000000000000000000815260040160405180910390fd5b6000610c5161130a565b9050600083610c5e610b5b565b610c689190613787565b90508082606001516fffffffffffffffffffffffffffffffff161015610cba576040517fa7fd379200000000000000000000000000000000000000000000000000000000815260040160405180910390fd5b6000610bb8670de0b6b3a7640000610cd2919061380c565b90506000606482856000015163ffffffff1688610cef919061383d565b610cf9919061383d565b610d03919061380c565b9050600087905060008173ffffffffffffffffffffffffffffffffffffffff166370a08231306040518263ffffffff1660e01b8152600401610d459190612fe1565b60206040518083038186803b158015610d5d57600080fd5b505afa158015610d71573d6000803e3d6000fd5b505050506040513d601f19601f82011682018060405250810190610d959190613897565b905082811015610dd1576040517f3633f81800000000000000000000000000000000000000000000000000000000815260040160405180910390fd5b600260009054906101000a900473ffffffffffffffffffffffffffffffffffffffff1673ffffffffffffffffffffffffffffffffffffffff166323b872dd610e176129f6565b308b6040518463ffffffff1660e01b8152600401610e37939291906138c4565b602060405180830381600087803b158015610e5157600080fd5b505af1158015610e65573d6000803e3d6000fd5b505050506040513d601f19601f82011682018060405250810190610e899190613927565b508173ffffffffffffffffffffffffffffffffffffffff1663a9059cbb610eae6129f6565b856040518363ffffffff1660e01b8152600401610ecc929190613954565b602060405180830381600087803b158015610ee657600080fd5b505af1158015610efa573d6000803e3d6000fd5b505050506040513d601f19601f82011682018060405250810190610f1e9190613927565b5060076000610f2b6129f6565b73ffffffffffffffffffffffffffffffffffffffff1673ffffffffffffffffffffffffffffffffffffffff1681526020019081526020016000206040518060a00160405280886020015163ffffffff1681526020014267ffffffffffffffff1681526020018a6fffffffffffffffffffffffffffffffff1681526020018581526020018b73ffffffffffffffffffffffffffffffffffffffff16815250908060018154018082558091505060019003906000526020600020906003020160009091909190915060008201518160000160006101000a81548163ffffffff021916908363ffffffff16021790555060208201518160000160046101000a81548167ffffffffffffffff021916908367ffffffffffffffff160217905550604082015181600001600c6101000a8154816fffffffffffffffffffffffffffffffff02191690836fffffffffffffffffffffffffffffffff1602179055506060820151816001015560808201518160020160006101000a81548173ffffffffffffffffffffffffffffffffffffffff021916908373ffffffffffffffffffffffffffffffffffffffff16021790555050507f707820251fb46777f43913e0f79a5bfe897ba7feb06089f3ed695614d5b5dd3e888a8560405161110c9392919061397d565b60405180910390a1505050505050505050565b6004818154811061112f57600080fd5b906000526020600020016000915054906101000a900473ffffffffffffffffffffffffffffffffffffffff1681565b6060600060068054905067ffffffffffffffff811115611181576111806133ac565b5b6040519080825280602002602001820160405280156111ba57816020015b6111a7612ac2565b81526020019060019003908161119f5790505b50905060005b6006805490508110156113025760056000600683815481106111e5576111e46132eb565b5b906000526020600020015481526020019081526020016000206040518060800160405290816000820160009054906101000a900463ffffffff1663ffffffff1663ffffffff1681526020016000820160049054906101000a900463ffffffff1663ffffffff1663ffffffff1681526020016000820160089054906101000a900467ffffffffffffffff1667ffffffffffffffff1667ffffffffffffffff1681526020016000820160109054906101000a90046fffffffffffffffffffffffffffffffff166fffffffffffffffffffffffffffffffff166fffffffffffffffffffffffffffffffff16815250508282815181106112e4576112e36132eb565b5b602002602001018190525080806112fa906133db565b9150506111c0565b508091505090565b611312612ac2565b61132261131d6129f6565b6108f3565b905090565b6000600760006113356129f6565b73ffffffffffffffffffffffffffffffffffffffff1673ffffffffffffffffffffffffffffffffffffffff1681526020019081526020016000209050808054905082106113b7576040517f08c379a00000000000000000000000000000000000000000000000000000000081526004016113ae90613a00565b60405180910390fd5b60008183815481106113cc576113cb6132eb565b5b90600052602060002090600302016040518060a00160405290816000820160009054906101000a900463ffffffff1663ffffffff1663ffffffff1681526020016000820160049054906101000a900467ffffffffffffffff1667ffffffffffffffff1667ffffffffffffffff16815260200160008201600c9054906101000a90046fffffffffffffffffffffffffffffffff166fffffffffffffffffffffffffffffffff166fffffffffffffffffffffffffffffffff168152602001600182015481526020016002820160009054906101000a900473ffffffffffffffffffffffffffffffffffffffff1673ffffffffffffffffffffffffffffffffffffffff1673ffffffffffffffffffffffffffffffffffffffff168152505090506000816020015167ffffffffffffffff16426115059190613349565b9050600063bbf81e00836000015163ffffffff168385604001516fffffffffffffffffffffffffffffffff1661153b919061383d565b611545919061383d565b61154f919061380c565b9050600073ffffffffffffffffffffffffffffffffffffffff16836080015173ffffffffffffffffffffffffffffffffffffffff1614611633576000836080015190508073ffffffffffffffffffffffffffffffffffffffff166323b872dd6115b66129f6565b3087606001516040518463ffffffff1660e01b81526004016115da939291906138c4565b602060405180830381600087803b1580156115f457600080fd5b505af1158015611608573d6000803e3d6000fd5b505050506040513d601f19601f8201168201806040525081019061162c9190613927565b5050611671565b82606001513414611670576040517f329099d800000000000000000000000000000000000000000000000000000000815260040160405180910390fd5b5b60008184604001516fffffffffffffffffffffffffffffffff16111561176f578184604001516fffffffffffffffffffffffffffffffff166116b39190613349565b9050600260009054906101000a900473ffffffffffffffffffffffffffffffffffffffff1673ffffffffffffffffffffffffffffffffffffffff166323b872dd306116fc6129f6565b846040518463ffffffff1660e01b815260040161171b939291906138c4565b602060405180830381600087803b15801561173557600080fd5b505af1158015611749573d6000803e3d6000fd5b505050506040513d601f19601f8201168201806040525081019061176d9190613927565b505b6000600186805490506117829190613349565b9050808710156119185785818154811061179f5761179e6132eb565b5b90600052602060002090600302018688815481106117c0576117bf6132eb565b5b90600052602060002090600302016000820160009054906101000a900463ffffffff168160000160006101000a81548163ffffffff021916908363ffffffff1602179055506000820160049054906101000a900467ffffffffffffffff168160000160046101000a81548167ffffffffffffffff021916908367ffffffffffffffff16021790555060008201600c9054906101000a90046fffffffffffffffffffffffffffffffff1681600001600c6101000a8154816fffffffffffffffffffffffffffffffff02191690836fffffffffffffffffffffffffffffffff160217905550600182015481600101556002820160009054906101000a900473ffffffffffffffffffffffffffffffffffffffff168160020160006101000a81548173ffffffffffffffffffffffffffffffffffffffff021916908373ffffffffffffffffffffffffffffffffffffffff1602179055509050505b858054806119295761192861337d565b5b6001900381819060005260206000209060030201600080820160006101000a81549063ffffffff02191690556000820160046101000a81549067ffffffffffffffff021916905560008201600c6101000a8154906fffffffffffffffffffffffffffffffff021916905560018201600090556002820160006101000a81549073ffffffffffffffffffffffffffffffffffffffff0219169055505090557fec5d3efe21b7ad3fd9e0536b321f6ac73144e22f136f959d00d5b05a4eb28aa687836040516119f7929190613a20565b60405180910390a150505050505050565b60011515600360008373ffffffffffffffffffffffffffffffffffffffff1673ffffffffffffffffffffffffffffffffffffffff16815260200190815260200160002060009054906101000a900460ff1615151415611a6657611b22565b6001600360008373ffffffffffffffffffffffffffffffffffffffff1673ffffffffffffffffffffffffffffffffffffffff16815260200190815260200160002060006101000a81548160ff0219169083151502179055506004819080600181540180825580915050600190039060005260206000200160009091909190916101000a81548173ffffffffffffffffffffffffffffffffffffffff021916908373ffffffffffffffffffffffffffffffffffffffff1602179055505b50565b611b2d612ac2565b600560008381526020019081526020016000206040518060800160405290816000820160009054906101000a900463ffffffff1663ffffffff1663ffffffff1681526020016000820160049054906101000a900463ffffffff1663ffffffff1663ffffffff1681526020016000820160089054906101000a900467ffffffffffffffff1667ffffffffffffffff1667ffffffffffffffff1681526020016000820160109054906101000a90046fffffffffffffffffffffffffffffffff166fffffffffffffffffffffffffffffffff166fffffffffffffffffffffffffffffffff16815250509050919050565b611c226129f6565b73ffffffffffffffffffffffffffffffffffffffff16611c40611da3565b73ffffffffffffffffffffffffffffffffffffffff1614611c96576040517f08c379a0000000000000000000000000000000000000000000000000000000008152600401611c8d906132cb565b60405180910390fd5b611ca060006129fe565b565b611caa6129f6565b73ffffffffffffffffffffffffffffffffffffffff16611cc8611da3565b73ffffffffffffffffffffffffffffffffffffffff1614611d1e576040517f08c379a0000000000000000000000000000000000000000000000000000000008152600401611d15906132cb565b60405180910390fd5b60056000828152602001908152602001600020600080820160006101000a81549063ffffffff02191690556000820160046101000a81549063ffffffff02191690556000820160086101000a81549067ffffffffffffffff02191690556000820160106101000a8154906fffffffffffffffffffffffffffffffff0219169055505050565b60008060009054906101000a900473ffffffffffffffffffffffffffffffffffffffff16905090565b6000611dd661130a565b9050600082611de3610b5b565b611ded9190613787565b90508082606001516fffffffffffffffffffffffffffffffff161015611e3f576040517fa7fd379200000000000000000000000000000000000000000000000000000000815260040160405180910390fd5b6000610bb8670de0b6b3a7640000611e57919061380c565b90506000606482856000015163ffffffff1687611e74919061383d565b611e7e919061383d565b611e88919061380c565b90506000309050818173ffffffffffffffffffffffffffffffffffffffff16311015611ee0576040517f3633f81800000000000000000000000000000000000000000000000000000000815260040160405180910390fd5b600260009054906101000a900473ffffffffffffffffffffffffffffffffffffffff1673ffffffffffffffffffffffffffffffffffffffff166323b872dd611f266129f6565b30896040518463ffffffff1660e01b8152600401611f46939291906138c4565b602060405180830381600087803b158015611f6057600080fd5b505af1158015611f74573d6000803e3d6000fd5b505050506040513d601f19601f82011682018060405250810190611f989190613927565b50611fa16129f6565b73ffffffffffffffffffffffffffffffffffffffff166108fc839081150290604051600060405180830381858888f19350505050158015611fe6573d6000803e3d6000fd5b5060076000611ff36129f6565b73ffffffffffffffffffffffffffffffffffffffff1673ffffffffffffffffffffffffffffffffffffffff1681526020019081526020016000206040518060a00160405280876020015163ffffffff1681526020014267ffffffffffffffff168152602001886fffffffffffffffffffffffffffffffff168152602001848152602001600073ffffffffffffffffffffffffffffffffffffffff16815250908060018154018082558091505060019003906000526020600020906003020160009091909190915060008201518160000160006101000a81548163ffffffff021916908363ffffffff16021790555060208201518160000160046101000a81548167ffffffffffffffff021916908367ffffffffffffffff160217905550604082015181600001600c6101000a8154816fffffffffffffffffffffffffffffffff02191690836fffffffffffffffffffffffffffffffff1602179055506060820151816001015560808201518160020160006101000a81548173ffffffffffffffffffffffffffffffffffffffff021916908373ffffffffffffffffffffffffffffffffffffffff16021790555050507f33b118750ab0273342b56cb6387e0ade9135c54ad0525ad041284f2ed6adccf986836040516121d3929190613a20565b60405180910390a1505050505050565b60036020528060005260406000206000915054906101000a900460ff1681565b806005600084815260200190815260200160002081816122239190613d60565b9050505050565b6060600760008373ffffffffffffffffffffffffffffffffffffffff1673ffffffffffffffffffffffffffffffffffffffff168152602001908152602001600020805480602002602001604051908101604052809291908181526020016000905b828210156123bf57838290600052602060002090600302016040518060a00160405290816000820160009054906101000a900463ffffffff1663ffffffff1663ffffffff1681526020016000820160049054906101000a900467ffffffffffffffff1667ffffffffffffffff1667ffffffffffffffff16815260200160008201600c9054906101000a90046fffffffffffffffffffffffffffffffff166fffffffffffffffffffffffffffffffff166fffffffffffffffffffffffffffffffff168152602001600182015481526020016002820160009054906101000a900473ffffffffffffffffffffffffffffffffffffffff1673ffffffffffffffffffffffffffffffffffffffff1673ffffffffffffffffffffffffffffffffffffffff16815250508152602001906001019061228b565b505050509050919050565b6123d26129f6565b73ffffffffffffffffffffffffffffffffffffffff166123f0611da3565b73ffffffffffffffffffffffffffffffffffffffff1614612446576040517f08c379a000000000000000000000000000000000000000000000000000000000815260040161243d906132cb565b60405180910390fd5b6000600360008373ffffffffffffffffffffffffffffffffffffffff1673ffffffffffffffffffffffffffffffffffffffff16815260200190815260200160002060006101000a81548160ff02191690831515021790555060005b600480549050811015612636578173ffffffffffffffffffffffffffffffffffffffff16600482815481106124d9576124d86132eb565b5b9060005260206000200160009054906101000a900473ffffffffffffffffffffffffffffffffffffffff1673ffffffffffffffffffffffffffffffffffffffff16141561262357600060016004805490506125349190613349565b9050808210156125da5760048181548110612552576125516132eb565b5b9060005260206000200160009054906101000a900473ffffffffffffffffffffffffffffffffffffffff1660048381548110612591576125906132eb565b5b9060005260206000200160006101000a81548173ffffffffffffffffffffffffffffffffffffffff021916908373ffffffffffffffffffffffffffffffffffffffff1602179055505b60048054806125ec576125eb61337d565b5b6001900381819060005260206000200160006101000a81549073ffffffffffffffffffffffffffffffffffffffff02191690559055505b808061262e906133db565b9150506124a1565b5050565b60006005600083815260200190815260200160002060000160109054906101000a90046fffffffffffffffffffffffffffffffff166fffffffffffffffffffffffffffffffff169050919050565b818160069190612699929190612b12565b505050565b6126a66129f6565b73ffffffffffffffffffffffffffffffffffffffff166126c4611da3565b73ffffffffffffffffffffffffffffffffffffffff161461271a576040517f08c379a0000000000000000000000000000000000000000000000000000000008152600401612711906132cb565b60405180910390fd5b600073ffffffffffffffffffffffffffffffffffffffff168173ffffffffffffffffffffffffffffffffffffffff16141561278a576040517f08c379a000000000000000000000000000000000000000000000000000000000815260040161278190613de0565b60405180910390fd5b612793816129fe565b50565b600080600090506000600760008573ffffffffffffffffffffffffffffffffffffffff1673ffffffffffffffffffffffffffffffffffffffff168152602001908152602001600020805480602002602001604051908101604052809291908181526020016000905b8282101561293257838290600052602060002090600302016040518060a00160405290816000820160009054906101000a900463ffffffff1663ffffffff1663ffffffff1681526020016000820160049054906101000a900467ffffffffffffffff1667ffffffffffffffff1667ffffffffffffffff16815260200160008201600c9054906101000a90046fffffffffffffffffffffffffffffffff166fffffffffffffffffffffffffffffffff166fffffffffffffffffffffffffffffffff168152602001600182015481526020016002820160009054906101000a900473ffffffffffffffffffffffffffffffffffffffff1673ffffffffffffffffffffffffffffffffffffffff1673ffffffffffffffffffffffffffffffffffffffff1681525050815260200190600101906127fe565b50505050905060005b815181101561299557818181518110612957576129566132eb565b5b6020026020010151604001516fffffffffffffffffffffffffffffffff16836129809190613787565b9250808061298d906133db565b91505061293b565b508192505050919050565b6000600360008373ffffffffffffffffffffffffffffffffffffffff1673ffffffffffffffffffffffffffffffffffffffff16815260200190815260200160002060009054906101000a900460ff169050919050565b600033905090565b60008060009054906101000a900473ffffffffffffffffffffffffffffffffffffffff169050816000806101000a81548173ffffffffffffffffffffffffffffffffffffffff021916908373ffffffffffffffffffffffffffffffffffffffff1602179055508173ffffffffffffffffffffffffffffffffffffffff168173ffffffffffffffffffffffffffffffffffffffff167f8be0079c531659141344cd1fd0a4f28419497f9722a3daafe3b4186f6b6457e060405160405180910390a35050565b6040518060800160405280600063ffffffff168152602001600063ffffffff168152602001600067ffffffffffffffff16815260200160006fffffffffffffffffffffffffffffffff1681525090565b828054828255906000526020600020908101928215612b4e579160200282015b82811115612b4d578235825591602001919060010190612b32565b5b509050612b5b9190612b5f565b5090565b5b80821115612b78576000816000905550600101612b60565b5090565b6000604051905090565b600080fd5b600080fd5b6000819050919050565b612ba381612b90565b8114612bae57600080fd5b50565b600081359050612bc081612b9a565b92915050565b600060208284031215612bdc57612bdb612b86565b5b6000612bea84828501612bb1565b91505092915050565b600081519050919050565b600082825260208201905092915050565b6000819050602082019050919050565b600063ffffffff82169050919050565b612c3881612c1f565b82525050565b600067ffffffffffffffff82169050919050565b612c5b81612c3e565b82525050565b60006fffffffffffffffffffffffffffffffff82169050919050565b612c8681612c61565b82525050565b612c9581612b90565b82525050565b600073ffffffffffffffffffffffffffffffffffffffff82169050919050565b6000612cc682612c9b565b9050919050565b612cd681612cbb565b82525050565b60a082016000820151612cf26000850182612c2f565b506020820151612d056020850182612c52565b506040820151612d186040850182612c7d565b506060820151612d2b6060850182612c8c565b506080820151612d3e6080850182612ccd565b50505050565b6000612d508383612cdc565b60a08301905092915050565b6000602082019050919050565b6000612d7482612bf3565b612d7e8185612bfe565b9350612d8983612c0f565b8060005b83811015612dba578151612da18882612d44565b9750612dac83612d5c565b925050600181019050612d8d565b5085935050505092915050565b60006020820190508181036000830152612de18184612d69565b905092915050565b6000819050919050565b6000612e0e612e09612e0484612c9b565b612de9565b612c9b565b9050919050565b6000612e2082612df3565b9050919050565b6000612e3282612e15565b9050919050565b612e4281612e27565b82525050565b6000602082019050612e5d6000830184612e39565b92915050565b612e6c81612cbb565b8114612e7757600080fd5b50565b600081359050612e8981612e63565b92915050565b600060208284031215612ea557612ea4612b86565b5b6000612eb384828501612e7a565b91505092915050565b608082016000820151612ed26000850182612c2f565b506020820151612ee56020850182612c2f565b506040820151612ef86040850182612c52565b506060820151612f0b6060850182612c7d565b50505050565b6000608082019050612f266000830184612ebc565b92915050565b612f3581612b90565b82525050565b6000602082019050612f506000830184612f2c565b92915050565b6000612f6182612e15565b9050919050565b612f7181612f56565b82525050565b6000602082019050612f8c6000830184612f68565b92915050565b60008060408385031215612fa957612fa8612b86565b5b6000612fb785828601612e7a565b9250506020612fc885828601612bb1565b9150509250929050565b612fdb81612cbb565b82525050565b6000602082019050612ff66000830184612fd2565b92915050565b600081519050919050565b600082825260208201905092915050565b6000819050602082019050919050565b60808201600082015161303e6000850182612c2f565b5060208201516130516020850182612c2f565b5060408201516130646040850182612c52565b5060608201516130776060850182612c7d565b50505050565b60006130898383613028565b60808301905092915050565b6000602082019050919050565b60006130ad82612ffc565b6130b78185613007565b93506130c283613018565b8060005b838110156130f35781516130da888261307d565b97506130e583613095565b9250506001810190506130c6565b5085935050505092915050565b6000602082019050818103600083015261311a81846130a2565b905092915050565b60008115159050919050565b61313781613122565b82525050565b6000602082019050613152600083018461312e565b92915050565b600080fd5b60006080828403121561317357613172613158565b5b81905092915050565b60008060a0838503121561319357613192612b86565b5b60006131a185828601612bb1565b92505060206131b28582860161315d565b9150509250929050565b600080fd5b600080fd5b600080fd5b60008083601f8401126131e1576131e06131bc565b5b8235905067ffffffffffffffff8111156131fe576131fd6131c1565b5b60208301915083602082028301111561321a576132196131c6565b5b9250929050565b6000806020838503121561323857613237612b86565b5b600083013567ffffffffffffffff81111561325657613255612b8b565b5b613262858286016131cb565b92509250509250929050565b600082825260208201905092915050565b7f4f776e61626c653a2063616c6c6572206973206e6f7420746865206f776e6572600082015250565b60006132b560208361326e565b91506132c08261327f565b602082019050919050565b600060208201905081810360008301526132e4816132a8565b9050919050565b7f4e487b7100000000000000000000000000000000000000000000000000000000600052603260045260246000fd5b7f4e487b7100000000000000000000000000000000000000000000000000000000600052601160045260246000fd5b600061335482612b90565b915061335f83612b90565b9250828210156133725761337161331a565b5b828203905092915050565b7f4e487b7100000000000000000000000000000000000000000000000000000000600052603160045260246000fd5b7f4e487b7100000000000000000000000000000000000000000000000000000000600052604160045260246000fd5b60006133e682612b90565b91507fffffffffffffffffffffffffffffffffffffffffffffffffffffffffffffffff8214156134195761341861331a565b5b600182019050919050565b600081519050919050565b600082825260208201905092915050565b6000819050602082019050919050565b600061345c8383612ccd565b60208301905092915050565b6000602082019050919050565b600061348082613424565b61348a818561342f565b935061349583613440565b8060005b838110156134c65781516134ad8882613450565b97506134b883613468565b925050600181019050613499565b5085935050505092915050565b600081549050919050565b600082825260208201905092915050565b60008190508160005260206000209050919050565b60006135108383612c8c565b60208301905092915050565b60008160001c9050919050565b6000819050919050565b60006135466135418361351c565b613529565b9050919050565b60006135598254613533565b9050919050565b6000600182019050919050565b6000613578826134d3565b61358281856134de565b935061358d836134ef565b8060005b838110156135c5576135a28261354d565b6135ac8882613504565b97506135b783613560565b925050600181019050613591565b5085935050505092915050565b600060408201905081810360008301526135ec8185613475565b90508181036020830152613600818461356d565b90509392505050565b6000601f19601f8301169050919050565b61362382613609565b810181811067ffffffffffffffff82111715613642576136416133ac565b5b80604052505050565b6000613655612b7c565b9050613661828261361a565b919050565b600067ffffffffffffffff821115613681576136806133ac565b5b602082029050602081019050919050565b6000815190506136a181612b9a565b92915050565b60006136ba6136b584613666565b61364b565b905080838252602082019050602084028301858111156136dd576136dc6131c6565b5b835b8181101561370657806136f28882613692565b8452602084019350506020810190506136df565b5050509392505050565b600082601f830112613725576137246131bc565b5b81516137358482602086016136a7565b91505092915050565b60006020828403121561375457613753612b86565b5b600082015167ffffffffffffffff81111561377257613771612b8b565b5b61377e84828501613710565b91505092915050565b600061379282612b90565b915061379d83612b90565b9250827fffffffffffffffffffffffffffffffffffffffffffffffffffffffffffffffff038211156137d2576137d161331a565b5b828201905092915050565b7f4e487b7100000000000000000000000000000000000000000000000000000000600052601260045260246000fd5b600061381782612b90565b915061382283612b90565b925082613832576138316137dd565b5b828204905092915050565b600061384882612b90565b915061385383612b90565b9250817fffffffffffffffffffffffffffffffffffffffffffffffffffffffffffffffff048311821515161561388c5761388b61331a565b5b828202905092915050565b6000602082840312156138ad576138ac612b86565b5b60006138bb84828501613692565b91505092915050565b60006060820190506138d96000830186612fd2565b6138e66020830185612fd2565b6138f36040830184612f2c565b949350505050565b61390481613122565b811461390f57600080fd5b50565b600081519050613921816138fb565b92915050565b60006020828403121561393d5761393c612b86565b5b600061394b84828501613912565b91505092915050565b60006040820190506139696000830185612fd2565b6139766020830184612f2c565b9392505050565b60006060820190506139926000830186612f2c565b61399f6020830185612fd2565b6139ac6040830184612f2c565b949350505050565b7f706f736974696f6e206f7574206f662072616e67650000000000000000000000600082015250565b60006139ea60158361326e565b91506139f5826139b4565b602082019050919050565b60006020820190508181036000830152613a19816139dd565b9050919050565b6000604082019050613a356000830185612f2c565b613a426020830184612f2c565b9392505050565b613a5281612c1f565b8114613a5d57600080fd5b50565b60008135613a6d81613a49565b80915050919050565b60008160001b9050919050565b600063ffffffff613a9384613a76565b9350801983169250808416831791505092915050565b6000613ac4613abf613aba84612c1f565b612de9565b612c1f565b9050919050565b6000819050919050565b613ade82613aa9565b613af1613aea82613acb565b8354613a83565b8255505050565b60008160201b9050919050565b600067ffffffff00000000613b1984613af8565b9350801983169250808416831791505092915050565b613b3882613aa9565b613b4b613b4482613acb565b8354613b05565b8255505050565b613b5b81612c3e565b8114613b6657600080fd5b50565b60008135613b7681613b52565b80915050919050565b60008160401b9050919050565b60006fffffffffffffffff0000000000000000613ba884613b7f565b9350801983169250808416831791505092915050565b6000613bd9613bd4613bcf84612c3e565b612de9565b612c3e565b9050919050565b6000819050919050565b613bf382613bbe565b613c06613bff82613be0565b8354613b8c565b8255505050565b613c1681612c61565b8114613c2157600080fd5b50565b60008135613c3181613c0d565b80915050919050565b60008160801b9050919050565b60007fffffffffffffffffffffffffffffffff00000000000000000000000000000000613c7384613c3a565b9350801983169250808416831791505092915050565b6000613ca4613c9f613c9a84612c61565b612de9565b612c61565b9050919050565b6000819050919050565b613cbe82613c89565b613cd1613cca82613cab565b8354613c47565b8255505050565b600081016000830180613cea81613a60565b9050613cf68184613ad5565b505050600081016020830180613d0b81613a60565b9050613d178184613b2f565b505050600081016040830180613d2c81613b69565b9050613d388184613bea565b505050600081016060830180613d4d81613c24565b9050613d598184613cb5565b5050505050565b613d6a8282613cd8565b5050565b7f4f776e61626c653a206e6577206f776e657220697320746865207a65726f206160008201527f6464726573730000000000000000000000000000000000000000000000000000602082015250565b6000613dca60268361326e565b9150613dd582613d6e565b604082019050919050565b60006020820190508181036000830152613df981613dbd565b905091905056fea26469706673582212202326d1a9c7a62da29003c905828c711e4b55aa3fde337b9185795491f45127b364736f6c63430008090033",
  "linkReferences": {},
  "deployedLinkReferences": {}
}