{
  "_format": "hh-sol-artifact-1",
  "contractName": "ShrimpToken",
  "sourceName": "contracts/ShrimpToken.sol",
  "abi": [
    {
      "inputs": [
        {
          "internalType": "address[]",
          "name": "_owners",
          "type": "address[]"
        }
      ],
      "stateMutability": "nonpayable",
      "type": "constructor"
    },
    {
      "anonymous": false,
      "inputs": [
        {
          "indexed": true,
          "internalType": "address",
          "name": "owner",
          "type": "address"
        },
        {
          "indexed": true,
          "internalType": "address",
          "name": "spender",
          "type": "address"
        },
        {
          "indexed": false,
          "internalType": "uint256",
          "name": "value",
          "type": "uint256"
        }
      ],
      "name": "Approval",
      "type": "event"
    },
    {
      "anonymous": false,
      "inputs": [
        {
          "indexed": true,
          "internalType": "address",
          "name": "from",
          "type": "address"
        },
        {
          "indexed": true,
          "internalType": "address",
          "name": "to",
          "type": "address"
        },
        {
          "indexed": false,
          "internalType": "uint256",
          "name": "value",
          "type": "uint256"
        }
      ],
      "name": "Transfer",
      "type": "event"
    },
    {
      "inputs": [],
      "name": "BuyToken",
      "outputs": [],
      "stateMutability": "payable",
      "type": "function"
    },
    {
      "inputs": [
        {
          "internalType": "address",
          "name": "customerAddr",
          "type": "address"
        },
        {
          "internalType": "uint256",
          "name": "amount",
          "type": "uint256"
        }
      ],
      "name": "GiveToken",
      "outputs": [],
      "stateMutability": "nonpayable",
      "type": "function"
    },
    {
      "inputs": [],
      "name": "ShrimpBuyToken",
      "outputs": [
        {
          "internalType": "uint256",
          "name": "",
          "type": "uint256"
        }
      ],
      "stateMutability": "view",
      "type": "function"
    },
    {
      "inputs": [
        {
          "internalType": "address",
          "name": "owner",
          "type": "address"
        },
        {
          "internalType": "address",
          "name": "spender",
          "type": "address"
        }
      ],
      "name": "allowance",
      "outputs": [
        {
          "internalType": "uint256",
          "name": "",
          "type": "uint256"
        }
      ],
      "stateMutability": "view",
      "type": "function"
    },
    {
      "inputs": [
        {
          "internalType": "address",
          "name": "spender",
          "type": "address"
        },
        {
          "internalType": "uint256",
          "name": "amount",
          "type": "uint256"
        }
      ],
      "name": "approve",
      "outputs": [
        {
          "internalType": "bool",
          "name": "",
          "type": "bool"
        }
      ],
      "stateMutability": "nonpayable",
      "type": "function"
    },
    {
      "inputs": [
        {
          "internalType": "address",
          "name": "account",
          "type": "address"
        }
      ],
      "name": "balanceOf",
      "outputs": [
        {
          "internalType": "uint256",
          "name": "",
          "type": "uint256"
        }
      ],
      "stateMutability": "view",
      "type": "function"
    },
    {
      "inputs": [
        {
          "internalType": "address",
          "name": "",
          "type": "address"
        },
        {
          "internalType": "uint256",
          "name": "",
          "type": "uint256"
        }
      ],
      "name": "customerList",
      "outputs": [
        {
          "internalType": "enum ShrimpToken.Level",
          "name": "customerLevel",
          "type": "uint8"
        },
        {
          "internalType": "uint256",
          "name": "GiveToken",
          "type": "uint256"
        },
        {
          "internalType": "uint256",
          "name": "totalGiveToken",
          "type": "uint256"
        },
        {
          "internalType": "uint256",
          "name": "thresholdAmount",
          "type": "uint256"
        }
      ],
      "stateMutability": "view",
      "type": "function"
    },
    {
      "inputs": [],
      "name": "decimals",
      "outputs": [
        {
          "internalType": "uint8",
          "name": "",
          "type": "uint8"
        }
      ],
      "stateMutability": "view",
      "type": "function"
    },
    {
      "inputs": [
        {
          "internalType": "address",
          "name": "spender",
          "type": "address"
        },
        {
          "internalType": "uint256",
          "name": "subtractedValue",
          "type": "uint256"
        }
      ],
      "name": "decreaseAllowance",
      "outputs": [
        {
          "internalType": "bool",
          "name": "",
          "type": "bool"
        }
      ],
      "stateMutability": "nonpayable",
      "type": "function"
    },
    {
      "inputs": [],
      "name": "devMintBronze",
      "outputs": [],
      "stateMutability": "nonpayable",
      "type": "function"
    },
    {
      "inputs": [],
      "name": "devMintGolden",
      "outputs": [],
      "stateMutability": "nonpayable",
      "type": "function"
    },
    {
      "inputs": [],
      "name": "devMintSilver",
      "outputs": [],
      "stateMutability": "nonpayable",
      "type": "function"
    },
    {
      "inputs": [
        {
          "internalType": "address",
          "name": "spender",
          "type": "address"
        },
        {
          "internalType": "uint256",
          "name": "addedValue",
          "type": "uint256"
        }
      ],
      "name": "increaseAllowance",
      "outputs": [
        {
          "internalType": "bool",
          "name": "",
          "type": "bool"
        }
      ],
      "stateMutability": "nonpayable",
      "type": "function"
    },
    {
      "inputs": [],
      "name": "initialSupply",
      "outputs": [
        {
          "internalType": "uint256",
          "name": "",
          "type": "uint256"
        }
      ],
      "stateMutability": "view",
      "type": "function"
    },
    {
      "inputs": [
        {
          "internalType": "address",
          "name": "customerAddr",
          "type": "address"
        }
      ],
      "name": "isLevel",
      "outputs": [
        {
          "internalType": "uint256",
          "name": "LevelCount",
          "type": "uint256"
        }
      ],
      "stateMutability": "nonpayable",
      "type": "function"
    },
    {
      "inputs": [
        {
          "internalType": "address",
          "name": "",
          "type": "address"
        }
      ],
      "name": "isOwner",
      "outputs": [
        {
          "internalType": "bool",
          "name": "",
          "type": "bool"
        }
      ],
      "stateMutability": "view",
      "type": "function"
    },
    {
      "inputs": [],
      "name": "name",
      "outputs": [
        {
          "internalType": "string",
          "name": "",
          "type": "string"
        }
      ],
      "stateMutability": "view",
      "type": "function"
    },
    {
      "inputs": [
        {
          "internalType": "uint256",
          "name": "",
          "type": "uint256"
        }
      ],
      "name": "owners",
      "outputs": [
        {
          "internalType": "address",
          "name": "",
          "type": "address"
        }
      ],
      "stateMutability": "view",
      "type": "function"
    },
    {
      "inputs": [],
      "name": "people",
      "outputs": [
        {
          "internalType": "uint256",
          "name": "",
          "type": "uint256"
        }
      ],
      "stateMutability": "view",
      "type": "function"
    },
    {
      "inputs": [],
      "name": "shrimpOwner",
      "outputs": [
        {
          "internalType": "address",
          "name": "",
          "type": "address"
        }
      ],
      "stateMutability": "view",
      "type": "function"
    },
    {
      "inputs": [],
      "name": "symbol",
      "outputs": [
        {
          "internalType": "string",
          "name": "",
          "type": "string"
        }
      ],
      "stateMutability": "view",
      "type": "function"
    },
    {
      "inputs": [],
      "name": "thismonth",
      "outputs": [
        {
          "internalType": "uint256",
          "name": "",
          "type": "uint256"
        }
      ],
      "stateMutability": "view",
      "type": "function"
    },
    {
      "inputs": [],
      "name": "totalSupply",
      "outputs": [
        {
          "internalType": "uint256",
          "name": "",
          "type": "uint256"
        }
      ],
      "stateMutability": "view",
      "type": "function"
    },
    {
      "inputs": [
        {
          "internalType": "address",
          "name": "to",
          "type": "address"
        },
        {
          "internalType": "uint256",
          "name": "amount",
          "type": "uint256"
        }
      ],
      "name": "transfer",
      "outputs": [
        {
          "internalType": "bool",
          "name": "",
          "type": "bool"
        }
      ],
      "stateMutability": "nonpayable",
      "type": "function"
    },
    {
      "inputs": [
        {
          "internalType": "address",
          "name": "from",
          "type": "address"
        },
        {
          "internalType": "address",
          "name": "to",
          "type": "address"
        },
        {
          "internalType": "uint256",
          "name": "amount",
          "type": "uint256"
        }
      ],
      "name": "transferFrom",
      "outputs": [
        {
          "internalType": "bool",
          "name": "",
          "type": "bool"
        }
      ],
      "stateMutability": "nonpayable",
      "type": "function"
    }
  ],
  "bytecode": "0x608060405260006005556000600b556000600c556000600d55670de0b6b3a76400006010553480156200003157600080fd5b50604051620033f1380380620033f183398181016040528101906200005791906200094a565b6040518060400160405280600681526020017f536872696d7000000000000000000000000000000000000000000000000000008152506040518060400160405280600381526020017f53505400000000000000000000000000000000000000000000000000000000008152508160039080519060200190620000db929190620006ac565b508060049080519060200190620000f4929190620006ac565b5050506200010b33601054620003c660201b60201c565b33600760006101000a81548173ffffffffffffffffffffffffffffffffffffffff021916908373ffffffffffffffffffffffffffffffffffffffff1602179055506200016d620151804262000161919062000a03565b6200053f60201b60201c565b600a819055506000815111620001ba576040517f08c379a0000000000000000000000000000000000000000000000000000000008152600401620001b19062000a9c565b60405180910390fd5b60005b8151811015620003be576000828281518110620001df57620001de62000abe565b5b60200260200101519050600073ffffffffffffffffffffffffffffffffffffffff168173ffffffffffffffffffffffffffffffffffffffff1614156200025c576040517f08c379a0000000000000000000000000000000000000000000000000000000008152600401620002539062000b3d565b60405180910390fd5b600e60008273ffffffffffffffffffffffffffffffffffffffff1673ffffffffffffffffffffffffffffffffffffffff16815260200190815260200160002060009054906101000a900460ff1615620002ec576040517f08c379a0000000000000000000000000000000000000000000000000000000008152600401620002e39062000baf565b60405180910390fd5b6001600e60008373ffffffffffffffffffffffffffffffffffffffff1673ffffffffffffffffffffffffffffffffffffffff16815260200190815260200160002060006101000a81548160ff021916908315150217905550600f819080600181540180825580915050600190039060005260206000200160009091909190916101000a81548173ffffffffffffffffffffffffffffffffffffffff021916908373ffffffffffffffffffffffffffffffffffffffff160217905550508080620003b59062000bd1565b915050620001bd565b505062001062565b600073ffffffffffffffffffffffffffffffffffffffff168273ffffffffffffffffffffffffffffffffffffffff16141562000439576040517f08c379a0000000000000000000000000000000000000000000000000000000008152600401620004309062000c6f565b60405180910390fd5b6200044d60008383620006a260201b60201c565b806002600082825462000461919062000c91565b92505081905550806000808473ffffffffffffffffffffffffffffffffffffffff1673ffffffffffffffffffffffffffffffffffffffff1681526020019081526020016000206000828254620004b8919062000c91565b925050819055508173ffffffffffffffffffffffffffffffffffffffff16600073ffffffffffffffffffffffffffffffffffffffff167fddf252ad1be2c89b69c2b068fc378daa952ba7f163c4a11628f55a4df523b3ef836040516200051f919062000cff565b60405180910390a36200053b60008383620006a760201b60201c565b5050565b600080829050600062253d8c62010bd9836200055c919062000d26565b62000568919062000d26565b9050600062023ab18260046200057f919062000dc4565b6200058b919062000eeb565b9050600460038262023ab1620005a2919062000dc4565b620005ae919062000d26565b620005ba919062000eeb565b82620005c7919062000f5f565b9150600062164b09600184620005de919062000d26565b610fa0620005ed919062000dc4565b620005f9919062000eeb565b9050601f6004826105b56200060f919062000dc4565b6200061b919062000eeb565b8462000628919062000f5f565b62000634919062000d26565b9250600061098f8460506200064a919062000dc4565b62000656919062000eeb565b9050600b8162000667919062000eeb565b935083600c62000678919062000dc4565b60028262000687919062000d26565b62000693919062000f5f565b90508095505050505050919050565b505050565b505050565b828054620006ba906200102c565b90600052602060002090601f016020900481019282620006de57600085556200072a565b82601f10620006f957805160ff19168380011785556200072a565b828001600101855582156200072a579182015b82811115620007295782518255916020019190600101906200070c565b5b5090506200073991906200073d565b5090565b5b80821115620007585760008160009055506001016200073e565b5090565b6000604051905090565b600080fd5b600080fd5b600080fd5b6000601f19601f8301169050919050565b7f4e487b7100000000000000000000000000000000000000000000000000000000600052604160045260246000fd5b620007c08262000775565b810181811067ffffffffffffffff82111715620007e257620007e162000786565b5b80604052505050565b6000620007f76200075c565b9050620008058282620007b5565b919050565b600067ffffffffffffffff82111562000828576200082762000786565b5b602082029050602081019050919050565b600080fd5b600073ffffffffffffffffffffffffffffffffffffffff82169050919050565b60006200086b826200083e565b9050919050565b6200087d816200085e565b81146200088957600080fd5b50565b6000815190506200089d8162000872565b92915050565b6000620008ba620008b4846200080a565b620007eb565b90508083825260208201905060208402830185811115620008e057620008df62000839565b5b835b818110156200090d5780620008f888826200088c565b845260208401935050602081019050620008e2565b5050509392505050565b600082601f8301126200092f576200092e62000770565b5b815162000941848260208601620008a3565b91505092915050565b60006020828403121562000963576200096262000766565b5b600082015167ffffffffffffffff8111156200098457620009836200076b565b5b620009928482850162000917565b91505092915050565b6000819050919050565b7f4e487b7100000000000000000000000000000000000000000000000000000000600052601260045260246000fd5b7f4e487b7100000000000000000000000000000000000000000000000000000000600052601160045260246000fd5b600062000a10826200099b565b915062000a1d836200099b565b92508262000a305762000a2f620009a5565b5b828204905092915050565b600082825260208201905092915050565b7f6f776e6572732072657175697265640000000000000000000000000000000000600082015250565b600062000a84600f8362000a3b565b915062000a918262000a4c565b602082019050919050565b6000602082019050818103600083015262000ab78162000a75565b9050919050565b7f4e487b7100000000000000000000000000000000000000000000000000000000600052603260045260246000fd5b7f696e76616c6964206f776e657200000000000000000000000000000000000000600082015250565b600062000b25600d8362000a3b565b915062000b328262000aed565b602082019050919050565b6000602082019050818103600083015262000b588162000b16565b9050919050565b7f6f776e6572206e6f7420756e6971756500000000000000000000000000000000600082015250565b600062000b9760108362000a3b565b915062000ba48262000b5f565b602082019050919050565b6000602082019050818103600083015262000bca8162000b88565b9050919050565b600062000bde826200099b565b91507fffffffffffffffffffffffffffffffffffffffffffffffffffffffffffffffff82141562000c145762000c13620009d4565b5b600182019050919050565b7f45524332303a206d696e7420746f20746865207a65726f206164647265737300600082015250565b600062000c57601f8362000a3b565b915062000c648262000c1f565b602082019050919050565b6000602082019050818103600083015262000c8a8162000c48565b9050919050565b600062000c9e826200099b565b915062000cab836200099b565b9250827fffffffffffffffffffffffffffffffffffffffffffffffffffffffffffffffff0382111562000ce35762000ce2620009d4565b5b828201905092915050565b62000cf9816200099b565b82525050565b600060208201905062000d16600083018462000cee565b92915050565b6000819050919050565b600062000d338262000d1c565b915062000d408362000d1c565b9250817f7fffffffffffffffffffffffffffffffffffffffffffffffffffffffffffffff0383136000831215161562000d7e5762000d7d620009d4565b5b817f800000000000000000000000000000000000000000000000000000000000000003831260008312161562000db95762000db8620009d4565b5b828201905092915050565b600062000dd18262000d1c565b915062000dde8362000d1c565b9250827f7fffffffffffffffffffffffffffffffffffffffffffffffffffffffffffffff048211600084136000841316161562000e205762000e1f620009d4565b5b817f8000000000000000000000000000000000000000000000000000000000000000058312600084126000841316161562000e605762000e5f620009d4565b5b827f8000000000000000000000000000000000000000000000000000000000000000058212600084136000841216161562000ea05762000e9f620009d4565b5b827f7fffffffffffffffffffffffffffffffffffffffffffffffffffffffffffffff058212600084126000841216161562000ee05762000edf620009d4565b5b828202905092915050565b600062000ef88262000d1c565b915062000f058362000d1c565b92508262000f185762000f17620009a5565b5b600160000383147f80000000000000000000000000000000000000000000000000000000000000008314161562000f545762000f53620009d4565b5b828205905092915050565b600062000f6c8262000d1c565b915062000f798362000d1c565b9250827f80000000000000000000000000000000000000000000000000000000000000000182126000841215161562000fb75762000fb6620009d4565b5b827f7fffffffffffffffffffffffffffffffffffffffffffffffffffffffffffffff01821360008412161562000ff25762000ff1620009d4565b5b828203905092915050565b7f4e487b7100000000000000000000000000000000000000000000000000000000600052602260045260246000fd5b600060028204905060018216806200104557607f821691505b602082108114156200105c576200105b62000ffd565b5b50919050565b61237f80620010726000396000f3fe6080604052600436106101665760003560e01c80635e60acdc116100d1578063a95701901161008a578063dd62ed3e11610064578063dd62ed3e14610535578063e23d476614610572578063eb14222c1461059d578063ffdf881f146105c857610166565b8063a9570190146104a4578063bb11d323146104e1578063d368ebfc1461050a57610166565b80635e60acdc1461038057806370a0823114610397578063783f6af5146103d457806395d89b41146103ff578063a457c2d71461042a578063a9059cbb1461046757610166565b80632f54bf6e116101235780632f54bf6e1461028f578063313ce567146102cc578063368f9936146102f7578063378dc3dc1461030e578063395093511461033957806341852eb21461037657610166565b8063025e7c271461016b57806306fdde03146101a8578063095ea7b3146101d35780630f8a02061461021057806318160ddd1461022757806323b872dd14610252575b600080fd5b34801561017757600080fd5b50610192600480360381019061018d9190611896565b610608565b60405161019f9190611904565b60405180910390f35b3480156101b457600080fd5b506101bd610647565b6040516101ca91906119b8565b60405180910390f35b3480156101df57600080fd5b506101fa60048036038101906101f59190611a06565b6106d9565b6040516102079190611a61565b60405180910390f35b34801561021c57600080fd5b506102256106fc565b005b34801561023357600080fd5b5061023c610717565b6040516102499190611a8b565b60405180910390f35b34801561025e57600080fd5b5061027960048036038101906102749190611aa6565b610721565b6040516102869190611a61565b60405180910390f35b34801561029b57600080fd5b506102b660048036038101906102b19190611af9565b610750565b6040516102c39190611a61565b60405180910390f35b3480156102d857600080fd5b506102e1610770565b6040516102ee9190611b42565b60405180910390f35b34801561030357600080fd5b5061030c610779565b005b34801561031a57600080fd5b50610323610793565b6040516103309190611a8b565b60405180910390f35b34801561034557600080fd5b50610360600480360381019061035b9190611a06565b610799565b60405161036d9190611a61565b60405180910390f35b61037e6107d0565b005b34801561038c57600080fd5b50610395610874565b005b3480156103a357600080fd5b506103be60048036038101906103b99190611af9565b61088f565b6040516103cb9190611a8b565b60405180910390f35b3480156103e057600080fd5b506103e96108d7565b6040516103f69190611a8b565b60405180910390f35b34801561040b57600080fd5b506104146108dd565b60405161042191906119b8565b60405180910390f35b34801561043657600080fd5b50610451600480360381019061044c9190611a06565b61096f565b60405161045e9190611a61565b60405180910390f35b34801561047357600080fd5b5061048e60048036038101906104899190611a06565b6109e6565b60405161049b9190611a61565b60405180910390f35b3480156104b057600080fd5b506104cb60048036038101906104c69190611af9565b610a09565b6040516104d89190611a8b565b60405180910390f35b3480156104ed57600080fd5b5061050860048036038101906105039190611a06565b610f9b565b005b34801561051657600080fd5b5061051f61110e565b60405161052c9190611a8b565b60405180910390f35b34801561054157600080fd5b5061055c60048036038101906105579190611b5d565b611114565b6040516105699190611a8b565b60405180910390f35b34801561057e57600080fd5b5061058761119b565b6040516105949190611a8b565b60405180910390f35b3480156105a957600080fd5b506105b26111a1565b6040516105bf9190611904565b60405180910390f35b3480156105d457600080fd5b506105ef60048036038101906105ea9190611a06565b6111c7565b6040516105ff9493929190611c14565b60405180910390f35b600f818154811061061857600080fd5b906000526020600020016000915054906101000a900473ffffffffffffffffffffffffffffffffffffffff1681565b60606003805461065690611c88565b80601f016020809104026020016040519081016040528092919081815260200182805461068290611c88565b80156106cf5780601f106106a4576101008083540402835291602001916106cf565b820191906000526020600020905b8154815290600101906020018083116106b257829003601f168201915b5050505050905090565b6000806106e4611211565b90506106f1818585611219565b600191505092915050565b610715336103e86010546107109190611ce9565b6113e4565b565b6000600254905090565b60008061072c611211565b9050610739858285611544565b6107448585856115d0565b60019150509392505050565b600e6020528060005260406000206000915054906101000a900460ff1681565b60006012905090565b61079133606460105461078c9190611ce9565b6113e4565b565b60105481565b6000806107a4611211565b90506107c58185856107b68589611114565b6107c09190611d43565b611219565b600191505092915050565b60003411610813576040517f08c379a000000000000000000000000000000000000000000000000000000000815260040161080a90611de5565b60405180910390fd5b60003490506000600290506000818361082c9190611e34565b905061085b600760009054906101000a900473ffffffffffffffffffffffffffffffffffffffff1633836115d0565b80600d546108699190611d43565b600d81905550505050565b61088d3361015e6010546108889190611ce9565b6113e4565b565b60008060008373ffffffffffffffffffffffffffffffffffffffff1673ffffffffffffffffffffffffffffffffffffffff168152602001908152602001600020549050919050565b60055481565b6060600480546108ec90611c88565b80601f016020809104026020016040519081016040528092919081815260200182805461091890611c88565b80156109655780601f1061093a57610100808354040283529160200191610965565b820191906000526020600020905b81548152906001019060200180831161094857829003601f168201915b5050505050905090565b60008061097a611211565b905060006109888286611114565b9050838110156109cd576040517f08c379a00000000000000000000000000000000000000000000000000000000081526004016109c490611ed7565b60405180910390fd5b6109da8286868403611219565b60019250505092915050565b6000806109f1611211565b90506109fe8185856115d0565b600191505092915050565b60006064600660008473ffffffffffffffffffffffffffffffffffffffff1673ffffffffffffffffffffffffffffffffffffffff1681526020019081526020016000206000600a548152602001908152602001600020600301541015610aa4576040517f08c379a0000000000000000000000000000000000000000000000000000000008152600401610a9b90611f43565b60405180910390fd5b600660008373ffffffffffffffffffffffffffffffffffffffff1673ffffffffffffffffffffffffffffffffffffffff1681526020019081526020016000206000600a5481526020019081526020016000206003015461015e118015610b6057506064600660008473ffffffffffffffffffffffffffffffffffffffff1673ffffffffffffffffffffffffffffffffffffffff1681526020019081526020016000206000600a5481526020019081526020016000206003015410155b15610c69576001600660008473ffffffffffffffffffffffffffffffffffffffff1673ffffffffffffffffffffffffffffffffffffffff1681526020019081526020016000206000600a54815260200190815260200160002060000160006101000a81548160ff02191690836003811115610bde57610bdd611b9d565b5b02179055506064600c54610bf29190611f63565b600660008473ffffffffffffffffffffffffffffffffffffffff1673ffffffffffffffffffffffffffffffffffffffff1681526020019081526020016000206000600a548152602001908152602001600020600301819055506064600c54610c5a9190611f63565b600c8190555060019050610f96565b600660008373ffffffffffffffffffffffffffffffffffffffff1673ffffffffffffffffffffffffffffffffffffffff1681526020019081526020016000206000600a548152602001908152602001600020600301546103e8118015610d26575061015e600660008473ffffffffffffffffffffffffffffffffffffffff1673ffffffffffffffffffffffffffffffffffffffff1681526020019081526020016000206000600a5481526020019081526020016000206003015410155b15610e31576002600660008473ffffffffffffffffffffffffffffffffffffffff1673ffffffffffffffffffffffffffffffffffffffff1681526020019081526020016000206000600a54815260200190815260200160002060000160006101000a81548160ff02191690836003811115610da457610da3611b9d565b5b021790555061015e600c54610db99190611f63565b600660008473ffffffffffffffffffffffffffffffffffffffff1673ffffffffffffffffffffffffffffffffffffffff1681526020019081526020016000206000600a5481526020019081526020016000206003018190555061015e600c54610e229190611f63565b600c8190555060029050610f96565b6103e8600660008473ffffffffffffffffffffffffffffffffffffffff1673ffffffffffffffffffffffffffffffffffffffff1681526020019081526020016000206000600a5481526020019081526020016000206003015410610f95576003600660008473ffffffffffffffffffffffffffffffffffffffff1673ffffffffffffffffffffffffffffffffffffffff1681526020019081526020016000206000600a54815260200190815260200160002060000160006101000a81548160ff02191690836003811115610f0857610f07611b9d565b5b02179055506103e8600c54610f1d9190611f63565b600660008473ffffffffffffffffffffffffffffffffffffffff1673ffffffffffffffffffffffffffffffffffffffff1681526020019081526020016000206000600a548152602001908152602001600020600301819055506103e8600c54610f869190611f63565b600c8190555060039050610f96565b5b919050565b80600b54610fa99190611d43565b600b8190555080600c54610fbd9190611d43565b600c81905550610fcd82826109e6565b506040518060800160405280600660008573ffffffffffffffffffffffffffffffffffffffff1673ffffffffffffffffffffffffffffffffffffffff1681526020019081526020016000206000600a54815260200190815260200160002060000160009054906101000a900460ff16600381111561104e5761104d611b9d565b5b8152602001828152602001600b548152602001600c54815250600660008473ffffffffffffffffffffffffffffffffffffffff1673ffffffffffffffffffffffffffffffffffffffff1681526020019081526020016000206000600a54815260200190815260200160002060008201518160000160006101000a81548160ff021916908360038111156110e4576110e3611b9d565b5b02179055506020820151816001015560408201518160020155606082015181600301559050505050565b600a5481565b6000600160008473ffffffffffffffffffffffffffffffffffffffff1673ffffffffffffffffffffffffffffffffffffffff16815260200190815260200160002060008373ffffffffffffffffffffffffffffffffffffffff1673ffffffffffffffffffffffffffffffffffffffff16815260200190815260200160002054905092915050565b600d5481565b600760009054906101000a900473ffffffffffffffffffffffffffffffffffffffff1681565b6006602052816000526040600020602052806000526040600020600091509150508060000160009054906101000a900460ff16908060010154908060020154908060030154905084565b600033905090565b600073ffffffffffffffffffffffffffffffffffffffff168373ffffffffffffffffffffffffffffffffffffffff161415611289576040517f08c379a000000000000000000000000000000000000000000000000000000000815260040161128090612009565b60405180910390fd5b600073ffffffffffffffffffffffffffffffffffffffff168273ffffffffffffffffffffffffffffffffffffffff1614156112f9576040517f08c379a00000000000000000000000000000000000000000000000000000000081526004016112f09061209b565b60405180910390fd5b80600160008573ffffffffffffffffffffffffffffffffffffffff1673ffffffffffffffffffffffffffffffffffffffff16815260200190815260200160002060008473ffffffffffffffffffffffffffffffffffffffff1673ffffffffffffffffffffffffffffffffffffffff168152602001908152602001600020819055508173ffffffffffffffffffffffffffffffffffffffff168373ffffffffffffffffffffffffffffffffffffffff167f8c5be1e5ebec7d5bd14f71427d1e84f3dd0314c0f7b2291e5b200ac8c7c3b925836040516113d79190611a8b565b60405180910390a3505050565b600073ffffffffffffffffffffffffffffffffffffffff168273ffffffffffffffffffffffffffffffffffffffff161415611454576040517f08c379a000000000000000000000000000000000000000000000000000000000815260040161144b90612107565b60405180910390fd5b61146060008383611851565b80600260008282546114729190611d43565b92505081905550806000808473ffffffffffffffffffffffffffffffffffffffff1673ffffffffffffffffffffffffffffffffffffffff16815260200190815260200160002060008282546114c79190611d43565b925050819055508173ffffffffffffffffffffffffffffffffffffffff16600073ffffffffffffffffffffffffffffffffffffffff167fddf252ad1be2c89b69c2b068fc378daa952ba7f163c4a11628f55a4df523b3ef8360405161152c9190611a8b565b60405180910390a361154060008383611856565b5050565b60006115508484611114565b90507fffffffffffffffffffffffffffffffffffffffffffffffffffffffffffffffff81146115ca57818110156115bc576040517f08c379a00000000000000000000000000000000000000000000000000000000081526004016115b390612173565b60405180910390fd5b6115c98484848403611219565b5b50505050565b600073ffffffffffffffffffffffffffffffffffffffff168373ffffffffffffffffffffffffffffffffffffffff161415611640576040517f08c379a000000000000000000000000000000000000000000000000000000000815260040161163790612205565b60405180910390fd5b600073ffffffffffffffffffffffffffffffffffffffff168273ffffffffffffffffffffffffffffffffffffffff1614156116b0576040517f08c379a00000000000000000000000000000000000000000000000000000000081526004016116a790612297565b60405180910390fd5b6116bb838383611851565b60008060008573ffffffffffffffffffffffffffffffffffffffff1673ffffffffffffffffffffffffffffffffffffffff16815260200190815260200160002054905081811015611741576040517f08c379a000000000000000000000000000000000000000000000000000000000815260040161173890612329565b60405180910390fd5b8181036000808673ffffffffffffffffffffffffffffffffffffffff1673ffffffffffffffffffffffffffffffffffffffff16815260200190815260200160002081905550816000808573ffffffffffffffffffffffffffffffffffffffff1673ffffffffffffffffffffffffffffffffffffffff16815260200190815260200160002060008282546117d49190611d43565b925050819055508273ffffffffffffffffffffffffffffffffffffffff168473ffffffffffffffffffffffffffffffffffffffff167fddf252ad1be2c89b69c2b068fc378daa952ba7f163c4a11628f55a4df523b3ef846040516118389190611a8b565b60405180910390a361184b848484611856565b50505050565b505050565b505050565b600080fd5b6000819050919050565b61187381611860565b811461187e57600080fd5b50565b6000813590506118908161186a565b92915050565b6000602082840312156118ac576118ab61185b565b5b60006118ba84828501611881565b91505092915050565b600073ffffffffffffffffffffffffffffffffffffffff82169050919050565b60006118ee826118c3565b9050919050565b6118fe816118e3565b82525050565b600060208201905061191960008301846118f5565b92915050565b600081519050919050565b600082825260208201905092915050565b60005b8381101561195957808201518184015260208101905061193e565b83811115611968576000848401525b50505050565b6000601f19601f8301169050919050565b600061198a8261191f565b611994818561192a565b93506119a481856020860161193b565b6119ad8161196e565b840191505092915050565b600060208201905081810360008301526119d2818461197f565b905092915050565b6119e3816118e3565b81146119ee57600080fd5b50565b600081359050611a00816119da565b92915050565b60008060408385031215611a1d57611a1c61185b565b5b6000611a2b858286016119f1565b9250506020611a3c85828601611881565b9150509250929050565b60008115159050919050565b611a5b81611a46565b82525050565b6000602082019050611a766000830184611a52565b92915050565b611a8581611860565b82525050565b6000602082019050611aa06000830184611a7c565b92915050565b600080600060608486031215611abf57611abe61185b565b5b6000611acd868287016119f1565b9350506020611ade868287016119f1565b9250506040611aef86828701611881565b9150509250925092565b600060208284031215611b0f57611b0e61185b565b5b6000611b1d848285016119f1565b91505092915050565b600060ff82169050919050565b611b3c81611b26565b82525050565b6000602082019050611b576000830184611b33565b92915050565b60008060408385031215611b7457611b7361185b565b5b6000611b82858286016119f1565b9250506020611b93858286016119f1565b9150509250929050565b7f4e487b7100000000000000000000000000000000000000000000000000000000600052602160045260246000fd5b60048110611bdd57611bdc611b9d565b5b50565b6000819050611bee82611bcc565b919050565b6000611bfe82611be0565b9050919050565b611c0e81611bf3565b82525050565b6000608082019050611c296000830187611c05565b611c366020830186611a7c565b611c436040830185611a7c565b611c506060830184611a7c565b95945050505050565b7f4e487b7100000000000000000000000000000000000000000000000000000000600052602260045260246000fd5b60006002820490506001821680611ca057607f821691505b60208210811415611cb457611cb3611c59565b5b50919050565b7f4e487b7100000000000000000000000000000000000000000000000000000000600052601160045260246000fd5b6000611cf482611860565b9150611cff83611860565b9250817fffffffffffffffffffffffffffffffffffffffffffffffffffffffffffffffff0483118215151615611d3857611d37611cba565b5b828202905092915050565b6000611d4e82611860565b9150611d5983611860565b9250827fffffffffffffffffffffffffffffffffffffffffffffffffffffffffffffffff03821115611d8e57611d8d611cba565b5b828201905092915050565b7f706c656173652073656e6420736f6d6520455448000000000000000000000000600082015250565b6000611dcf60148361192a565b9150611dda82611d99565b602082019050919050565b60006020820190508181036000830152611dfe81611dc2565b9050919050565b7f4e487b7100000000000000000000000000000000000000000000000000000000600052601260045260246000fd5b6000611e3f82611860565b9150611e4a83611860565b925082611e5a57611e59611e05565b5b828204905092915050565b7f45524332303a2064656372656173656420616c6c6f77616e63652062656c6f7760008201527f207a65726f000000000000000000000000000000000000000000000000000000602082015250565b6000611ec160258361192a565b9150611ecc82611e65565b604082019050919050565b60006020820190508181036000830152611ef081611eb4565b9050919050565b7f6e6f7420656e6f75676820746f6b656e00000000000000000000000000000000600082015250565b6000611f2d60108361192a565b9150611f3882611ef7565b602082019050919050565b60006020820190508181036000830152611f5c81611f20565b9050919050565b6000611f6e82611860565b9150611f7983611860565b925082821015611f8c57611f8b611cba565b5b828203905092915050565b7f45524332303a20617070726f76652066726f6d20746865207a65726f2061646460008201527f7265737300000000000000000000000000000000000000000000000000000000602082015250565b6000611ff360248361192a565b9150611ffe82611f97565b604082019050919050565b6000602082019050818103600083015261202281611fe6565b9050919050565b7f45524332303a20617070726f766520746f20746865207a65726f20616464726560008201527f7373000000000000000000000000000000000000000000000000000000000000602082015250565b600061208560228361192a565b915061209082612029565b604082019050919050565b600060208201905081810360008301526120b481612078565b9050919050565b7f45524332303a206d696e7420746f20746865207a65726f206164647265737300600082015250565b60006120f1601f8361192a565b91506120fc826120bb565b602082019050919050565b60006020820190508181036000830152612120816120e4565b9050919050565b7f45524332303a20696e73756666696369656e7420616c6c6f77616e6365000000600082015250565b600061215d601d8361192a565b915061216882612127565b602082019050919050565b6000602082019050818103600083015261218c81612150565b9050919050565b7f45524332303a207472616e736665722066726f6d20746865207a65726f20616460008201527f6472657373000000000000000000000000000000000000000000000000000000602082015250565b60006121ef60258361192a565b91506121fa82612193565b604082019050919050565b6000602082019050818103600083015261221e816121e2565b9050919050565b7f45524332303a207472616e7366657220746f20746865207a65726f206164647260008201527f6573730000000000000000000000000000000000000000000000000000000000602082015250565b600061228160238361192a565b915061228c82612225565b604082019050919050565b600060208201905081810360008301526122b081612274565b9050919050565b7f45524332303a207472616e7366657220616d6f756e742065786365656473206260008201527f616c616e63650000000000000000000000000000000000000000000000000000602082015250565b600061231360268361192a565b915061231e826122b7565b604082019050919050565b6000602082019050818103600083015261234281612306565b905091905056fea26469706673582212201831f0c0b21d51f2b034cefd89d86efe3db58b8b99027d1b9ebeb96796dd922264736f6c63430008090033",
  "linkReferences": {},
  "deployedLinkReferences": {}
}