{
  "_format": "hh-sol-artifact-1",
  "contractName": "ShrimpNFT",
  "sourceName": "contracts/ShrimpNFT.sol",
  "abi": [
    {
      "inputs": [
        {
          "internalType": "address",
          "name": "_stakingToken",
          "type": "address"
        }
      ],
      "stateMutability": "nonpayable",
      "type": "constructor"
    },
    {
      "anonymous": false,
      "inputs": [
        {
          "indexed": true,
          "internalType": "address",
          "name": "account",
          "type": "address"
        },
        {
          "indexed": true,
          "internalType": "address",
          "name": "operator",
          "type": "address"
        },
        {
          "indexed": false,
          "internalType": "bool",
          "name": "approved",
          "type": "bool"
        }
      ],
      "name": "ApprovalForAll",
      "type": "event"
    },
    {
      "anonymous": false,
      "inputs": [
        {
          "indexed": true,
          "internalType": "address",
          "name": "previousOwner",
          "type": "address"
        },
        {
          "indexed": true,
          "internalType": "address",
          "name": "newOwner",
          "type": "address"
        }
      ],
      "name": "OwnershipTransferred",
      "type": "event"
    },
    {
      "anonymous": false,
      "inputs": [
        {
          "indexed": true,
          "internalType": "address",
          "name": "operator",
          "type": "address"
        },
        {
          "indexed": true,
          "internalType": "address",
          "name": "from",
          "type": "address"
        },
        {
          "indexed": true,
          "internalType": "address",
          "name": "to",
          "type": "address"
        },
        {
          "indexed": false,
          "internalType": "uint256[]",
          "name": "ids",
          "type": "uint256[]"
        },
        {
          "indexed": false,
          "internalType": "uint256[]",
          "name": "values",
          "type": "uint256[]"
        }
      ],
      "name": "TransferBatch",
      "type": "event"
    },
    {
      "anonymous": false,
      "inputs": [
        {
          "indexed": true,
          "internalType": "address",
          "name": "operator",
          "type": "address"
        },
        {
          "indexed": true,
          "internalType": "address",
          "name": "from",
          "type": "address"
        },
        {
          "indexed": true,
          "internalType": "address",
          "name": "to",
          "type": "address"
        },
        {
          "indexed": false,
          "internalType": "uint256",
          "name": "id",
          "type": "uint256"
        },
        {
          "indexed": false,
          "internalType": "uint256",
          "name": "value",
          "type": "uint256"
        }
      ],
      "name": "TransferSingle",
      "type": "event"
    },
    {
      "anonymous": false,
      "inputs": [
        {
          "indexed": false,
          "internalType": "string",
          "name": "value",
          "type": "string"
        },
        {
          "indexed": true,
          "internalType": "uint256",
          "name": "id",
          "type": "uint256"
        }
      ],
      "name": "URI",
      "type": "event"
    },
    {
      "inputs": [],
      "name": "Copper_Shrimp",
      "outputs": [
        {
          "internalType": "uint256",
          "name": "",
          "type": "uint256"
        }
      ],
      "stateMutability": "view",
      "type": "function"
    },
    {
      "inputs": [],
      "name": "GetNFT",
      "outputs": [
        {
          "internalType": "string",
          "name": "",
          "type": "string"
        }
      ],
      "stateMutability": "nonpayable",
      "type": "function"
    },
    {
      "inputs": [],
      "name": "Golden_Shrimp",
      "outputs": [
        {
          "internalType": "uint256",
          "name": "",
          "type": "uint256"
        }
      ],
      "stateMutability": "view",
      "type": "function"
    },
    {
      "inputs": [
        {
          "internalType": "address",
          "name": "UserAddress",
          "type": "address"
        }
      ],
      "name": "InquireUserNFT",
      "outputs": [
        {
          "internalType": "string",
          "name": "",
          "type": "string"
        }
      ],
      "stateMutability": "view",
      "type": "function"
    },
    {
      "inputs": [],
      "name": "Silver_Shrimp",
      "outputs": [
        {
          "internalType": "uint256",
          "name": "",
          "type": "uint256"
        }
      ],
      "stateMutability": "view",
      "type": "function"
    },
    {
      "inputs": [
        {
          "internalType": "address",
          "name": "account",
          "type": "address"
        },
        {
          "internalType": "uint256",
          "name": "id",
          "type": "uint256"
        }
      ],
      "name": "balanceOf",
      "outputs": [
        {
          "internalType": "uint256",
          "name": "",
          "type": "uint256"
        }
      ],
      "stateMutability": "view",
      "type": "function"
    },
    {
      "inputs": [
        {
          "internalType": "address[]",
          "name": "accounts",
          "type": "address[]"
        },
        {
          "internalType": "uint256[]",
          "name": "ids",
          "type": "uint256[]"
        }
      ],
      "name": "balanceOfBatch",
      "outputs": [
        {
          "internalType": "uint256[]",
          "name": "",
          "type": "uint256[]"
        }
      ],
      "stateMutability": "view",
      "type": "function"
    },
    {
      "inputs": [
        {
          "internalType": "address",
          "name": "account",
          "type": "address"
        },
        {
          "internalType": "uint256",
          "name": "id",
          "type": "uint256"
        },
        {
          "internalType": "uint256",
          "name": "value",
          "type": "uint256"
        }
      ],
      "name": "burn",
      "outputs": [],
      "stateMutability": "nonpayable",
      "type": "function"
    },
    {
      "inputs": [
        {
          "internalType": "address",
          "name": "account",
          "type": "address"
        },
        {
          "internalType": "uint256[]",
          "name": "ids",
          "type": "uint256[]"
        },
        {
          "internalType": "uint256[]",
          "name": "values",
          "type": "uint256[]"
        }
      ],
      "name": "burnBatch",
      "outputs": [],
      "stateMutability": "nonpayable",
      "type": "function"
    },
    {
      "inputs": [
        {
          "internalType": "address",
          "name": "account",
          "type": "address"
        },
        {
          "internalType": "address",
          "name": "operator",
          "type": "address"
        }
      ],
      "name": "isApprovedForAll",
      "outputs": [
        {
          "internalType": "bool",
          "name": "",
          "type": "bool"
        }
      ],
      "stateMutability": "view",
      "type": "function"
    },
    {
      "inputs": [
        {
          "internalType": "address",
          "name": "account",
          "type": "address"
        },
        {
          "internalType": "uint256",
          "name": "id",
          "type": "uint256"
        },
        {
          "internalType": "uint256",
          "name": "amount",
          "type": "uint256"
        },
        {
          "internalType": "bytes",
          "name": "data",
          "type": "bytes"
        }
      ],
      "name": "mint",
      "outputs": [],
      "stateMutability": "nonpayable",
      "type": "function"
    },
    {
      "inputs": [
        {
          "internalType": "address",
          "name": "to",
          "type": "address"
        },
        {
          "internalType": "uint256[]",
          "name": "ids",
          "type": "uint256[]"
        },
        {
          "internalType": "uint256[]",
          "name": "amounts",
          "type": "uint256[]"
        },
        {
          "internalType": "bytes",
          "name": "data",
          "type": "bytes"
        }
      ],
      "name": "mintBatch",
      "outputs": [],
      "stateMutability": "nonpayable",
      "type": "function"
    },
    {
      "inputs": [],
      "name": "owner",
      "outputs": [
        {
          "internalType": "address",
          "name": "",
          "type": "address"
        }
      ],
      "stateMutability": "view",
      "type": "function"
    },
    {
      "inputs": [],
      "name": "renounceOwnership",
      "outputs": [],
      "stateMutability": "nonpayable",
      "type": "function"
    },
    {
      "inputs": [
        {
          "internalType": "address",
          "name": "from",
          "type": "address"
        },
        {
          "internalType": "address",
          "name": "to",
          "type": "address"
        },
        {
          "internalType": "uint256[]",
          "name": "ids",
          "type": "uint256[]"
        },
        {
          "internalType": "uint256[]",
          "name": "amounts",
          "type": "uint256[]"
        },
        {
          "internalType": "bytes",
          "name": "data",
          "type": "bytes"
        }
      ],
      "name": "safeBatchTransferFrom",
      "outputs": [],
      "stateMutability": "nonpayable",
      "type": "function"
    },
    {
      "inputs": [
        {
          "internalType": "address",
          "name": "from",
          "type": "address"
        },
        {
          "internalType": "address",
          "name": "to",
          "type": "address"
        },
        {
          "internalType": "uint256",
          "name": "id",
          "type": "uint256"
        },
        {
          "internalType": "uint256",
          "name": "amount",
          "type": "uint256"
        },
        {
          "internalType": "bytes",
          "name": "data",
          "type": "bytes"
        }
      ],
      "name": "safeTransferFrom",
      "outputs": [],
      "stateMutability": "nonpayable",
      "type": "function"
    },
    {
      "inputs": [
        {
          "internalType": "address",
          "name": "operator",
          "type": "address"
        },
        {
          "internalType": "bool",
          "name": "approved",
          "type": "bool"
        }
      ],
      "name": "setApprovalForAll",
      "outputs": [],
      "stateMutability": "nonpayable",
      "type": "function"
    },
    {
      "inputs": [
        {
          "internalType": "string",
          "name": "newuri",
          "type": "string"
        }
      ],
      "name": "setURI",
      "outputs": [],
      "stateMutability": "nonpayable",
      "type": "function"
    },
    {
      "inputs": [],
      "name": "stakingToken",
      "outputs": [
        {
          "internalType": "contract IShrimp",
          "name": "",
          "type": "address"
        }
      ],
      "stateMutability": "view",
      "type": "function"
    },
    {
      "inputs": [
        {
          "internalType": "bytes4",
          "name": "interfaceId",
          "type": "bytes4"
        }
      ],
      "name": "supportsInterface",
      "outputs": [
        {
          "internalType": "bool",
          "name": "",
          "type": "bool"
        }
      ],
      "stateMutability": "view",
      "type": "function"
    },
    {
      "inputs": [
        {
          "internalType": "address",
          "name": "newOwner",
          "type": "address"
        }
      ],
      "name": "transferOwnership",
      "outputs": [],
      "stateMutability": "nonpayable",
      "type": "function"
    },
    {
      "inputs": [
        {
          "internalType": "uint256",
          "name": "",
          "type": "uint256"
        }
      ],
      "name": "uri",
      "outputs": [
        {
          "internalType": "string",
          "name": "",
          "type": "string"
        }
      ],
      "stateMutability": "view",
      "type": "function"
    }
  ],
  "bytecode": "0x60806040523480156200001157600080fd5b5060405162005072380380620050728339818101604052810190620000379190620007f7565b6040518060600160405280602781526020016200504b6027913962000062816200014360201b60201c565b5062000083620000776200015f60201b60201c565b6200016760201b60201c565b620000ab336000633b9aca00604051806020016040528060008152506200022d60201b60201c565b620000d3336001633b9aca00604051806020016040528060008152506200022d60201b60201c565b620000fb336002633b9aca00604051806020016040528060008152506200022d60201b60201c565b80600460006101000a81548173ffffffffffffffffffffffffffffffffffffffff021916908373ffffffffffffffffffffffffffffffffffffffff1602179055505062000ebb565b80600290805190602001906200015b929190620006d3565b5050565b600033905090565b6000600360009054906101000a900473ffffffffffffffffffffffffffffffffffffffff16905081600360006101000a81548173ffffffffffffffffffffffffffffffffffffffff021916908373ffffffffffffffffffffffffffffffffffffffff1602179055508173ffffffffffffffffffffffffffffffffffffffff168173ffffffffffffffffffffffffffffffffffffffff167f8be0079c531659141344cd1fd0a4f28419497f9722a3daafe3b4186f6b6457e060405160405180910390a35050565b600073ffffffffffffffffffffffffffffffffffffffff168473ffffffffffffffffffffffffffffffffffffffff161415620002a0576040517f08c379a00000000000000000000000000000000000000000000000000000000081526004016200029790620008b0565b60405180910390fd5b6000620002b26200015f60201b60201c565b90506000620002c7856200041560201b60201c565b90506000620002dc856200041560201b60201c565b9050620002f5836000898585896200049660201b60201c565b8460008088815260200190815260200160002060008973ffffffffffffffffffffffffffffffffffffffff1673ffffffffffffffffffffffffffffffffffffffff16815260200190815260200160002060008282546200035691906200090b565b925050819055508673ffffffffffffffffffffffffffffffffffffffff16600073ffffffffffffffffffffffffffffffffffffffff168473ffffffffffffffffffffffffffffffffffffffff167fc3d58168c5ae7397731d063d5bbf3d657854427343f4c083240f7aacaa2d0f628989604051620003d692919062000979565b60405180910390a4620003f5836000898585896200049e60201b60201c565b6200040c83600089898989620004a660201b60201c565b50505050505050565b60606000600167ffffffffffffffff811115620004375762000436620009a6565b5b604051908082528060200260200182016040528015620004665781602001602082028036833780820191505090505b5090508281600081518110620004815762000480620009d5565b5b60200260200101818152505080915050919050565b505050505050565b505050505050565b620004d28473ffffffffffffffffffffffffffffffffffffffff16620006b060201b6200117f1760201c565b15620006a8578373ffffffffffffffffffffffffffffffffffffffff1663f23a6e6187878686866040518663ffffffff1660e01b81526004016200051b95949392919062000ab9565b602060405180830381600087803b1580156200053657600080fd5b505af19250505080156200056a57506040513d601f19601f8201168201806040525081019062000567919062000b7a565b60015b6200061c576200057962000bb9565b806308c379a01415620005dd57506200059162000c14565b806200059e5750620005df565b806040517f08c379a0000000000000000000000000000000000000000000000000000000008152600401620005d4919062000d02565b60405180910390fd5b505b6040517f08c379a0000000000000000000000000000000000000000000000000000000008152600401620006139062000d9c565b60405180910390fd5b63f23a6e6160e01b7bffffffffffffffffffffffffffffffffffffffffffffffffffffffff1916817bffffffffffffffffffffffffffffffffffffffffffffffffffffffff191614620006a6576040517f08c379a00000000000000000000000000000000000000000000000000000000081526004016200069d9062000e34565b60405180910390fd5b505b505050505050565b6000808273ffffffffffffffffffffffffffffffffffffffff163b119050919050565b828054620006e19062000e85565b90600052602060002090601f01602090048101928262000705576000855562000751565b82601f106200072057805160ff191683800117855562000751565b8280016001018555821562000751579182015b828111156200075057825182559160200191906001019062000733565b5b50905062000760919062000764565b5090565b5b808211156200077f57600081600090555060010162000765565b5090565b6000604051905090565b600080fd5b600073ffffffffffffffffffffffffffffffffffffffff82169050919050565b6000620007bf8262000792565b9050919050565b620007d181620007b2565b8114620007dd57600080fd5b50565b600081519050620007f181620007c6565b92915050565b60006020828403121562000810576200080f6200078d565b5b60006200082084828501620007e0565b91505092915050565b600082825260208201905092915050565b7f455243313135353a206d696e7420746f20746865207a65726f2061646472657360008201527f7300000000000000000000000000000000000000000000000000000000000000602082015250565b60006200089860218362000829565b9150620008a5826200083a565b604082019050919050565b60006020820190508181036000830152620008cb8162000889565b9050919050565b6000819050919050565b7f4e487b7100000000000000000000000000000000000000000000000000000000600052601160045260246000fd5b60006200091882620008d2565b91506200092583620008d2565b9250827fffffffffffffffffffffffffffffffffffffffffffffffffffffffffffffffff038211156200095d576200095c620008dc565b5b828201905092915050565b6200097381620008d2565b82525050565b600060408201905062000990600083018562000968565b6200099f602083018462000968565b9392505050565b7f4e487b7100000000000000000000000000000000000000000000000000000000600052604160045260246000fd5b7f4e487b7100000000000000000000000000000000000000000000000000000000600052603260045260246000fd5b62000a0f81620007b2565b82525050565b600081519050919050565b600082825260208201905092915050565b60005b8381101562000a5157808201518184015260208101905062000a34565b8381111562000a61576000848401525b50505050565b6000601f19601f8301169050919050565b600062000a858262000a15565b62000a91818562000a20565b935062000aa381856020860162000a31565b62000aae8162000a67565b840191505092915050565b600060a08201905062000ad0600083018862000a04565b62000adf602083018762000a04565b62000aee604083018662000968565b62000afd606083018562000968565b818103608083015262000b11818462000a78565b90509695505050505050565b60007fffffffff0000000000000000000000000000000000000000000000000000000082169050919050565b62000b548162000b1d565b811462000b6057600080fd5b50565b60008151905062000b748162000b49565b92915050565b60006020828403121562000b935762000b926200078d565b5b600062000ba38482850162000b63565b91505092915050565b60008160e01c9050919050565b600060033d111562000bdb5760046000803e62000bd860005162000bac565b90505b90565b62000be98262000a67565b810181811067ffffffffffffffff8211171562000c0b5762000c0a620009a6565b5b80604052505050565b600060443d101562000c265762000cb3565b62000c3062000783565b60043d036004823e80513d602482011167ffffffffffffffff8211171562000c5a57505062000cb3565b808201805167ffffffffffffffff81111562000c7a575050505062000cb3565b80602083010160043d03850181111562000c9957505050505062000cb3565b62000caa8260200185018662000bde565b82955050505050505b90565b600081519050919050565b600062000cce8262000cb6565b62000cda818562000829565b935062000cec81856020860162000a31565b62000cf78162000a67565b840191505092915050565b6000602082019050818103600083015262000d1e818462000cc1565b905092915050565b7f455243313135353a207472616e7366657220746f206e6f6e204552433131353560008201527f526563656976657220696d706c656d656e746572000000000000000000000000602082015250565b600062000d8460348362000829565b915062000d918262000d26565b604082019050919050565b6000602082019050818103600083015262000db78162000d75565b9050919050565b7f455243313135353a204552433131353552656365697665722072656a6563746560008201527f6420746f6b656e73000000000000000000000000000000000000000000000000602082015250565b600062000e1c60288362000829565b915062000e298262000dbe565b604082019050919050565b6000602082019050818103600083015262000e4f8162000e0d565b9050919050565b7f4e487b7100000000000000000000000000000000000000000000000000000000600052602260045260246000fd5b6000600282049050600182168062000e9e57607f821691505b6020821081141562000eb55762000eb462000e56565b5b50919050565b6141808062000ecb6000396000f3fe608060405234801561001057600080fd5b50600436106101415760003560e01c8063715018a6116100b8578063c522f3831161007c578063c522f38314610360578063e985e9c51461037e578063f242432a146103ae578063f2fde38b146103ca578063f3968902146103e6578063f5298aca1461040457610141565b8063715018a6146102e257806372f702f3146102ec578063731133e91461030a5780638da5cb5b14610326578063a22cb4651461034457610141565b806324ffdf2e1161010a57806324ffdf2e1461020e5780632eb2c2d61461023e5780634ad8be9f1461025a5780634e1273f4146102785780635d7eb4bc146102a85780636b20c454146102c657610141565b8062fdd58e1461014657806301ffc9a71461017657806302fe5305146101a65780630e89341c146101c25780631f7fdffa146101f2575b600080fd5b610160600480360381019061015b91906128b6565b610420565b60405161016d9190612905565b60405180910390f35b610190600480360381019061018b9190612978565b6104e9565b60405161019d91906129c0565b60405180910390f35b6101c060048036038101906101bb9190612b21565b6105cb565b005b6101dc60048036038101906101d79190612b6a565b610653565b6040516101e99190612c1f565b60405180910390f35b61020c60048036038101906102079190612daa565b6106e7565b005b61022860048036038101906102239190612e65565b610775565b6040516102359190612c1f565b60405180910390f35b61025860048036038101906102539190612e92565b6108b8565b005b610262610959565b60405161026f9190612905565b60405180910390f35b610292600480360381019061028d9190613024565b61095e565b60405161029f919061315a565b60405180910390f35b6102b0610a77565b6040516102bd9190612905565b60405180910390f35b6102e060048036038101906102db919061317c565b610a7c565b005b6102ea610b19565b005b6102f4610ba1565b6040516103019190613266565b60405180910390f35b610324600480360381019061031f9190613281565b610bc7565b005b61032e610c55565b60405161033b9190613313565b60405180910390f35b61035e6004803603810190610359919061335a565b610c7f565b005b610368610c95565b6040516103759190612905565b60405180910390f35b6103986004803603810190610393919061339a565b610c9a565b6040516103a591906129c0565b60405180910390f35b6103c860048036038101906103c391906133da565b610d2e565b005b6103e460048036038101906103df9190612e65565b610dcf565b005b6103ee610ec7565b6040516103fb9190612c1f565b60405180910390f35b61041e60048036038101906104199190613471565b6110e2565b005b60008073ffffffffffffffffffffffffffffffffffffffff168373ffffffffffffffffffffffffffffffffffffffff161415610491576040517f08c379a000000000000000000000000000000000000000000000000000000000815260040161048890613536565b60405180910390fd5b60008083815260200190815260200160002060008473ffffffffffffffffffffffffffffffffffffffff1673ffffffffffffffffffffffffffffffffffffffff16815260200190815260200160002054905092915050565b60007fd9b67a26000000000000000000000000000000000000000000000000000000007bffffffffffffffffffffffffffffffffffffffffffffffffffffffff1916827bffffffffffffffffffffffffffffffffffffffffffffffffffffffff191614806105b457507f0e89341c000000000000000000000000000000000000000000000000000000007bffffffffffffffffffffffffffffffffffffffffffffffffffffffff1916827bffffffffffffffffffffffffffffffffffffffffffffffffffffffff1916145b806105c457506105c3826111a2565b5b9050919050565b6105d361120c565b73ffffffffffffffffffffffffffffffffffffffff166105f1610c55565b73ffffffffffffffffffffffffffffffffffffffff1614610647576040517f08c379a000000000000000000000000000000000000000000000000000000000815260040161063e906135a2565b60405180910390fd5b61065081611214565b50565b606060028054610662906135f1565b80601f016020809104026020016040519081016040528092919081815260200182805461068e906135f1565b80156106db5780601f106106b0576101008083540402835291602001916106db565b820191906000526020600020905b8154815290600101906020018083116106be57829003601f168201915b50505050509050919050565b6106ef61120c565b73ffffffffffffffffffffffffffffffffffffffff1661070d610c55565b73ffffffffffffffffffffffffffffffffffffffff1614610763576040517f08c379a000000000000000000000000000000000000000000000000000000000815260040161075a906135a2565b60405180910390fd5b61076f8484848461122e565b50505050565b6060600060039050600161078a846002610420565b106107d157600090506040518060400160405280600681526020017f476f6c64656e00000000000000000000000000000000000000000000000000008152509150506108b3565b60016107de846001610420565b1061082557600190506040518060400160405280600681526020017f53696c76657200000000000000000000000000000000000000000000000000008152509150506108b3565b6001610832846000610420565b1061087957600290506040518060400160405280600681526020017f436f7070657200000000000000000000000000000000000000000000000000008152509150506108b3565b6040518060400160405280601681526020017f5573657220686173206e6f20536872696d70204e4654000000000000000000008152509150505b919050565b6108c061120c565b73ffffffffffffffffffffffffffffffffffffffff168573ffffffffffffffffffffffffffffffffffffffff16148061090657506109058561090061120c565b610c9a565b5b610945576040517f08c379a000000000000000000000000000000000000000000000000000000000815260040161093c90613695565b60405180910390fd5b610952858585858561145b565b5050505050565b600281565b606081518351146109a4576040517f08c379a000000000000000000000000000000000000000000000000000000000815260040161099b90613727565b60405180910390fd5b6000835167ffffffffffffffff8111156109c1576109c06129f6565b5b6040519080825280602002602001820160405280156109ef5781602001602082028036833780820191505090505b50905060005b8451811015610a6c57610a3c858281518110610a1457610a13613747565b5b6020026020010151858381518110610a2f57610a2e613747565b5b6020026020010151610420565b828281518110610a4f57610a4e613747565b5b60200260200101818152505080610a65906137a5565b90506109f5565b508091505092915050565b600081565b610a8461120c565b73ffffffffffffffffffffffffffffffffffffffff168373ffffffffffffffffffffffffffffffffffffffff161480610aca5750610ac983610ac461120c565b610c9a565b5b610b09576040517f08c379a0000000000000000000000000000000000000000000000000000000008152600401610b0090613860565b60405180910390fd5b610b1483838361177d565b505050565b610b2161120c565b73ffffffffffffffffffffffffffffffffffffffff16610b3f610c55565b73ffffffffffffffffffffffffffffffffffffffff1614610b95576040517f08c379a0000000000000000000000000000000000000000000000000000000008152600401610b8c906135a2565b60405180910390fd5b610b9f6000611a4c565b565b600460009054906101000a900473ffffffffffffffffffffffffffffffffffffffff1681565b610bcf61120c565b73ffffffffffffffffffffffffffffffffffffffff16610bed610c55565b73ffffffffffffffffffffffffffffffffffffffff1614610c43576040517f08c379a0000000000000000000000000000000000000000000000000000000008152600401610c3a906135a2565b60405180910390fd5b610c4f84848484611b12565b50505050565b6000600360009054906101000a900473ffffffffffffffffffffffffffffffffffffffff16905090565b610c91610c8a61120c565b8383611cc3565b5050565b600181565b6000600160008473ffffffffffffffffffffffffffffffffffffffff1673ffffffffffffffffffffffffffffffffffffffff16815260200190815260200160002060008373ffffffffffffffffffffffffffffffffffffffff1673ffffffffffffffffffffffffffffffffffffffff16815260200190815260200160002060009054906101000a900460ff16905092915050565b610d3661120c565b73ffffffffffffffffffffffffffffffffffffffff168573ffffffffffffffffffffffffffffffffffffffff161480610d7c5750610d7b85610d7661120c565b610c9a565b5b610dbb576040517f08c379a0000000000000000000000000000000000000000000000000000000008152600401610db290613860565b60405180910390fd5b610dc88585858585611e30565b5050505050565b610dd761120c565b73ffffffffffffffffffffffffffffffffffffffff16610df5610c55565b73ffffffffffffffffffffffffffffffffffffffff1614610e4b576040517f08c379a0000000000000000000000000000000000000000000000000000000008152600401610e42906135a2565b60405180910390fd5b600073ffffffffffffffffffffffffffffffffffffffff168173ffffffffffffffffffffffffffffffffffffffff161415610ebb576040517f08c379a0000000000000000000000000000000000000000000000000000000008152600401610eb2906138f2565b60405180910390fd5b610ec481611a4c565b50565b60606000600460009054906101000a900473ffffffffffffffffffffffffffffffffffffffff1673ffffffffffffffffffffffffffffffffffffffff1663a9570190336040518263ffffffff1660e01b8152600401610f269190613313565b602060405180830381600087803b158015610f4057600080fd5b505af1158015610f54573d6000803e3d6000fd5b505050506040513d601f19601f82011682018060405250810190610f789190613927565b90506001811415610fde57610fa0336000600160405180602001604052806000815250611b12565b6040518060400160405280601181526020017f47657420436f707065725f536872696d700000000000000000000000000000008152509150506110df565b6002811415611041576110033360018060405180602001604052806000815250611b12565b6040518060400160405280601181526020017f4765742053696c7665725f536872696d700000000000000000000000000000008152509150506110df565b60038114156110a557611067336002600160405180602001604052806000815250611b12565b6040518060400160405280601181526020017f47657420476f6c64656e5f536872696d700000000000000000000000000000008152509150506110df565b6040518060400160405280600c81526020017f4e6f7420656c696769626c6500000000000000000000000000000000000000008152509150505b90565b6110ea61120c565b73ffffffffffffffffffffffffffffffffffffffff168373ffffffffffffffffffffffffffffffffffffffff161480611130575061112f8361112a61120c565b610c9a565b5b61116f576040517f08c379a000000000000000000000000000000000000000000000000000000000815260040161116690613860565b60405180910390fd5b61117a8383836120cc565b505050565b6000808273ffffffffffffffffffffffffffffffffffffffff163b119050919050565b60007f01ffc9a7000000000000000000000000000000000000000000000000000000007bffffffffffffffffffffffffffffffffffffffffffffffffffffffff1916827bffffffffffffffffffffffffffffffffffffffffffffffffffffffff1916149050919050565b600033905090565b806002908051906020019061122a92919061276b565b5050565b600073ffffffffffffffffffffffffffffffffffffffff168473ffffffffffffffffffffffffffffffffffffffff16141561129e576040517f08c379a0000000000000000000000000000000000000000000000000000000008152600401611295906139c6565b60405180910390fd5b81518351146112e2576040517f08c379a00000000000000000000000000000000000000000000000000000000081526004016112d990613a58565b60405180910390fd5b60006112ec61120c565b90506112fd81600087878787612313565b60005b84518110156113b65783818151811061131c5761131b613747565b5b602002602001015160008087848151811061133a57611339613747565b5b6020026020010151815260200190815260200160002060008873ffffffffffffffffffffffffffffffffffffffff1673ffffffffffffffffffffffffffffffffffffffff168152602001908152602001600020600082825461139c9190613a78565b9250508190555080806113ae906137a5565b915050611300565b508473ffffffffffffffffffffffffffffffffffffffff16600073ffffffffffffffffffffffffffffffffffffffff168273ffffffffffffffffffffffffffffffffffffffff167f4a39dc06d4c0dbc64b70af90fd698a233a518aa5d07e595d983b8c0526c8f7fb878760405161142e929190613ace565b60405180910390a46114458160008787878761231b565b61145481600087878787612323565b5050505050565b815183511461149f576040517f08c379a000000000000000000000000000000000000000000000000000000000815260040161149690613a58565b60405180910390fd5b600073ffffffffffffffffffffffffffffffffffffffff168473ffffffffffffffffffffffffffffffffffffffff16141561150f576040517f08c379a000000000000000000000000000000000000000000000000000000000815260040161150690613b77565b60405180910390fd5b600061151961120c565b9050611529818787878787612313565b60005b84518110156116da57600085828151811061154a57611549613747565b5b60200260200101519050600085838151811061156957611568613747565b5b60200260200101519050600080600084815260200190815260200160002060008b73ffffffffffffffffffffffffffffffffffffffff1673ffffffffffffffffffffffffffffffffffffffff1681526020019081526020016000205490508181101561160a576040517f08c379a000000000000000000000000000000000000000000000000000000000815260040161160190613c09565b60405180910390fd5b81810360008085815260200190815260200160002060008c73ffffffffffffffffffffffffffffffffffffffff1673ffffffffffffffffffffffffffffffffffffffff168152602001908152602001600020819055508160008085815260200190815260200160002060008b73ffffffffffffffffffffffffffffffffffffffff1673ffffffffffffffffffffffffffffffffffffffff16815260200190815260200160002060008282546116bf9190613a78565b92505081905550505050806116d3906137a5565b905061152c565b508473ffffffffffffffffffffffffffffffffffffffff168673ffffffffffffffffffffffffffffffffffffffff168273ffffffffffffffffffffffffffffffffffffffff167f4a39dc06d4c0dbc64b70af90fd698a233a518aa5d07e595d983b8c0526c8f7fb8787604051611751929190613ace565b60405180910390a461176781878787878761231b565b611775818787878787612323565b505050505050565b600073ffffffffffffffffffffffffffffffffffffffff168373ffffffffffffffffffffffffffffffffffffffff1614156117ed576040517f08c379a00000000000000000000000000000000000000000000000000000000081526004016117e490613c9b565b60405180910390fd5b8051825114611831576040517f08c379a000000000000000000000000000000000000000000000000000000000815260040161182890613a58565b60405180910390fd5b600061183b61120c565b905061185b81856000868660405180602001604052806000815250612313565b60005b83518110156119a857600084828151811061187c5761187b613747565b5b60200260200101519050600084838151811061189b5761189a613747565b5b60200260200101519050600080600084815260200190815260200160002060008973ffffffffffffffffffffffffffffffffffffffff1673ffffffffffffffffffffffffffffffffffffffff1681526020019081526020016000205490508181101561193c576040517f08c379a000000000000000000000000000000000000000000000000000000000815260040161193390613d2d565b60405180910390fd5b81810360008085815260200190815260200160002060008a73ffffffffffffffffffffffffffffffffffffffff1673ffffffffffffffffffffffffffffffffffffffff1681526020019081526020016000208190555050505080806119a0906137a5565b91505061185e565b50600073ffffffffffffffffffffffffffffffffffffffff168473ffffffffffffffffffffffffffffffffffffffff168273ffffffffffffffffffffffffffffffffffffffff167f4a39dc06d4c0dbc64b70af90fd698a233a518aa5d07e595d983b8c0526c8f7fb8686604051611a20929190613ace565b60405180910390a4611a468185600086866040518060200160405280600081525061231b565b50505050565b6000600360009054906101000a900473ffffffffffffffffffffffffffffffffffffffff16905081600360006101000a81548173ffffffffffffffffffffffffffffffffffffffff021916908373ffffffffffffffffffffffffffffffffffffffff1602179055508173ffffffffffffffffffffffffffffffffffffffff168173ffffffffffffffffffffffffffffffffffffffff167f8be0079c531659141344cd1fd0a4f28419497f9722a3daafe3b4186f6b6457e060405160405180910390a35050565b600073ffffffffffffffffffffffffffffffffffffffff168473ffffffffffffffffffffffffffffffffffffffff161415611b82576040517f08c379a0000000000000000000000000000000000000000000000000000000008152600401611b79906139c6565b60405180910390fd5b6000611b8c61120c565b90506000611b998561250a565b90506000611ba68561250a565b9050611bb783600089858589612313565b8460008088815260200190815260200160002060008973ffffffffffffffffffffffffffffffffffffffff1673ffffffffffffffffffffffffffffffffffffffff1681526020019081526020016000206000828254611c169190613a78565b925050819055508673ffffffffffffffffffffffffffffffffffffffff16600073ffffffffffffffffffffffffffffffffffffffff168473ffffffffffffffffffffffffffffffffffffffff167fc3d58168c5ae7397731d063d5bbf3d657854427343f4c083240f7aacaa2d0f628989604051611c94929190613d4d565b60405180910390a4611cab8360008985858961231b565b611cba83600089898989612584565b50505050505050565b8173ffffffffffffffffffffffffffffffffffffffff168373ffffffffffffffffffffffffffffffffffffffff161415611d32576040517f08c379a0000000000000000000000000000000000000000000000000000000008152600401611d2990613de8565b60405180910390fd5b80600160008573ffffffffffffffffffffffffffffffffffffffff1673ffffffffffffffffffffffffffffffffffffffff16815260200190815260200160002060008473ffffffffffffffffffffffffffffffffffffffff1673ffffffffffffffffffffffffffffffffffffffff16815260200190815260200160002060006101000a81548160ff0219169083151502179055508173ffffffffffffffffffffffffffffffffffffffff168373ffffffffffffffffffffffffffffffffffffffff167f17307eab39ab6107e8899845ad3d59bd9653f200f220920489ca2b5937696c3183604051611e2391906129c0565b60405180910390a3505050565b600073ffffffffffffffffffffffffffffffffffffffff168473ffffffffffffffffffffffffffffffffffffffff161415611ea0576040517f08c379a0000000000000000000000000000000000000000000000000000000008152600401611e9790613b77565b60405180910390fd5b6000611eaa61120c565b90506000611eb78561250a565b90506000611ec48561250a565b9050611ed4838989858589612313565b600080600088815260200190815260200160002060008a73ffffffffffffffffffffffffffffffffffffffff1673ffffffffffffffffffffffffffffffffffffffff16815260200190815260200160002054905085811015611f6b576040517f08c379a0000000000000000000000000000000000000000000000000000000008152600401611f6290613c09565b60405180910390fd5b85810360008089815260200190815260200160002060008b73ffffffffffffffffffffffffffffffffffffffff1673ffffffffffffffffffffffffffffffffffffffff168152602001908152602001600020819055508560008089815260200190815260200160002060008a73ffffffffffffffffffffffffffffffffffffffff1673ffffffffffffffffffffffffffffffffffffffff16815260200190815260200160002060008282546120209190613a78565b925050819055508773ffffffffffffffffffffffffffffffffffffffff168973ffffffffffffffffffffffffffffffffffffffff168573ffffffffffffffffffffffffffffffffffffffff167fc3d58168c5ae7397731d063d5bbf3d657854427343f4c083240f7aacaa2d0f628a8a60405161209d929190613d4d565b60405180910390a46120b3848a8a86868a61231b565b6120c1848a8a8a8a8a612584565b505050505050505050565b600073ffffffffffffffffffffffffffffffffffffffff168373ffffffffffffffffffffffffffffffffffffffff16141561213c576040517f08c379a000000000000000000000000000000000000000000000000000000000815260040161213390613c9b565b60405180910390fd5b600061214661120c565b905060006121538461250a565b905060006121608461250a565b905061218083876000858560405180602001604052806000815250612313565b600080600087815260200190815260200160002060008873ffffffffffffffffffffffffffffffffffffffff1673ffffffffffffffffffffffffffffffffffffffff16815260200190815260200160002054905084811015612217576040517f08c379a000000000000000000000000000000000000000000000000000000000815260040161220e90613d2d565b60405180910390fd5b84810360008088815260200190815260200160002060008973ffffffffffffffffffffffffffffffffffffffff1673ffffffffffffffffffffffffffffffffffffffff16815260200190815260200160002081905550600073ffffffffffffffffffffffffffffffffffffffff168773ffffffffffffffffffffffffffffffffffffffff168573ffffffffffffffffffffffffffffffffffffffff167fc3d58168c5ae7397731d063d5bbf3d657854427343f4c083240f7aacaa2d0f6289896040516122e4929190613d4d565b60405180910390a461230a8488600086866040518060200160405280600081525061231b565b50505050505050565b505050505050565b505050505050565b6123428473ffffffffffffffffffffffffffffffffffffffff1661117f565b15612502578373ffffffffffffffffffffffffffffffffffffffff1663bc197c8187878686866040518663ffffffff1660e01b8152600401612388959493929190613e5d565b602060405180830381600087803b1580156123a257600080fd5b505af19250505080156123d357506040513d601f19601f820116820180604052508101906123d09190613eda565b60015b612479576123df613f14565b806308c379a0141561243c57506123f4613f36565b806123ff575061243e565b806040517f08c379a00000000000000000000000000000000000000000000000000000000081526004016124339190612c1f565b60405180910390fd5b505b6040517f08c379a00000000000000000000000000000000000000000000000000000000081526004016124709061403e565b60405180910390fd5b63bc197c8160e01b7bffffffffffffffffffffffffffffffffffffffffffffffffffffffff1916817bffffffffffffffffffffffffffffffffffffffffffffffffffffffff191614612500576040517f08c379a00000000000000000000000000000000000000000000000000000000081526004016124f7906140d0565b60405180910390fd5b505b505050505050565b60606000600167ffffffffffffffff811115612529576125286129f6565b5b6040519080825280602002602001820160405280156125575781602001602082028036833780820191505090505b509050828160008151811061256f5761256e613747565b5b60200260200101818152505080915050919050565b6125a38473ffffffffffffffffffffffffffffffffffffffff1661117f565b15612763578373ffffffffffffffffffffffffffffffffffffffff1663f23a6e6187878686866040518663ffffffff1660e01b81526004016125e99594939291906140f0565b602060405180830381600087803b15801561260357600080fd5b505af192505050801561263457506040513d601f19601f820116820180604052508101906126319190613eda565b60015b6126da57612640613f14565b806308c379a0141561269d5750612655613f36565b80612660575061269f565b806040517f08c379a00000000000000000000000000000000000000000000000000000000081526004016126949190612c1f565b60405180910390fd5b505b6040517f08c379a00000000000000000000000000000000000000000000000000000000081526004016126d19061403e565b60405180910390fd5b63f23a6e6160e01b7bffffffffffffffffffffffffffffffffffffffffffffffffffffffff1916817bffffffffffffffffffffffffffffffffffffffffffffffffffffffff191614612761576040517f08c379a0000000000000000000000000000000000000000000000000000000008152600401612758906140d0565b60405180910390fd5b505b505050505050565b828054612777906135f1565b90600052602060002090601f01602090048101928261279957600085556127e0565b82601f106127b257805160ff19168380011785556127e0565b828001600101855582156127e0579182015b828111156127df5782518255916020019190600101906127c4565b5b5090506127ed91906127f1565b5090565b5b8082111561280a5760008160009055506001016127f2565b5090565b6000604051905090565b600080fd5b600080fd5b600073ffffffffffffffffffffffffffffffffffffffff82169050919050565b600061284d82612822565b9050919050565b61285d81612842565b811461286857600080fd5b50565b60008135905061287a81612854565b92915050565b6000819050919050565b61289381612880565b811461289e57600080fd5b50565b6000813590506128b08161288a565b92915050565b600080604083850312156128cd576128cc612818565b5b60006128db8582860161286b565b92505060206128ec858286016128a1565b9150509250929050565b6128ff81612880565b82525050565b600060208201905061291a60008301846128f6565b92915050565b60007fffffffff0000000000000000000000000000000000000000000000000000000082169050919050565b61295581612920565b811461296057600080fd5b50565b6000813590506129728161294c565b92915050565b60006020828403121561298e5761298d612818565b5b600061299c84828501612963565b91505092915050565b60008115159050919050565b6129ba816129a5565b82525050565b60006020820190506129d560008301846129b1565b92915050565b600080fd5b600080fd5b6000601f19601f8301169050919050565b7f4e487b7100000000000000000000000000000000000000000000000000000000600052604160045260246000fd5b612a2e826129e5565b810181811067ffffffffffffffff82111715612a4d57612a4c6129f6565b5b80604052505050565b6000612a6061280e565b9050612a6c8282612a25565b919050565b600067ffffffffffffffff821115612a8c57612a8b6129f6565b5b612a95826129e5565b9050602081019050919050565b82818337600083830152505050565b6000612ac4612abf84612a71565b612a56565b905082815260208101848484011115612ae057612adf6129e0565b5b612aeb848285612aa2565b509392505050565b600082601f830112612b0857612b076129db565b5b8135612b18848260208601612ab1565b91505092915050565b600060208284031215612b3757612b36612818565b5b600082013567ffffffffffffffff811115612b5557612b5461281d565b5b612b6184828501612af3565b91505092915050565b600060208284031215612b8057612b7f612818565b5b6000612b8e848285016128a1565b91505092915050565b600081519050919050565b600082825260208201905092915050565b60005b83811015612bd1578082015181840152602081019050612bb6565b83811115612be0576000848401525b50505050565b6000612bf182612b97565b612bfb8185612ba2565b9350612c0b818560208601612bb3565b612c14816129e5565b840191505092915050565b60006020820190508181036000830152612c398184612be6565b905092915050565b600067ffffffffffffffff821115612c5c57612c5b6129f6565b5b602082029050602081019050919050565b600080fd5b6000612c85612c8084612c41565b612a56565b90508083825260208201905060208402830185811115612ca857612ca7612c6d565b5b835b81811015612cd15780612cbd88826128a1565b845260208401935050602081019050612caa565b5050509392505050565b600082601f830112612cf057612cef6129db565b5b8135612d00848260208601612c72565b91505092915050565b600067ffffffffffffffff821115612d2457612d236129f6565b5b612d2d826129e5565b9050602081019050919050565b6000612d4d612d4884612d09565b612a56565b905082815260208101848484011115612d6957612d686129e0565b5b612d74848285612aa2565b509392505050565b600082601f830112612d9157612d906129db565b5b8135612da1848260208601612d3a565b91505092915050565b60008060008060808587031215612dc457612dc3612818565b5b6000612dd28782880161286b565b945050602085013567ffffffffffffffff811115612df357612df261281d565b5b612dff87828801612cdb565b935050604085013567ffffffffffffffff811115612e2057612e1f61281d565b5b612e2c87828801612cdb565b925050606085013567ffffffffffffffff811115612e4d57612e4c61281d565b5b612e5987828801612d7c565b91505092959194509250565b600060208284031215612e7b57612e7a612818565b5b6000612e898482850161286b565b91505092915050565b600080600080600060a08688031215612eae57612ead612818565b5b6000612ebc8882890161286b565b9550506020612ecd8882890161286b565b945050604086013567ffffffffffffffff811115612eee57612eed61281d565b5b612efa88828901612cdb565b935050606086013567ffffffffffffffff811115612f1b57612f1a61281d565b5b612f2788828901612cdb565b925050608086013567ffffffffffffffff811115612f4857612f4761281d565b5b612f5488828901612d7c565b9150509295509295909350565b600067ffffffffffffffff821115612f7c57612f7b6129f6565b5b602082029050602081019050919050565b6000612fa0612f9b84612f61565b612a56565b90508083825260208201905060208402830185811115612fc357612fc2612c6d565b5b835b81811015612fec5780612fd8888261286b565b845260208401935050602081019050612fc5565b5050509392505050565b600082601f83011261300b5761300a6129db565b5b813561301b848260208601612f8d565b91505092915050565b6000806040838503121561303b5761303a612818565b5b600083013567ffffffffffffffff8111156130595761305861281d565b5b61306585828601612ff6565b925050602083013567ffffffffffffffff8111156130865761308561281d565b5b61309285828601612cdb565b9150509250929050565b600081519050919050565b600082825260208201905092915050565b6000819050602082019050919050565b6130d181612880565b82525050565b60006130e383836130c8565b60208301905092915050565b6000602082019050919050565b60006131078261309c565b61311181856130a7565b935061311c836130b8565b8060005b8381101561314d57815161313488826130d7565b975061313f836130ef565b925050600181019050613120565b5085935050505092915050565b6000602082019050818103600083015261317481846130fc565b905092915050565b60008060006060848603121561319557613194612818565b5b60006131a38682870161286b565b935050602084013567ffffffffffffffff8111156131c4576131c361281d565b5b6131d086828701612cdb565b925050604084013567ffffffffffffffff8111156131f1576131f061281d565b5b6131fd86828701612cdb565b9150509250925092565b6000819050919050565b600061322c61322761322284612822565b613207565b612822565b9050919050565b600061323e82613211565b9050919050565b600061325082613233565b9050919050565b61326081613245565b82525050565b600060208201905061327b6000830184613257565b92915050565b6000806000806080858703121561329b5761329a612818565b5b60006132a98782880161286b565b94505060206132ba878288016128a1565b93505060406132cb878288016128a1565b925050606085013567ffffffffffffffff8111156132ec576132eb61281d565b5b6132f887828801612d7c565b91505092959194509250565b61330d81612842565b82525050565b60006020820190506133286000830184613304565b92915050565b613337816129a5565b811461334257600080fd5b50565b6000813590506133548161332e565b92915050565b6000806040838503121561337157613370612818565b5b600061337f8582860161286b565b925050602061339085828601613345565b9150509250929050565b600080604083850312156133b1576133b0612818565b5b60006133bf8582860161286b565b92505060206133d08582860161286b565b9150509250929050565b600080600080600060a086880312156133f6576133f5612818565b5b60006134048882890161286b565b95505060206134158882890161286b565b9450506040613426888289016128a1565b9350506060613437888289016128a1565b925050608086013567ffffffffffffffff8111156134585761345761281d565b5b61346488828901612d7c565b9150509295509295909350565b60008060006060848603121561348a57613489612818565b5b60006134988682870161286b565b93505060206134a9868287016128a1565b92505060406134ba868287016128a1565b9150509250925092565b7f455243313135353a2062616c616e636520717565727920666f7220746865207a60008201527f65726f2061646472657373000000000000000000000000000000000000000000602082015250565b6000613520602b83612ba2565b915061352b826134c4565b604082019050919050565b6000602082019050818103600083015261354f81613513565b9050919050565b7f4f776e61626c653a2063616c6c6572206973206e6f7420746865206f776e6572600082015250565b600061358c602083612ba2565b915061359782613556565b602082019050919050565b600060208201905081810360008301526135bb8161357f565b9050919050565b7f4e487b7100000000000000000000000000000000000000000000000000000000600052602260045260246000fd5b6000600282049050600182168061360957607f821691505b6020821081141561361d5761361c6135c2565b5b50919050565b7f455243313135353a207472616e736665722063616c6c6572206973206e6f742060008201527f6f776e6572206e6f7220617070726f7665640000000000000000000000000000602082015250565b600061367f603283612ba2565b915061368a82613623565b604082019050919050565b600060208201905081810360008301526136ae81613672565b9050919050565b7f455243313135353a206163636f756e747320616e6420696473206c656e67746860008201527f206d69736d617463680000000000000000000000000000000000000000000000602082015250565b6000613711602983612ba2565b915061371c826136b5565b604082019050919050565b6000602082019050818103600083015261374081613704565b9050919050565b7f4e487b7100000000000000000000000000000000000000000000000000000000600052603260045260246000fd5b7f4e487b7100000000000000000000000000000000000000000000000000000000600052601160045260246000fd5b60006137b082612880565b91507fffffffffffffffffffffffffffffffffffffffffffffffffffffffffffffffff8214156137e3576137e2613776565b5b600182019050919050565b7f455243313135353a2063616c6c6572206973206e6f74206f776e6572206e6f7260008201527f20617070726f7665640000000000000000000000000000000000000000000000602082015250565b600061384a602983612ba2565b9150613855826137ee565b604082019050919050565b600060208201905081810360008301526138798161383d565b9050919050565b7f4f776e61626c653a206e6577206f776e657220697320746865207a65726f206160008201527f6464726573730000000000000000000000000000000000000000000000000000602082015250565b60006138dc602683612ba2565b91506138e782613880565b604082019050919050565b6000602082019050818103600083015261390b816138cf565b9050919050565b6000815190506139218161288a565b92915050565b60006020828403121561393d5761393c612818565b5b600061394b84828501613912565b91505092915050565b7f455243313135353a206d696e7420746f20746865207a65726f2061646472657360008201527f7300000000000000000000000000000000000000000000000000000000000000602082015250565b60006139b0602183612ba2565b91506139bb82613954565b604082019050919050565b600060208201905081810360008301526139df816139a3565b9050919050565b7f455243313135353a2069647320616e6420616d6f756e7473206c656e6774682060008201527f6d69736d61746368000000000000000000000000000000000000000000000000602082015250565b6000613a42602883612ba2565b9150613a4d826139e6565b604082019050919050565b60006020820190508181036000830152613a7181613a35565b9050919050565b6000613a8382612880565b9150613a8e83612880565b9250827fffffffffffffffffffffffffffffffffffffffffffffffffffffffffffffffff03821115613ac357613ac2613776565b5b828201905092915050565b60006040820190508181036000830152613ae881856130fc565b90508181036020830152613afc81846130fc565b90509392505050565b7f455243313135353a207472616e7366657220746f20746865207a65726f20616460008201527f6472657373000000000000000000000000000000000000000000000000000000602082015250565b6000613b61602583612ba2565b9150613b6c82613b05565b604082019050919050565b60006020820190508181036000830152613b9081613b54565b9050919050565b7f455243313135353a20696e73756666696369656e742062616c616e636520666f60008201527f72207472616e7366657200000000000000000000000000000000000000000000602082015250565b6000613bf3602a83612ba2565b9150613bfe82613b97565b604082019050919050565b60006020820190508181036000830152613c2281613be6565b9050919050565b7f455243313135353a206275726e2066726f6d20746865207a65726f206164647260008201527f6573730000000000000000000000000000000000000000000000000000000000602082015250565b6000613c85602383612ba2565b9150613c9082613c29565b604082019050919050565b60006020820190508181036000830152613cb481613c78565b9050919050565b7f455243313135353a206275726e20616d6f756e7420657863656564732062616c60008201527f616e636500000000000000000000000000000000000000000000000000000000602082015250565b6000613d17602483612ba2565b9150613d2282613cbb565b604082019050919050565b60006020820190508181036000830152613d4681613d0a565b9050919050565b6000604082019050613d6260008301856128f6565b613d6f60208301846128f6565b9392505050565b7f455243313135353a2073657474696e6720617070726f76616c2073746174757360008201527f20666f722073656c660000000000000000000000000000000000000000000000602082015250565b6000613dd2602983612ba2565b9150613ddd82613d76565b604082019050919050565b60006020820190508181036000830152613e0181613dc5565b9050919050565b600081519050919050565b600082825260208201905092915050565b6000613e2f82613e08565b613e398185613e13565b9350613e49818560208601612bb3565b613e52816129e5565b840191505092915050565b600060a082019050613e726000830188613304565b613e7f6020830187613304565b8181036040830152613e9181866130fc565b90508181036060830152613ea581856130fc565b90508181036080830152613eb98184613e24565b90509695505050505050565b600081519050613ed48161294c565b92915050565b600060208284031215613ef057613eef612818565b5b6000613efe84828501613ec5565b91505092915050565b60008160e01c9050919050565b600060033d1115613f335760046000803e613f30600051613f07565b90505b90565b600060443d1015613f4657613fc9565b613f4e61280e565b60043d036004823e80513d602482011167ffffffffffffffff82111715613f76575050613fc9565b808201805167ffffffffffffffff811115613f945750505050613fc9565b80602083010160043d038501811115613fb1575050505050613fc9565b613fc082602001850186612a25565b82955050505050505b90565b7f455243313135353a207472616e7366657220746f206e6f6e204552433131353560008201527f526563656976657220696d706c656d656e746572000000000000000000000000602082015250565b6000614028603483612ba2565b915061403382613fcc565b604082019050919050565b600060208201905081810360008301526140578161401b565b9050919050565b7f455243313135353a204552433131353552656365697665722072656a6563746560008201527f6420746f6b656e73000000000000000000000000000000000000000000000000602082015250565b60006140ba602883612ba2565b91506140c58261405e565b604082019050919050565b600060208201905081810360008301526140e9816140ad565b9050919050565b600060a0820190506141056000830188613304565b6141126020830187613304565b61411f60408301866128f6565b61412c60608301856128f6565b818103608083015261413e8184613e24565b9050969550505050505056fea2646970667358221220729b56d0f5a8037f20079d7773b18fe64df25f21582fd8c8f786e7ab05d9693764736f6c6343000809003368747470733a2f2f67616d652e6578616d706c652f6170692f6974656d2f7b69647d2e6a736f6e",
  "linkReferences": {},
  "deployedLinkReferences": {}
}